{
  "_format": "hh-sol-artifact-1",
  "contractName": "NewsPlatform",
  "sourceName": "contracts/NewsPlatform.sol",
  "abi": [
    {
      "inputs": [],
      "stateMutability": "nonpayable",
      "type": "constructor"
    },
    {
      "inputs": [],
      "name": "AccessControlBadConfirmation",
      "type": "error"
    },
    {
      "inputs": [
        {
          "internalType": "address",
          "name": "account",
          "type": "address"
        },
        {
          "internalType": "bytes32",
          "name": "neededRole",
          "type": "bytes32"
        }
      ],
      "name": "AccessControlUnauthorizedAccount",
      "type": "error"
    },
    {
      "anonymous": false,
      "inputs": [
        {
          "indexed": true,
          "internalType": "bytes32",
          "name": "role",
          "type": "bytes32"
        },
        {
          "indexed": true,
          "internalType": "bytes32",
          "name": "previousAdminRole",
          "type": "bytes32"
        },
        {
          "indexed": true,
          "internalType": "bytes32",
          "name": "newAdminRole",
          "type": "bytes32"
        }
      ],
      "name": "RoleAdminChanged",
      "type": "event"
    },
    {
      "anonymous": false,
      "inputs": [
        {
          "indexed": true,
          "internalType": "bytes32",
          "name": "role",
          "type": "bytes32"
        },
        {
          "indexed": true,
          "internalType": "address",
          "name": "account",
          "type": "address"
        },
        {
          "indexed": true,
          "internalType": "address",
          "name": "sender",
          "type": "address"
        }
      ],
      "name": "RoleGranted",
      "type": "event"
    },
    {
      "anonymous": false,
      "inputs": [
        {
          "indexed": true,
          "internalType": "bytes32",
          "name": "role",
          "type": "bytes32"
        },
        {
          "indexed": true,
          "internalType": "address",
          "name": "account",
          "type": "address"
        },
        {
          "indexed": true,
          "internalType": "address",
          "name": "sender",
          "type": "address"
        }
      ],
      "name": "RoleRevoked",
      "type": "event"
    },
    {
      "inputs": [],
      "name": "DEFAULT_ADMIN_ROLE",
      "outputs": [
        {
          "internalType": "bytes32",
          "name": "",
          "type": "bytes32"
        }
      ],
      "stateMutability": "view",
      "type": "function"
    },
    {
      "inputs": [],
      "name": "PUBLISHER_ROLE",
      "outputs": [
        {
          "internalType": "bytes32",
          "name": "",
          "type": "bytes32"
        }
      ],
      "stateMutability": "view",
      "type": "function"
    },
    {
      "inputs": [
        {
          "internalType": "uint256",
          "name": "",
          "type": "uint256"
        }
      ],
      "name": "articleVersionCounts",
      "outputs": [
        {
          "internalType": "uint256",
          "name": "",
          "type": "uint256"
        }
      ],
      "stateMutability": "view",
      "type": "function"
    },
    {
      "inputs": [
        {
          "internalType": "uint256",
          "name": "",
          "type": "uint256"
        }
      ],
      "name": "articleVersionless",
      "outputs": [
        {
          "internalType": "uint256",
          "name": "id",
          "type": "uint256"
        },
        {
          "internalType": "string",
          "name": "title",
          "type": "string"
        },
        {
          "internalType": "string",
          "name": "content",
          "type": "string"
        },
        {
          "internalType": "uint256",
          "name": "timestamp",
          "type": "uint256"
        },
        {
          "internalType": "address",
          "name": "publisherID",
          "type": "address"
        },
        {
          "internalType": "string",
          "name": "articleHash",
          "type": "string"
        }
      ],
      "stateMutability": "view",
      "type": "function"
    },
    {
      "inputs": [
        {
          "internalType": "uint256",
          "name": "",
          "type": "uint256"
        }
      ],
      "name": "articles",
      "outputs": [
        {
          "internalType": "string",
          "name": "title",
          "type": "string"
        },
        {
          "internalType": "string",
          "name": "content",
          "type": "string"
        },
        {
          "internalType": "uint256",
          "name": "timestamp",
          "type": "uint256"
        },
        {
          "internalType": "address",
          "name": "publisherID",
          "type": "address"
        },
        {
          "internalType": "string",
          "name": "articleHash",
          "type": "string"
        }
      ],
      "stateMutability": "view",
      "type": "function"
    },
    {
      "inputs": [
        {
          "internalType": "bytes32",
          "name": "_bytes32",
          "type": "bytes32"
        }
      ],
      "name": "bytes32ToString",
      "outputs": [
        {
          "internalType": "string",
          "name": "",
          "type": "string"
        }
      ],
      "stateMutability": "pure",
      "type": "function"
    },
    {
      "inputs": [],
      "name": "getAllArticleIds",
      "outputs": [
        {
          "internalType": "uint256[]",
          "name": "",
          "type": "uint256[]"
        }
      ],
      "stateMutability": "view",
      "type": "function"
    },
    {
      "inputs": [],
      "name": "getAllPublishers",
      "outputs": [
        {
          "components": [
            {
              "internalType": "address",
              "name": "publisherID",
              "type": "address"
            },
            {
              "internalType": "uint256",
              "name": "registrationTimestamp",
              "type": "uint256"
            },
            {
              "internalType": "int256",
              "name": "reputationScore",
              "type": "int256"
            },
            {
              "internalType": "bool",
              "name": "isRegistered",
              "type": "bool"
            }
          ],
          "internalType": "struct NewsPlatform.Publisher[]",
          "name": "",
          "type": "tuple[]"
        }
      ],
      "stateMutability": "view",
      "type": "function"
    },
    {
      "inputs": [
        {
          "internalType": "uint256",
          "name": "articleId",
          "type": "uint256"
        }
      ],
      "name": "getArticle",
      "outputs": [
        {
          "components": [
            {
              "internalType": "uint256",
              "name": "id",
              "type": "uint256"
            },
            {
              "internalType": "string",
              "name": "title",
              "type": "string"
            },
            {
              "internalType": "string",
              "name": "content",
              "type": "string"
            },
            {
              "internalType": "uint256",
              "name": "timestamp",
              "type": "uint256"
            },
            {
              "internalType": "address",
              "name": "publisherID",
              "type": "address"
            },
            {
              "internalType": "string",
              "name": "articleHash",
              "type": "string"
            }
          ],
          "internalType": "struct NewsPlatform.ArticleWithID",
          "name": "",
          "type": "tuple"
        }
      ],
      "stateMutability": "view",
      "type": "function"
    },
    {
      "inputs": [
        {
          "internalType": "uint256",
          "name": "articleId",
          "type": "uint256"
        }
      ],
      "name": "getArticleHistory",
      "outputs": [
        {
          "components": [
            {
              "internalType": "uint256",
              "name": "versionNumber",
              "type": "uint256"
            },
            {
              "internalType": "string",
              "name": "articleHash",
              "type": "string"
            },
            {
              "internalType": "address",
              "name": "editorID",
              "type": "address"
            },
            {
              "internalType": "uint256",
              "name": "editTimestamp",
              "type": "uint256"
            },
            {
              "internalType": "string",
              "name": "title",
              "type": "string"
            },
            {
              "internalType": "string",
              "name": "content",
              "type": "string"
            }
          ],
          "internalType": "struct NewsPlatform.ArticleVersion[]",
          "name": "",
          "type": "tuple[]"
        }
      ],
      "stateMutability": "view",
      "type": "function"
    },
    {
      "inputs": [
        {
          "internalType": "string",
          "name": "name",
          "type": "string"
        }
      ],
      "name": "getArticlesByName",
      "outputs": [
        {
          "components": [
            {
              "internalType": "uint256",
              "name": "id",
              "type": "uint256"
            },
            {
              "internalType": "string",
              "name": "title",
              "type": "string"
            },
            {
              "internalType": "string",
              "name": "content",
              "type": "string"
            },
            {
              "internalType": "uint256",
              "name": "timestamp",
              "type": "uint256"
            },
            {
              "internalType": "address",
              "name": "publisherID",
              "type": "address"
            },
            {
              "internalType": "string",
              "name": "articleHash",
              "type": "string"
            }
          ],
          "internalType": "struct NewsPlatform.ArticlewithOutVersion[]",
          "name": "",
          "type": "tuple[]"
        }
      ],
      "stateMutability": "view",
      "type": "function"
    },
    {
      "inputs": [
        {
          "internalType": "address",
          "name": "publisherAddress",
          "type": "address"
        }
      ],
      "name": "getArticlesByPublisher",
      "outputs": [
        {
          "components": [
            {
              "internalType": "uint256",
              "name": "id",
              "type": "uint256"
            },
            {
              "internalType": "string",
              "name": "title",
              "type": "string"
            },
            {
              "internalType": "string",
              "name": "content",
              "type": "string"
            },
            {
              "internalType": "uint256",
              "name": "timestamp",
              "type": "uint256"
            },
            {
              "internalType": "address",
              "name": "publisherID",
              "type": "address"
            },
            {
              "internalType": "string",
              "name": "articleHash",
              "type": "string"
            }
          ],
          "internalType": "struct NewsPlatform.ArticlewithOutVersion[]",
          "name": "",
          "type": "tuple[]"
        }
      ],
      "stateMutability": "view",
      "type": "function"
    },
    {
      "inputs": [
        {
          "internalType": "bytes32",
          "name": "role",
          "type": "bytes32"
        }
      ],
      "name": "getRoleAdmin",
      "outputs": [
        {
          "internalType": "bytes32",
          "name": "",
          "type": "bytes32"
        }
      ],
      "stateMutability": "view",
      "type": "function"
    },
    {
      "inputs": [
        {
          "internalType": "address",
          "name": "newAdmin",
          "type": "address"
        }
      ],
      "name": "grantAdminRole",
      "outputs": [],
      "stateMutability": "nonpayable",
      "type": "function"
    },
    {
      "inputs": [
        {
          "internalType": "bytes32",
          "name": "role",
          "type": "bytes32"
        },
        {
          "internalType": "address",
          "name": "account",
          "type": "address"
        }
      ],
      "name": "grantRole",
      "outputs": [],
      "stateMutability": "nonpayable",
      "type": "function"
    },
    {
      "inputs": [
        {
          "internalType": "bytes32",
          "name": "role",
          "type": "bytes32"
        },
        {
          "internalType": "address",
          "name": "account",
          "type": "address"
        }
      ],
      "name": "hasRole",
      "outputs": [
        {
          "internalType": "bool",
          "name": "",
          "type": "bool"
        }
      ],
      "stateMutability": "view",
      "type": "function"
    },
    {
      "inputs": [
        {
          "internalType": "address",
          "name": "user",
          "type": "address"
        }
      ],
      "name": "isAdmin",
      "outputs": [
        {
          "internalType": "bool",
          "name": "",
          "type": "bool"
        }
      ],
      "stateMutability": "view",
      "type": "function"
    },
    {
      "inputs": [
        {
          "internalType": "address",
          "name": "user",
          "type": "address"
        }
      ],
      "name": "isPublisher",
      "outputs": [
        {
          "internalType": "bool",
          "name": "",
          "type": "bool"
        }
      ],
      "stateMutability": "view",
      "type": "function"
    },
    {
      "inputs": [
        {
          "internalType": "string",
          "name": "",
          "type": "string"
        }
      ],
      "name": "nameToPublisherAddress",
      "outputs": [
        {
          "internalType": "address",
          "name": "",
          "type": "address"
        }
      ],
      "stateMutability": "view",
      "type": "function"
    },
    {
      "inputs": [
        {
          "internalType": "uint256",
          "name": "",
          "type": "uint256"
        }
      ],
      "name": "publisherAddresses",
      "outputs": [
        {
          "internalType": "address",
          "name": "",
          "type": "address"
        }
      ],
      "stateMutability": "view",
      "type": "function"
    },
    {
      "inputs": [
        {
          "internalType": "address",
          "name": "",
          "type": "address"
        },
        {
          "internalType": "uint256",
          "name": "",
          "type": "uint256"
        }
      ],
      "name": "publisherArticles",
      "outputs": [
        {
          "internalType": "uint256",
          "name": "",
          "type": "uint256"
        }
      ],
      "stateMutability": "view",
      "type": "function"
    },
    {
      "inputs": [
        {
          "internalType": "address",
          "name": "",
          "type": "address"
        }
      ],
      "name": "publisherNames",
      "outputs": [
        {
          "internalType": "string",
          "name": "",
          "type": "string"
        }
      ],
      "stateMutability": "view",
      "type": "function"
    },
    {
      "inputs": [
        {
          "internalType": "address",
          "name": "",
          "type": "address"
        }
      ],
      "name": "publishers",
      "outputs": [
        {
          "internalType": "address",
          "name": "publisherID",
          "type": "address"
        },
        {
          "internalType": "uint256",
          "name": "registrationTimestamp",
          "type": "uint256"
        },
        {
          "internalType": "int256",
          "name": "reputationScore",
          "type": "int256"
        },
        {
          "internalType": "bool",
          "name": "isRegistered",
          "type": "bool"
        }
      ],
      "stateMutability": "view",
      "type": "function"
    },
    {
      "inputs": [
        {
          "internalType": "address",
          "name": "",
          "type": "address"
        }
      ],
      "name": "readers",
      "outputs": [
        {
          "internalType": "address",
          "name": "readerID",
          "type": "address"
        }
      ],
      "stateMutability": "view",
      "type": "function"
    },
    {
      "inputs": [
        {
          "internalType": "address",
          "name": "publisherAddress",
          "type": "address"
        },
        {
          "internalType": "string",
          "name": "name",
          "type": "string"
        }
      ],
      "name": "registerPublisher",
      "outputs": [],
      "stateMutability": "nonpayable",
      "type": "function"
    },
    {
      "inputs": [
        {
          "internalType": "bytes32",
          "name": "role",
          "type": "bytes32"
        },
        {
          "internalType": "address",
          "name": "callerConfirmation",
          "type": "address"
        }
      ],
      "name": "renounceRole",
      "outputs": [],
      "stateMutability": "nonpayable",
      "type": "function"
    },
    {
      "inputs": [
        {
          "internalType": "bytes32",
          "name": "role",
          "type": "bytes32"
        },
        {
          "internalType": "address",
          "name": "account",
          "type": "address"
        }
      ],
      "name": "revokeRole",
      "outputs": [],
      "stateMutability": "nonpayable",
      "type": "function"
    },
    {
      "inputs": [
        {
          "internalType": "string",
          "name": "title",
          "type": "string"
        },
        {
          "internalType": "string",
          "name": "content",
          "type": "string"
        }
      ],
      "name": "submitArticle",
      "outputs": [],
      "stateMutability": "nonpayable",
      "type": "function"
    },
    {
      "inputs": [
        {
          "internalType": "bytes4",
          "name": "interfaceId",
          "type": "bytes4"
        }
      ],
      "name": "supportsInterface",
      "outputs": [
        {
          "internalType": "bool",
          "name": "",
          "type": "bool"
        }
      ],
      "stateMutability": "view",
      "type": "function"
    },
    {
      "inputs": [
        {
          "internalType": "uint256",
          "name": "articleId",
          "type": "uint256"
        },
        {
          "internalType": "string",
          "name": "newTitle",
          "type": "string"
        },
        {
          "internalType": "string",
          "name": "newContent",
          "type": "string"
        }
      ],
      "name": "updateArticle",
      "outputs": [],
      "stateMutability": "nonpayable",
      "type": "function"
    }
  ],
  "bytecode": "0x60806040523480156200001157600080fd5b50620000276000801b336200006160201b60201c565b506200005a7f0ac90c257048ef1c3e387c26d4a99bde06894efbcbff862dc1885c3a9319308a336200006160201b60201c565b50620001d6565b60006200007583836200016460201b60201c565b6200015957600160008085815260200190815260200160002060000160008473ffffffffffffffffffffffffffffffffffffffff1673ffffffffffffffffffffffffffffffffffffffff16815260200190815260200160002060006101000a81548160ff021916908315150217905550620000f5620001ce60201b60201c565b73ffffffffffffffffffffffffffffffffffffffff168273ffffffffffffffffffffffffffffffffffffffff16847f2f8788117e7eff1d82e926ec794901d17c78024a50270940304540a733656f0d60405160405180910390a4600190506200015e565b600090505b92915050565b600080600084815260200190815260200160002060000160008373ffffffffffffffffffffffffffffffffffffffff1673ffffffffffffffffffffffffffffffffffffffff16815260200190815260200160002060009054906101000a900460ff16905092915050565b600033905090565b6145ec80620001e66000396000f3fe608060405234801561001057600080fd5b50600436106101da5760003560e01c80638867041211610104578063bd85d867116100a2578063d8f4b6fd11610071578063d8f4b6fd14610605578063d98fabc114610623578063edcfafe614610653578063ffcd40f314610687576101da565b8063bd85d8671461056d578063c634b78e1461059d578063c8eb09e8146105b9578063d547741f146105e9576101da565b80639ec578d9116100de5780639ec578d9146104d3578063a217fddf14610503578063abb7ae5d14610521578063bb09a8b214610551576101da565b8063886704121461045757806391d14854146104735780639201de55146104a3576101da565b80632f2ff15d1161017c5780634c96f2811161014b5780634c96f281146103bb57806351e59ffb146103d9578063703fd07d1461040957806373e4312d14610427576101da565b80632f2ff15d1461031e57806336568abe1461033a57806341859ac8146103565780634bab5a4614610386576101da565b8063248a9ca3116101b8578063248a9ca31461027257806324d7806c146102a257806325671a2f146102d25780632738f28a146102ee576101da565b806301ffc9a7146101df5780630a4d85cd1461020f5780631df550f714610242575b600080fd5b6101f960048036038101906101f49190612e7b565b6106b7565b6040516102069190612ec3565b60405180910390f35b61022960048036038101906102249190612f3c565b610731565b6040516102399493929190612faa565b60405180910390f35b61025c6004803603810190610257919061301b565b61078e565b6040516102699190613048565b60405180910390f35b61028c60048036038101906102879190613099565b6107cd565b60405161029991906130d5565b60405180910390f35b6102bc60048036038101906102b79190612f3c565b6107ec565b6040516102c99190612ec3565b60405180910390f35b6102ec60048036038101906102e79190613236565b610802565b005b610308600480360381019061030391906132ae565b610cbe565b60405161031591906134ed565b60405180910390f35b6103386004803603810190610333919061350f565b610d83565b005b610354600480360381019061034f919061350f565b610da5565b005b610370600480360381019061036b9190612f3c565b610e20565b60405161037d9190612ec3565b60405180910390f35b6103a0600480360381019061039b919061301b565b610e53565b6040516103b296959493929190613599565b60405180910390f35b6103c3611047565b6040516103d09190613731565b60405180910390f35b6103f360048036038101906103ee9190612f3c565b611325565b6040516104009190613048565b60405180910390f35b610411611363565b60405161041e9190613802565b60405180910390f35b610441600480360381019061043c9190612f3c565b61140f565b60405161044e91906134ed565b60405180910390f35b610471600480360381019061046c9190613824565b611945565b005b61048d6004803603810190610488919061350f565b611cc0565b60405161049a9190612ec3565b60405180910390f35b6104bd60048036038101906104b89190613099565b611d2a565b6040516104ca91906138af565b60405180910390f35b6104ed60048036038101906104e89190612f3c565b611d53565b6040516104fa91906138af565b60405180910390f35b61050b611df3565b60405161051891906130d5565b60405180910390f35b61053b6004803603810190610536919061301b565b611dfa565b60405161054891906138d1565b60405180910390f35b61056b600480360381019061056691906138ec565b611e12565b005b6105876004803603810190610582919061301b565b612121565b60405161059491906139df565b60405180910390f35b6105b760048036038101906105b29190612f3c565b6123f2565b005b6105d360048036038101906105ce91906132ae565b612410565b6040516105e09190613048565b60405180910390f35b61060360048036038101906105fe919061350f565b612459565b005b61060d61247b565b60405161061a91906130d5565b60405180910390f35b61063d60048036038101906106389190613a01565b61249f565b60405161064a91906138d1565b60405180910390f35b61066d6004803603810190610668919061301b565b6124d0565b60405161067e959493929190613a41565b60405180910390f35b6106a1600480360381019061069c919061301b565b6126be565b6040516106ae9190613c02565b60405180910390f35b60007f7965db0b000000000000000000000000000000000000000000000000000000007bffffffffffffffffffffffffffffffffffffffffffffffffffffffff1916827bffffffffffffffffffffffffffffffffffffffffffffffffffffffff1916148061072a575061072982612a31565b5b9050919050565b60056020528060005260406000206000915090508060000160009054906101000a900473ffffffffffffffffffffffffffffffffffffffff16908060010154908060020154908060030160009054906101000a900460ff16905084565b6001818154811061079e57600080fd5b906000526020600020016000915054906101000a900473ffffffffffffffffffffffffffffffffffffffff1681565b6000806000838152602001908152602001600020600101549050919050565b60006107fb6000801b83611cc0565b9050919050565b61082c7f0ac90c257048ef1c3e387c26d4a99bde06894efbcbff862dc1885c3a9319308a33611cc0565b61086b576040517f08c379a000000000000000000000000000000000000000000000000000000000815260040161086290613c70565b60405180910390fd5b60008251116108af576040517f08c379a00000000000000000000000000000000000000000000000000000000081526004016108a690613cdc565b60405180910390fd5b60008151116108f3576040517f08c379a00000000000000000000000000000000000000000000000000000000081526004016108ea90613d48565b60405180910390fd5b6009600081548092919061090690613d97565b91905055506000600954905060008383604051602001610927929190613e1b565b60405160208183030381529060405280519060200120905083600360008481526020019081526020016000206000019081610962919061404b565b5082600360008481526020019081526020016000206001019081610986919061404b565b50426003600084815260200190815260200160002060020181905550336003600084815260200190815260200160002060030160006101000a81548173ffffffffffffffffffffffffffffffffffffffff021916908373ffffffffffffffffffffffffffffffffffffffff160217905550610a0081611d2a565b600360008481526020019081526020016000206004019081610a22919061404b565b506000600190506040518060c00160405280828152602001610a4384611d2a565b81526020013373ffffffffffffffffffffffffffffffffffffffff16815260200142815260200186815260200185815250600360008581526020019081526020016000206005016000838152602001908152602001600020600082015181600001556020820151816001019081610aba919061404b565b5060408201518160020160006101000a81548173ffffffffffffffffffffffffffffffffffffffff021916908373ffffffffffffffffffffffffffffffffffffffff160217905550606082015181600301556080820151816004019081610b21919061404b565b5060a0820151816005019081610b37919061404b565b5090505080600a600085815260200190815260200160002081905550600660003373ffffffffffffffffffffffffffffffffffffffff1673ffffffffffffffffffffffffffffffffffffffff1681526020019081526020016000208390806001815401808255809150506001900390600052602060002001600090919091909150556040518060c001604052808481526020018681526020018581526020014281526020013373ffffffffffffffffffffffffffffffffffffffff168152602001610c0184611d2a565b81525060046000858152602001908152602001600020600082015181600001556020820151816001019081610c36919061404b565b506040820151816002019081610c4c919061404b565b506060820151816003015560808201518160040160006101000a81548173ffffffffffffffffffffffffffffffffffffffff021916908373ffffffffffffffffffffffffffffffffffffffff16021790555060a0820151816005019081610cb3919061404b565b509050505050505050565b60606000600783604051610cd2919061411d565b908152602001604051809103902060009054906101000a900473ffffffffffffffffffffffffffffffffffffffff169050600073ffffffffffffffffffffffffffffffffffffffff168173ffffffffffffffffffffffffffffffffffffffff1603610d72576040517f08c379a0000000000000000000000000000000000000000000000000000000008152600401610d6990614180565b60405180910390fd5b610d7b8161140f565b915050919050565b610d8c826107cd565b610d9581612a9b565b610d9f8383612aaf565b50505050565b610dad612ba0565b73ffffffffffffffffffffffffffffffffffffffff168173ffffffffffffffffffffffffffffffffffffffff1614610e11576040517f6697b23200000000000000000000000000000000000000000000000000000000815260040160405180910390fd5b610e1b8282612ba8565b505050565b6000610e4c7f0ac90c257048ef1c3e387c26d4a99bde06894efbcbff862dc1885c3a9319308a83611cc0565b9050919050565b6004602052806000526040600020600091509050806000015490806001018054610e7c90613e6e565b80601f0160208091040260200160405190810160405280929190818152602001828054610ea890613e6e565b8015610ef55780601f10610eca57610100808354040283529160200191610ef5565b820191906000526020600020905b815481529060010190602001808311610ed857829003601f168201915b505050505090806002018054610f0a90613e6e565b80601f0160208091040260200160405190810160405280929190818152602001828054610f3690613e6e565b8015610f835780601f10610f5857610100808354040283529160200191610f83565b820191906000526020600020905b815481529060010190602001808311610f6657829003601f168201915b5050505050908060030154908060040160009054906101000a900473ffffffffffffffffffffffffffffffffffffffff1690806005018054610fc490613e6e565b80601f0160208091040260200160405190810160405280929190818152602001828054610ff090613e6e565b801561103d5780601f106110125761010080835404028352916020019161103d565b820191906000526020600020905b81548152906001019060200180831161102057829003601f168201915b5050505050905086565b60606000805b60018054905081101561110f576000600182815481106110705761106f6141a0565b5b9060005260206000200160009054906101000a900473ffffffffffffffffffffffffffffffffffffffff169050600560008273ffffffffffffffffffffffffffffffffffffffff1673ffffffffffffffffffffffffffffffffffffffff16815260200190815260200160002060030160009054906101000a900460ff16156111015782806110fd90613d97565b9350505b50808060010191505061104d565b5060008167ffffffffffffffff81111561112c5761112b61310b565b5b60405190808252806020026020018201604052801561116557816020015b611152612ceb565b81526020019060019003908161114a5790505b5090506000805b60018054905081101561131b5760006001828154811061118f5761118e6141a0565b5b9060005260206000200160009054906101000a900473ffffffffffffffffffffffffffffffffffffffff169050600560008273ffffffffffffffffffffffffffffffffffffffff1673ffffffffffffffffffffffffffffffffffffffff16815260200190815260200160002060030160009054906101000a900460ff161561130d57600560008273ffffffffffffffffffffffffffffffffffffffff1673ffffffffffffffffffffffffffffffffffffffff1681526020019081526020016000206040518060800160405290816000820160009054906101000a900473ffffffffffffffffffffffffffffffffffffffff1673ffffffffffffffffffffffffffffffffffffffff1673ffffffffffffffffffffffffffffffffffffffff16815260200160018201548152602001600282015481526020016003820160009054906101000a900460ff1615151515815250508484815181106112f3576112f26141a0565b5b6020026020010181905250828061130990613d97565b9350505b50808060010191505061116c565b5081935050505090565b60086020528060005260406000206000915090508060000160009054906101000a900473ffffffffffffffffffffffffffffffffffffffff16905081565b60606000600954905060008167ffffffffffffffff8111156113885761138761310b565b5b6040519080825280602002602001820160405280156113b65781602001602082028036833780820191505090505b5090506000600190505b8281116114065780826001836113d691906141cf565b815181106113e7576113e66141a0565b5b60200260200101818152505080806113fe90613d97565b9150506113c0565b50809250505090565b6060600560008373ffffffffffffffffffffffffffffffffffffffff1673ffffffffffffffffffffffffffffffffffffffff16815260200190815260200160002060030160009054906101000a900460ff166114a0576040517f08c379a00000000000000000000000000000000000000000000000000000000081526004016114979061424f565b60405180910390fd5b6000600660008473ffffffffffffffffffffffffffffffffffffffff1673ffffffffffffffffffffffffffffffffffffffff16815260200190815260200160002080548060200260200160405190810160405280929190818152602001828054801561152b57602002820191906000526020600020905b815481526020019060010190808311611517575b505050505090506000815167ffffffffffffffff81111561154f5761154e61310b565b5b60405190808252806020026020018201604052801561158857816020015b611575612d2b565b81526020019060019003908161156d5790505b50905060005b825181101561193a576000600360008584815181106115b0576115af6141a0565b5b60200260200101518152602001908152602001600020600201540361160a576040517f08c379a0000000000000000000000000000000000000000000000000000000008152600401611601906142bb565b60405180910390fd5b6040518060c00160405280848381518110611628576116276141a0565b5b602002602001015181526020016003600086858151811061164c5761164b6141a0565b5b60200260200101518152602001908152602001600020600001805461167090613e6e565b80601f016020809104026020016040519081016040528092919081815260200182805461169c90613e6e565b80156116e95780601f106116be576101008083540402835291602001916116e9565b820191906000526020600020905b8154815290600101906020018083116116cc57829003601f168201915b505050505081526020016003600086858151811061170a576117096141a0565b5b60200260200101518152602001908152602001600020600101805461172e90613e6e565b80601f016020809104026020016040519081016040528092919081815260200182805461175a90613e6e565b80156117a75780601f1061177c576101008083540402835291602001916117a7565b820191906000526020600020905b81548152906001019060200180831161178a57829003601f168201915b50505050508152602001600360008685815181106117c8576117c76141a0565b5b60200260200101518152602001908152602001600020600201548152602001600360008685815181106117fe576117fd6141a0565b5b6020026020010151815260200190815260200160002060030160009054906101000a900473ffffffffffffffffffffffffffffffffffffffff1673ffffffffffffffffffffffffffffffffffffffff1681526020016003600086858151811061186a576118696141a0565b5b60200260200101518152602001908152602001600020600401805461188e90613e6e565b80601f01602080910402602001604051908101604052809291908181526020018280546118ba90613e6e565b80156119075780601f106118dc57610100808354040283529160200191611907565b820191906000526020600020905b8154815290600101906020018083116118ea57829003601f168201915b5050505050815250828281518110611922576119216141a0565b5b6020026020010181905250808060010191505061158e565b508092505050919050565b600060036000858152602001908152602001600020600201540361199e576040517f08c379a0000000000000000000000000000000000000000000000000000000008152600401611995906142bb565b60405180910390fd5b6003600084815260200190815260200160002060030160009054906101000a900473ffffffffffffffffffffffffffffffffffffffff1673ffffffffffffffffffffffffffffffffffffffff163373ffffffffffffffffffffffffffffffffffffffff1614611a42576040517f08c379a0000000000000000000000000000000000000000000000000000000008152600401611a399061434d565b60405180910390fd5b6000825111611a86576040517f08c379a0000000000000000000000000000000000000000000000000000000008152600401611a7d906143b9565b60405180910390fd5b6000815111611aca576040517f08c379a0000000000000000000000000000000000000000000000000000000008152600401611ac190614425565b60405180910390fd5b60008282604051602001611adf929190613e1b565b60405160208183030381529060405280519060200120905082600360008681526020019081526020016000206000019081611b1a919061404b565b5081600360008681526020019081526020016000206001019081611b3e919061404b565b50611b4881611d2a565b600360008681526020019081526020016000206004019081611b6a919061404b565b5060006001600a600087815260200190815260200160002054611b8d9190614445565b90506040518060c00160405280828152602001611ba984611d2a565b81526020013373ffffffffffffffffffffffffffffffffffffffff16815260200142815260200185815260200184815250600360008781526020019081526020016000206005016000838152602001908152602001600020600082015181600001556020820151816001019081611c20919061404b565b5060408201518160020160006101000a81548173ffffffffffffffffffffffffffffffffffffffff021916908373ffffffffffffffffffffffffffffffffffffffff160217905550606082015181600301556080820151816004019081611c87919061404b565b5060a0820151816005019081611c9d919061404b565b5090505080600a6000878152602001908152602001600020819055505050505050565b600080600084815260200190815260200160002060000160008373ffffffffffffffffffffffffffffffffffffffff1673ffffffffffffffffffffffffffffffffffffffff16815260200190815260200160002060009054906101000a900460ff16905092915050565b606081604051602001611d3d919061449a565b6040516020818303038152906040529050919050565b60026020528060005260406000206000915090508054611d7290613e6e565b80601f0160208091040260200160405190810160405280929190818152602001828054611d9e90613e6e565b8015611deb5780601f10611dc057610100808354040283529160200191611deb565b820191906000526020600020905b815481529060010190602001808311611dce57829003601f168201915b505050505081565b6000801b81565b600a6020528060005260406000206000915090505481565b611e1f6000801b33611cc0565b611e5e576040517f08c379a0000000000000000000000000000000000000000000000000000000008152600401611e5590614501565b60405180910390fd5b600560008373ffffffffffffffffffffffffffffffffffffffff1673ffffffffffffffffffffffffffffffffffffffff16815260200190815260200160002060030160009054906101000a900460ff1615611eee576040517f08c379a0000000000000000000000000000000000000000000000000000000008152600401611ee59061456d565b60405180910390fd5b60405180608001604052808373ffffffffffffffffffffffffffffffffffffffff1681526020014281526020016000815260200160011515815250600560008473ffffffffffffffffffffffffffffffffffffffff1673ffffffffffffffffffffffffffffffffffffffff16815260200190815260200160002060008201518160000160006101000a81548173ffffffffffffffffffffffffffffffffffffffff021916908373ffffffffffffffffffffffffffffffffffffffff160217905550602082015181600101556040820151816002015560608201518160030160006101000a81548160ff0219169083151502179055509050506001829080600181540180825580915050600190039060005260206000200160009091909190916101000a81548173ffffffffffffffffffffffffffffffffffffffff021916908373ffffffffffffffffffffffffffffffffffffffff16021790555080600260008473ffffffffffffffffffffffffffffffffffffffff1673ffffffffffffffffffffffffffffffffffffffff1681526020019081526020016000209081612095919061404b565b50816007826040516120a7919061411d565b908152602001604051809103902060006101000a81548173ffffffffffffffffffffffffffffffffffffffff021916908373ffffffffffffffffffffffffffffffffffffffff16021790555061211d7f0ac90c257048ef1c3e387c26d4a99bde06894efbcbff862dc1885c3a9319308a83610d83565b5050565b612129612d77565b6000600460008481526020019081526020016000206003015403612182576040517f08c379a0000000000000000000000000000000000000000000000000000000008152600401612179906142bb565b60405180910390fd5b6040518060c001604052808381526020016004600085815260200190815260200160002060010180546121b490613e6e565b80601f01602080910402602001604051908101604052809291908181526020018280546121e090613e6e565b801561222d5780601f106122025761010080835404028352916020019161222d565b820191906000526020600020905b81548152906001019060200180831161221057829003601f168201915b5050505050815260200160046000858152602001908152602001600020600201805461225890613e6e565b80601f016020809104026020016040519081016040528092919081815260200182805461228490613e6e565b80156122d15780601f106122a6576101008083540402835291602001916122d1565b820191906000526020600020905b8154815290600101906020018083116122b457829003601f168201915b50505050508152602001600460008581526020019081526020016000206003015481526020016004600085815260200190815260200160002060040160009054906101000a900473ffffffffffffffffffffffffffffffffffffffff1673ffffffffffffffffffffffffffffffffffffffff16815260200160046000858152602001908152602001600020600501805461236a90613e6e565b80601f016020809104026020016040519081016040528092919081815260200182805461239690613e6e565b80156123e35780601f106123b8576101008083540402835291602001916123e3565b820191906000526020600020905b8154815290600101906020018083116123c657829003601f168201915b50505050508152509050919050565b6000801b6123ff81612a9b565b61240c6000801b83610d83565b5050565b6007818051602081018201805184825260208301602085012081835280955050505050506000915054906101000a900473ffffffffffffffffffffffffffffffffffffffff1681565b612462826107cd565b61246b81612a9b565b6124758383612ba8565b50505050565b7f0ac90c257048ef1c3e387c26d4a99bde06894efbcbff862dc1885c3a9319308a81565b600660205281600052604060002081815481106124bb57600080fd5b90600052602060002001600091509150505481565b60036020528060005260406000206000915090508060000180546124f390613e6e565b80601f016020809104026020016040519081016040528092919081815260200182805461251f90613e6e565b801561256c5780601f106125415761010080835404028352916020019161256c565b820191906000526020600020905b81548152906001019060200180831161254f57829003601f168201915b50505050509080600101805461258190613e6e565b80601f01602080910402602001604051908101604052809291908181526020018280546125ad90613e6e565b80156125fa5780601f106125cf576101008083540402835291602001916125fa565b820191906000526020600020905b8154815290600101906020018083116125dd57829003601f168201915b5050505050908060020154908060030160009054906101000a900473ffffffffffffffffffffffffffffffffffffffff169080600401805461263b90613e6e565b80601f016020809104026020016040519081016040528092919081815260200182805461266790613e6e565b80156126b45780601f10612689576101008083540402835291602001916126b4565b820191906000526020600020905b81548152906001019060200180831161269757829003601f168201915b5050505050905085565b60606000600360008481526020019081526020016000206002015403612719576040517f08c379a0000000000000000000000000000000000000000000000000000000008152600401612710906142bb565b60405180910390fd5b6000600a600084815260200190815260200160002054905060008167ffffffffffffffff81111561274d5761274c61310b565b5b60405190808252806020026020018201604052801561278657816020015b612773612dc3565b81526020019060019003908161276b5790505b5090506000600190505b828111612a26576003600086815260200190815260200160002060050160008281526020019081526020016000206040518060c0016040529081600082015481526020016001820180546127e390613e6e565b80601f016020809104026020016040519081016040528092919081815260200182805461280f90613e6e565b801561285c5780601f106128315761010080835404028352916020019161285c565b820191906000526020600020905b81548152906001019060200180831161283f57829003601f168201915b505050505081526020016002820160009054906101000a900473ffffffffffffffffffffffffffffffffffffffff1673ffffffffffffffffffffffffffffffffffffffff1673ffffffffffffffffffffffffffffffffffffffff168152602001600382015481526020016004820180546128d590613e6e565b80601f016020809104026020016040519081016040528092919081815260200182805461290190613e6e565b801561294e5780601f106129235761010080835404028352916020019161294e565b820191906000526020600020905b81548152906001019060200180831161293157829003601f168201915b5050505050815260200160058201805461296790613e6e565b80601f016020809104026020016040519081016040528092919081815260200182805461299390613e6e565b80156129e05780601f106129b5576101008083540402835291602001916129e0565b820191906000526020600020905b8154815290600101906020018083116129c357829003601f168201915b505050505081525050826001836129f791906141cf565b81518110612a0857612a076141a0565b5b60200260200101819052508080612a1e90613d97565b915050612790565b508092505050919050565b60007f01ffc9a7000000000000000000000000000000000000000000000000000000007bffffffffffffffffffffffffffffffffffffffffffffffffffffffff1916827bffffffffffffffffffffffffffffffffffffffffffffffffffffffff1916149050919050565b612aac81612aa7612ba0565b612c9a565b50565b6000612abb8383611cc0565b612b9557600160008085815260200190815260200160002060000160008473ffffffffffffffffffffffffffffffffffffffff1673ffffffffffffffffffffffffffffffffffffffff16815260200190815260200160002060006101000a81548160ff021916908315150217905550612b32612ba0565b73ffffffffffffffffffffffffffffffffffffffff168273ffffffffffffffffffffffffffffffffffffffff16847f2f8788117e7eff1d82e926ec794901d17c78024a50270940304540a733656f0d60405160405180910390a460019050612b9a565b600090505b92915050565b600033905090565b6000612bb48383611cc0565b15612c8f57600080600085815260200190815260200160002060000160008473ffffffffffffffffffffffffffffffffffffffff1673ffffffffffffffffffffffffffffffffffffffff16815260200190815260200160002060006101000a81548160ff021916908315150217905550612c2c612ba0565b73ffffffffffffffffffffffffffffffffffffffff168273ffffffffffffffffffffffffffffffffffffffff16847ff6391f5c32d9c69d2a47ea670b442974b53935d1edc7fd64eb21e047a839171b60405160405180910390a460019050612c94565b600090505b92915050565b612ca48282611cc0565b612ce75780826040517fe2517d3f000000000000000000000000000000000000000000000000000000008152600401612cde92919061458d565b60405180910390fd5b5050565b6040518060800160405280600073ffffffffffffffffffffffffffffffffffffffff16815260200160008152602001600081526020016000151581525090565b6040518060c0016040528060008152602001606081526020016060815260200160008152602001600073ffffffffffffffffffffffffffffffffffffffff168152602001606081525090565b6040518060c0016040528060008152602001606081526020016060815260200160008152602001600073ffffffffffffffffffffffffffffffffffffffff168152602001606081525090565b6040518060c001604052806000815260200160608152602001600073ffffffffffffffffffffffffffffffffffffffff1681526020016000815260200160608152602001606081525090565b6000604051905090565b600080fd5b600080fd5b60007fffffffff0000000000000000000000000000000000000000000000000000000082169050919050565b612e5881612e23565b8114612e6357600080fd5b50565b600081359050612e7581612e4f565b92915050565b600060208284031215612e9157612e90612e19565b5b6000612e9f84828501612e66565b91505092915050565b60008115159050919050565b612ebd81612ea8565b82525050565b6000602082019050612ed86000830184612eb4565b92915050565b600073ffffffffffffffffffffffffffffffffffffffff82169050919050565b6000612f0982612ede565b9050919050565b612f1981612efe565b8114612f2457600080fd5b50565b600081359050612f3681612f10565b92915050565b600060208284031215612f5257612f51612e19565b5b6000612f6084828501612f27565b91505092915050565b612f7281612efe565b82525050565b6000819050919050565b612f8b81612f78565b82525050565b6000819050919050565b612fa481612f91565b82525050565b6000608082019050612fbf6000830187612f69565b612fcc6020830186612f82565b612fd96040830185612f9b565b612fe66060830184612eb4565b95945050505050565b612ff881612f78565b811461300357600080fd5b50565b60008135905061301581612fef565b92915050565b60006020828403121561303157613030612e19565b5b600061303f84828501613006565b91505092915050565b600060208201905061305d6000830184612f69565b92915050565b6000819050919050565b61307681613063565b811461308157600080fd5b50565b6000813590506130938161306d565b92915050565b6000602082840312156130af576130ae612e19565b5b60006130bd84828501613084565b91505092915050565b6130cf81613063565b82525050565b60006020820190506130ea60008301846130c6565b92915050565b600080fd5b600080fd5b6000601f19601f8301169050919050565b7f4e487b7100000000000000000000000000000000000000000000000000000000600052604160045260246000fd5b613143826130fa565b810181811067ffffffffffffffff821117156131625761316161310b565b5b80604052505050565b6000613175612e0f565b9050613181828261313a565b919050565b600067ffffffffffffffff8211156131a1576131a061310b565b5b6131aa826130fa565b9050602081019050919050565b82818337600083830152505050565b60006131d96131d484613186565b61316b565b9050828152602081018484840111156131f5576131f46130f5565b5b6132008482856131b7565b509392505050565b600082601f83011261321d5761321c6130f0565b5b813561322d8482602086016131c6565b91505092915050565b6000806040838503121561324d5761324c612e19565b5b600083013567ffffffffffffffff81111561326b5761326a612e1e565b5b61327785828601613208565b925050602083013567ffffffffffffffff81111561329857613297612e1e565b5b6132a485828601613208565b9150509250929050565b6000602082840312156132c4576132c3612e19565b5b600082013567ffffffffffffffff8111156132e2576132e1612e1e565b5b6132ee84828501613208565b91505092915050565b600081519050919050565b600082825260208201905092915050565b6000819050602082019050919050565b61332c81612f78565b82525050565b600081519050919050565b600082825260208201905092915050565b60005b8381101561336c578082015181840152602081019050613351565b60008484015250505050565b600061338382613332565b61338d818561333d565b935061339d81856020860161334e565b6133a6816130fa565b840191505092915050565b6133ba81612efe565b82525050565b600060c0830160008301516133d86000860182613323565b50602083015184820360208601526133f08282613378565b9150506040830151848203604086015261340a8282613378565b915050606083015161341f6060860182613323565b50608083015161343260808601826133b1565b5060a083015184820360a086015261344a8282613378565b9150508091505092915050565b600061346383836133c0565b905092915050565b6000602082019050919050565b6000613483826132f7565b61348d8185613302565b93508360208202850161349f85613313565b8060005b858110156134db57848403895281516134bc8582613457565b94506134c78361346b565b925060208a019950506001810190506134a3565b50829750879550505050505092915050565b600060208201905081810360008301526135078184613478565b905092915050565b6000806040838503121561352657613525612e19565b5b600061353485828601613084565b925050602061354585828601612f27565b9150509250929050565b600082825260208201905092915050565b600061356b82613332565b613575818561354f565b935061358581856020860161334e565b61358e816130fa565b840191505092915050565b600060c0820190506135ae6000830189612f82565b81810360208301526135c08188613560565b905081810360408301526135d48187613560565b90506135e36060830186612f82565b6135f06080830185612f69565b81810360a08301526136028184613560565b9050979650505050505050565b600081519050919050565b600082825260208201905092915050565b6000819050602082019050919050565b61364481612f91565b82525050565b61365381612ea8565b82525050565b60808201600082015161366f60008501826133b1565b5060208201516136826020850182613323565b506040820151613695604085018261363b565b5060608201516136a8606085018261364a565b50505050565b60006136ba8383613659565b60808301905092915050565b6000602082019050919050565b60006136de8261360f565b6136e8818561361a565b93506136f38361362b565b8060005b8381101561372457815161370b88826136ae565b9750613716836136c6565b9250506001810190506136f7565b5085935050505092915050565b6000602082019050818103600083015261374b81846136d3565b905092915050565b600081519050919050565b600082825260208201905092915050565b6000819050602082019050919050565b600061378b8383613323565b60208301905092915050565b6000602082019050919050565b60006137af82613753565b6137b9818561375e565b93506137c48361376f565b8060005b838110156137f55781516137dc888261377f565b97506137e783613797565b9250506001810190506137c8565b5085935050505092915050565b6000602082019050818103600083015261381c81846137a4565b905092915050565b60008060006060848603121561383d5761383c612e19565b5b600061384b86828701613006565b935050602084013567ffffffffffffffff81111561386c5761386b612e1e565b5b61387886828701613208565b925050604084013567ffffffffffffffff81111561389957613898612e1e565b5b6138a586828701613208565b9150509250925092565b600060208201905081810360008301526138c98184613560565b905092915050565b60006020820190506138e66000830184612f82565b92915050565b6000806040838503121561390357613902612e19565b5b600061391185828601612f27565b925050602083013567ffffffffffffffff81111561393257613931612e1e565b5b61393e85828601613208565b9150509250929050565b600060c0830160008301516139606000860182613323565b50602083015184820360208601526139788282613378565b915050604083015184820360408601526139928282613378565b91505060608301516139a76060860182613323565b5060808301516139ba60808601826133b1565b5060a083015184820360a08601526139d28282613378565b9150508091505092915050565b600060208201905081810360008301526139f98184613948565b905092915050565b60008060408385031215613a1857613a17612e19565b5b6000613a2685828601612f27565b9250506020613a3785828601613006565b9150509250929050565b600060a0820190508181036000830152613a5b8188613560565b90508181036020830152613a6f8187613560565b9050613a7e6040830186612f82565b613a8b6060830185612f69565b8181036080830152613a9d8184613560565b90509695505050505050565b600081519050919050565b600082825260208201905092915050565b6000819050602082019050919050565b600060c083016000830151613aed6000860182613323565b5060208301518482036020860152613b058282613378565b9150506040830151613b1a60408601826133b1565b506060830151613b2d6060860182613323565b5060808301518482036080860152613b458282613378565b91505060a083015184820360a0860152613b5f8282613378565b9150508091505092915050565b6000613b788383613ad5565b905092915050565b6000602082019050919050565b6000613b9882613aa9565b613ba28185613ab4565b935083602082028501613bb485613ac5565b8060005b85811015613bf05784840389528151613bd18582613b6c565b9450613bdc83613b80565b925060208a01995050600181019050613bb8565b50829750879550505050505092915050565b60006020820190508181036000830152613c1c8184613b8d565b905092915050565b7f43616c6c6572206973206e6f742061207075626c697368657200000000000000600082015250565b6000613c5a60198361354f565b9150613c6582613c24565b602082019050919050565b60006020820190508181036000830152613c8981613c4d565b9050919050565b7f5469746c652063616e6e6f7420626520656d7074790000000000000000000000600082015250565b6000613cc660158361354f565b9150613cd182613c90565b602082019050919050565b60006020820190508181036000830152613cf581613cb9565b9050919050565b7f436f6e74656e742063616e6e6f7420626520656d707479000000000000000000600082015250565b6000613d3260178361354f565b9150613d3d82613cfc565b602082019050919050565b60006020820190508181036000830152613d6181613d25565b9050919050565b7f4e487b7100000000000000000000000000000000000000000000000000000000600052601160045260246000fd5b6000613da282612f78565b91507fffffffffffffffffffffffffffffffffffffffffffffffffffffffffffffffff8203613dd457613dd3613d68565b5b600182019050919050565b600081905092915050565b6000613df582613332565b613dff8185613ddf565b9350613e0f81856020860161334e565b80840191505092915050565b6000613e278285613dea565b9150613e338284613dea565b91508190509392505050565b7f4e487b7100000000000000000000000000000000000000000000000000000000600052602260045260246000fd5b60006002820490506001821680613e8657607f821691505b602082108103613e9957613e98613e3f565b5b50919050565b60008190508160005260206000209050919050565b60006020601f8301049050919050565b600082821b905092915050565b600060088302613f017fffffffffffffffffffffffffffffffffffffffffffffffffffffffffffffffff82613ec4565b613f0b8683613ec4565b95508019841693508086168417925050509392505050565b6000819050919050565b6000613f48613f43613f3e84612f78565b613f23565b612f78565b9050919050565b6000819050919050565b613f6283613f2d565b613f76613f6e82613f4f565b848454613ed1565b825550505050565b600090565b613f8b613f7e565b613f96818484613f59565b505050565b5b81811015613fba57613faf600082613f83565b600181019050613f9c565b5050565b601f821115613fff57613fd081613e9f565b613fd984613eb4565b81016020851015613fe8578190505b613ffc613ff485613eb4565b830182613f9b565b50505b505050565b600082821c905092915050565b600061402260001984600802614004565b1980831691505092915050565b600061403b8383614011565b9150826002028217905092915050565b61405482613332565b67ffffffffffffffff81111561406d5761406c61310b565b5b6140778254613e6e565b614082828285613fbe565b600060209050601f8311600181146140b557600084156140a3578287015190505b6140ad858261402f565b865550614115565b601f1984166140c386613e9f565b60005b828110156140eb578489015182556001820191506020850194506020810190506140c6565b868310156141085784890151614104601f891682614011565b8355505b6001600288020188555050505b505050505050565b60006141298284613dea565b915081905092915050565b7f5075626c6973686572206e6f7420666f756e6400000000000000000000000000600082015250565b600061416a60138361354f565b915061417582614134565b602082019050919050565b600060208201905081810360008301526141998161415d565b9050919050565b7f4e487b7100000000000000000000000000000000000000000000000000000000600052603260045260246000fd5b60006141da82612f78565b91506141e583612f78565b92508282039050818111156141fd576141fc613d68565b5b92915050565b7f5075626c6973686572206e6f7420726567697374657265640000000000000000600082015250565b600061423960188361354f565b915061424482614203565b602082019050919050565b600060208201905081810360008301526142688161422c565b9050919050565b7f41727469636c6520646f6573206e6f7420657869737400000000000000000000600082015250565b60006142a560168361354f565b91506142b08261426f565b602082019050919050565b600060208201905081810360008301526142d481614298565b9050919050565b7f4f6e6c7920746865207075626c69736865722063616e2075706461746520746860008201527f652061727469636c650000000000000000000000000000000000000000000000602082015250565b600061433760298361354f565b9150614342826142db565b604082019050919050565b600060208201905081810360008301526143668161432a565b9050919050565b7f4e6577207469746c652063616e6e6f7420626520656d70747900000000000000600082015250565b60006143a360198361354f565b91506143ae8261436d565b602082019050919050565b600060208201905081810360008301526143d281614396565b9050919050565b7f4e657720636f6e74656e742063616e6e6f7420626520656d7074790000000000600082015250565b600061440f601b8361354f565b915061441a826143d9565b602082019050919050565b6000602082019050818103600083015261443e81614402565b9050919050565b600061445082612f78565b915061445b83612f78565b925082820190508082111561447357614472613d68565b5b92915050565b6000819050919050565b61449461448f82613063565b614479565b82525050565b60006144a68284614483565b60208201915081905092915050565b7f43616c6c6572206973206e6f7420616e2061646d696e00000000000000000000600082015250565b60006144eb60168361354f565b91506144f6826144b5565b602082019050919050565b6000602082019050818103600083015261451a816144de565b9050919050565b7f5075626c697368657220616c7265616479207265676973746572656400000000600082015250565b6000614557601c8361354f565b915061456282614521565b602082019050919050565b600060208201905081810360008301526145868161454a565b9050919050565b60006040820190506145a26000830185612f69565b6145af60208301846130c6565b939250505056fea264697066735822122067021a0bc0e86b7267da30e4b41082821cf171ea40393fc88fc683614f1cd9af64736f6c63430008180033",
  "linkReferences": {},
  "deployedLinkReferences": {}
}