{
  "_format": "hh-sol-artifact-1",
  "contractName": "NewsPlatform",
  "sourceName": "contracts/NewsPlatform.sol",
  "abi": [
    {
      "inputs": [],
      "stateMutability": "nonpayable",
      "type": "constructor"
    },
    {
      "inputs": [],
      "name": "AccessControlBadConfirmation",
      "type": "error"
    },
    {
      "inputs": [
        {
          "internalType": "address",
          "name": "account",
          "type": "address"
        },
        {
          "internalType": "bytes32",
          "name": "neededRole",
          "type": "bytes32"
        }
      ],
      "name": "AccessControlUnauthorizedAccount",
      "type": "error"
    },
    {
      "anonymous": false,
      "inputs": [
        {
          "indexed": true,
          "internalType": "bytes32",
          "name": "role",
          "type": "bytes32"
        },
        {
          "indexed": true,
          "internalType": "bytes32",
          "name": "previousAdminRole",
          "type": "bytes32"
        },
        {
          "indexed": true,
          "internalType": "bytes32",
          "name": "newAdminRole",
          "type": "bytes32"
        }
      ],
      "name": "RoleAdminChanged",
      "type": "event"
    },
    {
      "anonymous": false,
      "inputs": [
        {
          "indexed": true,
          "internalType": "bytes32",
          "name": "role",
          "type": "bytes32"
        },
        {
          "indexed": true,
          "internalType": "address",
          "name": "account",
          "type": "address"
        },
        {
          "indexed": true,
          "internalType": "address",
          "name": "sender",
          "type": "address"
        }
      ],
      "name": "RoleGranted",
      "type": "event"
    },
    {
      "anonymous": false,
      "inputs": [
        {
          "indexed": true,
          "internalType": "bytes32",
          "name": "role",
          "type": "bytes32"
        },
        {
          "indexed": true,
          "internalType": "address",
          "name": "account",
          "type": "address"
        },
        {
          "indexed": true,
          "internalType": "address",
          "name": "sender",
          "type": "address"
        }
      ],
      "name": "RoleRevoked",
      "type": "event"
    },
    {
      "inputs": [],
      "name": "DEFAULT_ADMIN_ROLE",
      "outputs": [
        {
          "internalType": "bytes32",
          "name": "",
          "type": "bytes32"
        }
      ],
      "stateMutability": "view",
      "type": "function"
    },
    {
      "inputs": [],
      "name": "PUBLISHER_ROLE",
      "outputs": [
        {
          "internalType": "bytes32",
          "name": "",
          "type": "bytes32"
        }
      ],
      "stateMutability": "view",
      "type": "function"
    },
    {
      "inputs": [
        {
          "internalType": "uint256",
          "name": "",
          "type": "uint256"
        }
      ],
      "name": "articleVersionCounts",
      "outputs": [
        {
          "internalType": "uint256",
          "name": "",
          "type": "uint256"
        }
      ],
      "stateMutability": "view",
      "type": "function"
    },
    {
      "inputs": [
        {
          "internalType": "uint256",
          "name": "",
          "type": "uint256"
        }
      ],
      "name": "articleVersionless",
      "outputs": [
        {
          "internalType": "uint256",
          "name": "id",
          "type": "uint256"
        },
        {
          "internalType": "string",
          "name": "title",
          "type": "string"
        },
        {
          "internalType": "string",
          "name": "content",
          "type": "string"
        },
        {
          "internalType": "uint256",
          "name": "timestamp",
          "type": "uint256"
        },
        {
          "internalType": "address",
          "name": "publisherID",
          "type": "address"
        },
        {
          "internalType": "string",
          "name": "articleHash",
          "type": "string"
        }
      ],
      "stateMutability": "view",
      "type": "function"
    },
    {
      "inputs": [
        {
          "internalType": "uint256",
          "name": "",
          "type": "uint256"
        }
      ],
      "name": "articles",
      "outputs": [
        {
          "internalType": "string",
          "name": "title",
          "type": "string"
        },
        {
          "internalType": "string",
          "name": "content",
          "type": "string"
        },
        {
          "internalType": "uint256",
          "name": "timestamp",
          "type": "uint256"
        },
        {
          "internalType": "address",
          "name": "publisherID",
          "type": "address"
        },
        {
          "internalType": "string",
          "name": "articleHash",
          "type": "string"
        }
      ],
      "stateMutability": "view",
      "type": "function"
    },
    {
      "inputs": [
        {
          "internalType": "bytes32",
          "name": "_bytes32",
          "type": "bytes32"
        }
      ],
      "name": "bytes32ToString",
      "outputs": [
        {
          "internalType": "string",
          "name": "",
          "type": "string"
        }
      ],
      "stateMutability": "pure",
      "type": "function"
    },
    {
      "inputs": [],
      "name": "getAllArticleIds",
      "outputs": [
        {
          "internalType": "uint256[]",
          "name": "",
          "type": "uint256[]"
        }
      ],
      "stateMutability": "view",
      "type": "function"
    },
    {
      "inputs": [],
      "name": "getAllArticles",
      "outputs": [
        {
          "components": [
            {
              "internalType": "uint256",
              "name": "id",
              "type": "uint256"
            },
            {
              "internalType": "string",
              "name": "title",
              "type": "string"
            },
            {
              "internalType": "string",
              "name": "content",
              "type": "string"
            },
            {
              "internalType": "uint256",
              "name": "timestamp",
              "type": "uint256"
            },
            {
              "internalType": "address",
              "name": "publisherID",
              "type": "address"
            },
            {
              "internalType": "string",
              "name": "articleHash",
              "type": "string"
            }
          ],
          "internalType": "struct NewsPlatform.ArticleWithID[]",
          "name": "",
          "type": "tuple[]"
        }
      ],
      "stateMutability": "view",
      "type": "function"
    },
    {
      "inputs": [],
      "name": "getAllPublishers",
      "outputs": [
        {
          "components": [
            {
              "internalType": "address",
              "name": "publisherID",
              "type": "address"
            },
            {
              "internalType": "uint256",
              "name": "registrationTimestamp",
              "type": "uint256"
            },
            {
              "internalType": "int256",
              "name": "reputationScore",
              "type": "int256"
            },
            {
              "internalType": "bool",
              "name": "isRegistered",
              "type": "bool"
            }
          ],
          "internalType": "struct NewsPlatform.Publisher[]",
          "name": "",
          "type": "tuple[]"
        }
      ],
      "stateMutability": "view",
      "type": "function"
    },
    {
      "inputs": [
        {
          "internalType": "uint256",
          "name": "articleId",
          "type": "uint256"
        }
      ],
      "name": "getArticle",
      "outputs": [
        {
          "components": [
            {
              "internalType": "uint256",
              "name": "id",
              "type": "uint256"
            },
            {
              "internalType": "string",
              "name": "title",
              "type": "string"
            },
            {
              "internalType": "string",
              "name": "content",
              "type": "string"
            },
            {
              "internalType": "uint256",
              "name": "timestamp",
              "type": "uint256"
            },
            {
              "internalType": "address",
              "name": "publisherID",
              "type": "address"
            },
            {
              "internalType": "string",
              "name": "articleHash",
              "type": "string"
            }
          ],
          "internalType": "struct NewsPlatform.ArticleWithID",
          "name": "",
          "type": "tuple"
        }
      ],
      "stateMutability": "view",
      "type": "function"
    },
    {
      "inputs": [
        {
          "internalType": "uint256",
          "name": "articleId",
          "type": "uint256"
        }
      ],
      "name": "getArticleHistory",
      "outputs": [
        {
          "components": [
            {
              "internalType": "uint256",
              "name": "versionNumber",
              "type": "uint256"
            },
            {
              "internalType": "string",
              "name": "articleHash",
              "type": "string"
            },
            {
              "internalType": "address",
              "name": "editorID",
              "type": "address"
            },
            {
              "internalType": "uint256",
              "name": "editTimestamp",
              "type": "uint256"
            },
            {
              "internalType": "string",
              "name": "title",
              "type": "string"
            },
            {
              "internalType": "string",
              "name": "content",
              "type": "string"
            }
          ],
          "internalType": "struct NewsPlatform.ArticleVersion[]",
          "name": "",
          "type": "tuple[]"
        }
      ],
      "stateMutability": "view",
      "type": "function"
    },
    {
      "inputs": [
        {
          "internalType": "string",
          "name": "name",
          "type": "string"
        }
      ],
      "name": "getArticlesByName",
      "outputs": [
        {
          "components": [
            {
              "internalType": "uint256",
              "name": "id",
              "type": "uint256"
            },
            {
              "internalType": "string",
              "name": "title",
              "type": "string"
            },
            {
              "internalType": "string",
              "name": "content",
              "type": "string"
            },
            {
              "internalType": "uint256",
              "name": "timestamp",
              "type": "uint256"
            },
            {
              "internalType": "address",
              "name": "publisherID",
              "type": "address"
            },
            {
              "internalType": "string",
              "name": "articleHash",
              "type": "string"
            }
          ],
          "internalType": "struct NewsPlatform.ArticlewithOutVersion[]",
          "name": "",
          "type": "tuple[]"
        }
      ],
      "stateMutability": "view",
      "type": "function"
    },
    {
      "inputs": [
        {
          "internalType": "address",
          "name": "publisherAddress",
          "type": "address"
        }
      ],
      "name": "getArticlesByPublisher",
      "outputs": [
        {
          "components": [
            {
              "internalType": "uint256",
              "name": "id",
              "type": "uint256"
            },
            {
              "internalType": "string",
              "name": "title",
              "type": "string"
            },
            {
              "internalType": "string",
              "name": "content",
              "type": "string"
            },
            {
              "internalType": "uint256",
              "name": "timestamp",
              "type": "uint256"
            },
            {
              "internalType": "address",
              "name": "publisherID",
              "type": "address"
            },
            {
              "internalType": "string",
              "name": "articleHash",
              "type": "string"
            }
          ],
          "internalType": "struct NewsPlatform.ArticlewithOutVersion[]",
          "name": "",
          "type": "tuple[]"
        }
      ],
      "stateMutability": "view",
      "type": "function"
    },
    {
      "inputs": [
        {
          "internalType": "bytes32",
          "name": "role",
          "type": "bytes32"
        }
      ],
      "name": "getRoleAdmin",
      "outputs": [
        {
          "internalType": "bytes32",
          "name": "",
          "type": "bytes32"
        }
      ],
      "stateMutability": "view",
      "type": "function"
    },
    {
      "inputs": [
        {
          "internalType": "address",
          "name": "newAdmin",
          "type": "address"
        }
      ],
      "name": "grantAdminRole",
      "outputs": [],
      "stateMutability": "nonpayable",
      "type": "function"
    },
    {
      "inputs": [
        {
          "internalType": "bytes32",
          "name": "role",
          "type": "bytes32"
        },
        {
          "internalType": "address",
          "name": "account",
          "type": "address"
        }
      ],
      "name": "grantRole",
      "outputs": [],
      "stateMutability": "nonpayable",
      "type": "function"
    },
    {
      "inputs": [
        {
          "internalType": "bytes32",
          "name": "role",
          "type": "bytes32"
        },
        {
          "internalType": "address",
          "name": "account",
          "type": "address"
        }
      ],
      "name": "hasRole",
      "outputs": [
        {
          "internalType": "bool",
          "name": "",
          "type": "bool"
        }
      ],
      "stateMutability": "view",
      "type": "function"
    },
    {
      "inputs": [
        {
          "internalType": "address",
          "name": "user",
          "type": "address"
        }
      ],
      "name": "isAdmin",
      "outputs": [
        {
          "internalType": "bool",
          "name": "",
          "type": "bool"
        }
      ],
      "stateMutability": "view",
      "type": "function"
    },
    {
      "inputs": [
        {
          "internalType": "address",
          "name": "user",
          "type": "address"
        }
      ],
      "name": "isPublisher",
      "outputs": [
        {
          "internalType": "bool",
          "name": "",
          "type": "bool"
        }
      ],
      "stateMutability": "view",
      "type": "function"
    },
    {
      "inputs": [
        {
          "internalType": "string",
          "name": "",
          "type": "string"
        }
      ],
      "name": "nameToPublisherAddress",
      "outputs": [
        {
          "internalType": "address",
          "name": "",
          "type": "address"
        }
      ],
      "stateMutability": "view",
      "type": "function"
    },
    {
      "inputs": [
        {
          "internalType": "uint256",
          "name": "",
          "type": "uint256"
        }
      ],
      "name": "publisherAddresses",
      "outputs": [
        {
          "internalType": "address",
          "name": "",
          "type": "address"
        }
      ],
      "stateMutability": "view",
      "type": "function"
    },
    {
      "inputs": [
        {
          "internalType": "address",
          "name": "",
          "type": "address"
        },
        {
          "internalType": "uint256",
          "name": "",
          "type": "uint256"
        }
      ],
      "name": "publisherArticles",
      "outputs": [
        {
          "internalType": "uint256",
          "name": "",
          "type": "uint256"
        }
      ],
      "stateMutability": "view",
      "type": "function"
    },
    {
      "inputs": [
        {
          "internalType": "address",
          "name": "",
          "type": "address"
        }
      ],
      "name": "publisherNames",
      "outputs": [
        {
          "internalType": "string",
          "name": "",
          "type": "string"
        }
      ],
      "stateMutability": "view",
      "type": "function"
    },
    {
      "inputs": [
        {
          "internalType": "address",
          "name": "",
          "type": "address"
        }
      ],
      "name": "publishers",
      "outputs": [
        {
          "internalType": "address",
          "name": "publisherID",
          "type": "address"
        },
        {
          "internalType": "uint256",
          "name": "registrationTimestamp",
          "type": "uint256"
        },
        {
          "internalType": "int256",
          "name": "reputationScore",
          "type": "int256"
        },
        {
          "internalType": "bool",
          "name": "isRegistered",
          "type": "bool"
        }
      ],
      "stateMutability": "view",
      "type": "function"
    },
    {
      "inputs": [
        {
          "internalType": "address",
          "name": "",
          "type": "address"
        }
      ],
      "name": "readers",
      "outputs": [
        {
          "internalType": "address",
          "name": "readerID",
          "type": "address"
        }
      ],
      "stateMutability": "view",
      "type": "function"
    },
    {
      "inputs": [
        {
          "internalType": "address",
          "name": "publisherAddress",
          "type": "address"
        },
        {
          "internalType": "string",
          "name": "name",
          "type": "string"
        }
      ],
      "name": "registerPublisher",
      "outputs": [],
      "stateMutability": "nonpayable",
      "type": "function"
    },
    {
      "inputs": [
        {
          "internalType": "bytes32",
          "name": "role",
          "type": "bytes32"
        },
        {
          "internalType": "address",
          "name": "callerConfirmation",
          "type": "address"
        }
      ],
      "name": "renounceRole",
      "outputs": [],
      "stateMutability": "nonpayable",
      "type": "function"
    },
    {
      "inputs": [
        {
          "internalType": "bytes32",
          "name": "role",
          "type": "bytes32"
        },
        {
          "internalType": "address",
          "name": "account",
          "type": "address"
        }
      ],
      "name": "revokeRole",
      "outputs": [],
      "stateMutability": "nonpayable",
      "type": "function"
    },
    {
      "inputs": [
        {
          "internalType": "string",
          "name": "title",
          "type": "string"
        },
        {
          "internalType": "string",
          "name": "content",
          "type": "string"
        }
      ],
      "name": "submitArticle",
      "outputs": [],
      "stateMutability": "nonpayable",
      "type": "function"
    },
    {
      "inputs": [
        {
          "internalType": "bytes4",
          "name": "interfaceId",
          "type": "bytes4"
        }
      ],
      "name": "supportsInterface",
      "outputs": [
        {
          "internalType": "bool",
          "name": "",
          "type": "bool"
        }
      ],
      "stateMutability": "view",
      "type": "function"
    },
    {
      "inputs": [
        {
          "internalType": "uint256",
          "name": "articleId",
          "type": "uint256"
        },
        {
          "internalType": "string",
          "name": "newTitle",
          "type": "string"
        },
        {
          "internalType": "string",
          "name": "newContent",
          "type": "string"
        }
      ],
      "name": "updateArticle",
      "outputs": [],
      "stateMutability": "nonpayable",
      "type": "function"
    }
  ],
  "bytecode": "0x60806040523480156200001157600080fd5b50620000276000801b336200006160201b60201c565b506200005a7f0ac90c257048ef1c3e387c26d4a99bde06894efbcbff862dc1885c3a9319308a336200006160201b60201c565b50620001d6565b60006200007583836200016460201b60201c565b6200015957600160008085815260200190815260200160002060000160008473ffffffffffffffffffffffffffffffffffffffff1673ffffffffffffffffffffffffffffffffffffffff16815260200190815260200160002060006101000a81548160ff021916908315150217905550620000f5620001ce60201b60201c565b73ffffffffffffffffffffffffffffffffffffffff168273ffffffffffffffffffffffffffffffffffffffff16847f2f8788117e7eff1d82e926ec794901d17c78024a50270940304540a733656f0d60405160405180910390a4600190506200015e565b600090505b92915050565b600080600084815260200190815260200160002060000160008373ffffffffffffffffffffffffffffffffffffffff1673ffffffffffffffffffffffffffffffffffffffff16815260200190815260200160002060009054906101000a900460ff16905092915050565b600033905090565b61484e80620001e66000396000f3fe608060405234801561001057600080fd5b50600436106101e55760003560e01c8063886704121161010f578063bd85d867116100a2578063d8f4b6fd11610071578063d8f4b6fd1461062e578063d98fabc11461064c578063edcfafe61461067c578063ffcd40f3146106b0576101e5565b8063bd85d86714610596578063c634b78e146105c6578063c8eb09e8146105e2578063d547741f14610612576101e5565b8063a217fddf116100de578063a217fddf1461050e578063abb7ae5d1461052c578063b44d310b1461055c578063bb09a8b21461057a576101e5565b8063886704121461046257806391d148541461047e5780639201de55146104ae5780639ec578d9146104de576101e5565b80632f2ff15d116101875780634c96f281116101565780634c96f281146103c657806351e59ffb146103e4578063703fd07d1461041457806373e4312d14610432576101e5565b80632f2ff15d1461032957806336568abe1461034557806341859ac8146103615780634bab5a4614610391576101e5565b8063248a9ca3116101c3578063248a9ca31461027d57806324d7806c146102ad57806325671a2f146102dd5780632738f28a146102f9576101e5565b806301ffc9a7146101ea5780630a4d85cd1461021a5780631df550f71461024d575b600080fd5b61020460048036038101906101ff9190612f62565b6106e0565b6040516102119190612faa565b60405180910390f35b610234600480360381019061022f9190613023565b61075a565b6040516102449493929190613091565b60405180910390f35b61026760048036038101906102629190613102565b6107b7565b604051610274919061312f565b60405180910390f35b61029760048036038101906102929190613180565b6107f6565b6040516102a491906131bc565b60405180910390f35b6102c760048036038101906102c29190613023565b610815565b6040516102d49190612faa565b60405180910390f35b6102f760048036038101906102f2919061331d565b61082b565b005b610313600480360381019061030e9190613395565b610ce7565b60405161032091906135d4565b60405180910390f35b610343600480360381019061033e91906135f6565b610dac565b005b61035f600480360381019061035a91906135f6565b610dce565b005b61037b60048036038101906103769190613023565b610e49565b6040516103889190612faa565b60405180910390f35b6103ab60048036038101906103a69190613102565b610e7c565b6040516103bd96959493929190613680565b60405180910390f35b6103ce611070565b6040516103db9190613818565b60405180910390f35b6103fe60048036038101906103f99190613023565b61134e565b60405161040b919061312f565b60405180910390f35b61041c61138c565b60405161042991906138e9565b60405180910390f35b61044c60048036038101906104479190613023565b611438565b60405161045991906135d4565b60405180910390f35b61047c6004803603810190610477919061390b565b61196e565b005b610498600480360381019061049391906135f6565b611ce9565b6040516104a59190612faa565b60405180910390f35b6104c860048036038101906104c39190613180565b611d53565b6040516104d59190613996565b60405180910390f35b6104f860048036038101906104f39190613023565b611d7c565b6040516105059190613996565b60405180910390f35b610516611e1c565b60405161052391906131bc565b60405180910390f35b61054660048036038101906105419190613102565b611e23565b60405161055391906139b8565b60405180910390f35b610564611e3b565b6040516105719190613b2c565b60405180910390f35b610594600480360381019061058f9190613b4e565b611ef9565b005b6105b060048036038101906105ab9190613102565b612208565b6040516105bd9190613c41565b60405180910390f35b6105e060048036038101906105db9190613023565b6124d9565b005b6105fc60048036038101906105f79190613395565b6124f7565b604051610609919061312f565b60405180910390f35b61062c600480360381019061062791906135f6565b612540565b005b610636612562565b60405161064391906131bc565b60405180910390f35b61066660048036038101906106619190613c63565b612586565b60405161067391906139b8565b60405180910390f35b61069660048036038101906106919190613102565b6125b7565b6040516106a7959493929190613ca3565b60405180910390f35b6106ca60048036038101906106c59190613102565b6127a5565b6040516106d79190613e64565b60405180910390f35b60007f7965db0b000000000000000000000000000000000000000000000000000000007bffffffffffffffffffffffffffffffffffffffffffffffffffffffff1916827bffffffffffffffffffffffffffffffffffffffffffffffffffffffff19161480610753575061075282612b18565b5b9050919050565b60056020528060005260406000206000915090508060000160009054906101000a900473ffffffffffffffffffffffffffffffffffffffff16908060010154908060020154908060030160009054906101000a900460ff16905084565b600181815481106107c757600080fd5b906000526020600020016000915054906101000a900473ffffffffffffffffffffffffffffffffffffffff1681565b6000806000838152602001908152602001600020600101549050919050565b60006108246000801b83611ce9565b9050919050565b6108557f0ac90c257048ef1c3e387c26d4a99bde06894efbcbff862dc1885c3a9319308a33611ce9565b610894576040517f08c379a000000000000000000000000000000000000000000000000000000000815260040161088b90613ed2565b60405180910390fd5b60008251116108d8576040517f08c379a00000000000000000000000000000000000000000000000000000000081526004016108cf90613f3e565b60405180910390fd5b600081511161091c576040517f08c379a000000000000000000000000000000000000000000000000000000000815260040161091390613faa565b60405180910390fd5b6009600081548092919061092f90613ff9565b9190505550600060095490506000838360405160200161095092919061407d565b6040516020818303038152906040528051906020012090508360036000848152602001908152602001600020600001908161098b91906142ad565b50826003600084815260200190815260200160002060010190816109af91906142ad565b50426003600084815260200190815260200160002060020181905550336003600084815260200190815260200160002060030160006101000a81548173ffffffffffffffffffffffffffffffffffffffff021916908373ffffffffffffffffffffffffffffffffffffffff160217905550610a2981611d53565b600360008481526020019081526020016000206004019081610a4b91906142ad565b506000600190506040518060c00160405280828152602001610a6c84611d53565b81526020013373ffffffffffffffffffffffffffffffffffffffff16815260200142815260200186815260200185815250600360008581526020019081526020016000206005016000838152602001908152602001600020600082015181600001556020820151816001019081610ae391906142ad565b5060408201518160020160006101000a81548173ffffffffffffffffffffffffffffffffffffffff021916908373ffffffffffffffffffffffffffffffffffffffff160217905550606082015181600301556080820151816004019081610b4a91906142ad565b5060a0820151816005019081610b6091906142ad565b5090505080600a600085815260200190815260200160002081905550600660003373ffffffffffffffffffffffffffffffffffffffff1673ffffffffffffffffffffffffffffffffffffffff1681526020019081526020016000208390806001815401808255809150506001900390600052602060002001600090919091909150556040518060c001604052808481526020018681526020018581526020014281526020013373ffffffffffffffffffffffffffffffffffffffff168152602001610c2a84611d53565b81525060046000858152602001908152602001600020600082015181600001556020820151816001019081610c5f91906142ad565b506040820151816002019081610c7591906142ad565b506060820151816003015560808201518160040160006101000a81548173ffffffffffffffffffffffffffffffffffffffff021916908373ffffffffffffffffffffffffffffffffffffffff16021790555060a0820151816005019081610cdc91906142ad565b509050505050505050565b60606000600783604051610cfb919061437f565b908152602001604051809103902060009054906101000a900473ffffffffffffffffffffffffffffffffffffffff169050600073ffffffffffffffffffffffffffffffffffffffff168173ffffffffffffffffffffffffffffffffffffffff1603610d9b576040517f08c379a0000000000000000000000000000000000000000000000000000000008152600401610d92906143e2565b60405180910390fd5b610da481611438565b915050919050565b610db5826107f6565b610dbe81612b82565b610dc88383612b96565b50505050565b610dd6612c87565b73ffffffffffffffffffffffffffffffffffffffff168173ffffffffffffffffffffffffffffffffffffffff1614610e3a576040517f6697b23200000000000000000000000000000000000000000000000000000000815260040160405180910390fd5b610e448282612c8f565b505050565b6000610e757f0ac90c257048ef1c3e387c26d4a99bde06894efbcbff862dc1885c3a9319308a83611ce9565b9050919050565b6004602052806000526040600020600091509050806000015490806001018054610ea5906140d0565b80601f0160208091040260200160405190810160405280929190818152602001828054610ed1906140d0565b8015610f1e5780601f10610ef357610100808354040283529160200191610f1e565b820191906000526020600020905b815481529060010190602001808311610f0157829003601f168201915b505050505090806002018054610f33906140d0565b80601f0160208091040260200160405190810160405280929190818152602001828054610f5f906140d0565b8015610fac5780601f10610f8157610100808354040283529160200191610fac565b820191906000526020600020905b815481529060010190602001808311610f8f57829003601f168201915b5050505050908060030154908060040160009054906101000a900473ffffffffffffffffffffffffffffffffffffffff1690806005018054610fed906140d0565b80601f0160208091040260200160405190810160405280929190818152602001828054611019906140d0565b80156110665780601f1061103b57610100808354040283529160200191611066565b820191906000526020600020905b81548152906001019060200180831161104957829003601f168201915b5050505050905086565b60606000805b6001805490508110156111385760006001828154811061109957611098614402565b5b9060005260206000200160009054906101000a900473ffffffffffffffffffffffffffffffffffffffff169050600560008273ffffffffffffffffffffffffffffffffffffffff1673ffffffffffffffffffffffffffffffffffffffff16815260200190815260200160002060030160009054906101000a900460ff161561112a57828061112690613ff9565b9350505b508080600101915050611076565b5060008167ffffffffffffffff811115611155576111546131f2565b5b60405190808252806020026020018201604052801561118e57816020015b61117b612dd2565b8152602001906001900390816111735790505b5090506000805b600180549050811015611344576000600182815481106111b8576111b7614402565b5b9060005260206000200160009054906101000a900473ffffffffffffffffffffffffffffffffffffffff169050600560008273ffffffffffffffffffffffffffffffffffffffff1673ffffffffffffffffffffffffffffffffffffffff16815260200190815260200160002060030160009054906101000a900460ff161561133657600560008273ffffffffffffffffffffffffffffffffffffffff1673ffffffffffffffffffffffffffffffffffffffff1681526020019081526020016000206040518060800160405290816000820160009054906101000a900473ffffffffffffffffffffffffffffffffffffffff1673ffffffffffffffffffffffffffffffffffffffff1673ffffffffffffffffffffffffffffffffffffffff16815260200160018201548152602001600282015481526020016003820160009054906101000a900460ff16151515158152505084848151811061131c5761131b614402565b5b6020026020010181905250828061133290613ff9565b9350505b508080600101915050611195565b5081935050505090565b60086020528060005260406000206000915090508060000160009054906101000a900473ffffffffffffffffffffffffffffffffffffffff16905081565b60606000600954905060008167ffffffffffffffff8111156113b1576113b06131f2565b5b6040519080825280602002602001820160405280156113df5781602001602082028036833780820191505090505b5090506000600190505b82811161142f5780826001836113ff9190614431565b815181106114105761140f614402565b5b602002602001018181525050808061142790613ff9565b9150506113e9565b50809250505090565b6060600560008373ffffffffffffffffffffffffffffffffffffffff1673ffffffffffffffffffffffffffffffffffffffff16815260200190815260200160002060030160009054906101000a900460ff166114c9576040517f08c379a00000000000000000000000000000000000000000000000000000000081526004016114c0906144b1565b60405180910390fd5b6000600660008473ffffffffffffffffffffffffffffffffffffffff1673ffffffffffffffffffffffffffffffffffffffff16815260200190815260200160002080548060200260200160405190810160405280929190818152602001828054801561155457602002820191906000526020600020905b815481526020019060010190808311611540575b505050505090506000815167ffffffffffffffff811115611578576115776131f2565b5b6040519080825280602002602001820160405280156115b157816020015b61159e612e12565b8152602001906001900390816115965790505b50905060005b8251811015611963576000600360008584815181106115d9576115d8614402565b5b602002602001015181526020019081526020016000206002015403611633576040517f08c379a000000000000000000000000000000000000000000000000000000000815260040161162a9061451d565b60405180910390fd5b6040518060c0016040528084838151811061165157611650614402565b5b602002602001015181526020016003600086858151811061167557611674614402565b5b602002602001015181526020019081526020016000206000018054611699906140d0565b80601f01602080910402602001604051908101604052809291908181526020018280546116c5906140d0565b80156117125780601f106116e757610100808354040283529160200191611712565b820191906000526020600020905b8154815290600101906020018083116116f557829003601f168201915b505050505081526020016003600086858151811061173357611732614402565b5b602002602001015181526020019081526020016000206001018054611757906140d0565b80601f0160208091040260200160405190810160405280929190818152602001828054611783906140d0565b80156117d05780601f106117a5576101008083540402835291602001916117d0565b820191906000526020600020905b8154815290600101906020018083116117b357829003601f168201915b50505050508152602001600360008685815181106117f1576117f0614402565b5b602002602001015181526020019081526020016000206002015481526020016003600086858151811061182757611826614402565b5b6020026020010151815260200190815260200160002060030160009054906101000a900473ffffffffffffffffffffffffffffffffffffffff1673ffffffffffffffffffffffffffffffffffffffff1681526020016003600086858151811061189357611892614402565b5b6020026020010151815260200190815260200160002060040180546118b7906140d0565b80601f01602080910402602001604051908101604052809291908181526020018280546118e3906140d0565b80156119305780601f1061190557610100808354040283529160200191611930565b820191906000526020600020905b81548152906001019060200180831161191357829003601f168201915b505050505081525082828151811061194b5761194a614402565b5b602002602001018190525080806001019150506115b7565b508092505050919050565b60006003600085815260200190815260200160002060020154036119c7576040517f08c379a00000000000000000000000000000000000000000000000000000000081526004016119be9061451d565b60405180910390fd5b6003600084815260200190815260200160002060030160009054906101000a900473ffffffffffffffffffffffffffffffffffffffff1673ffffffffffffffffffffffffffffffffffffffff163373ffffffffffffffffffffffffffffffffffffffff1614611a6b576040517f08c379a0000000000000000000000000000000000000000000000000000000008152600401611a62906145af565b60405180910390fd5b6000825111611aaf576040517f08c379a0000000000000000000000000000000000000000000000000000000008152600401611aa69061461b565b60405180910390fd5b6000815111611af3576040517f08c379a0000000000000000000000000000000000000000000000000000000008152600401611aea90614687565b60405180910390fd5b60008282604051602001611b0892919061407d565b60405160208183030381529060405280519060200120905082600360008681526020019081526020016000206000019081611b4391906142ad565b5081600360008681526020019081526020016000206001019081611b6791906142ad565b50611b7181611d53565b600360008681526020019081526020016000206004019081611b9391906142ad565b5060006001600a600087815260200190815260200160002054611bb691906146a7565b90506040518060c00160405280828152602001611bd284611d53565b81526020013373ffffffffffffffffffffffffffffffffffffffff16815260200142815260200185815260200184815250600360008781526020019081526020016000206005016000838152602001908152602001600020600082015181600001556020820151816001019081611c4991906142ad565b5060408201518160020160006101000a81548173ffffffffffffffffffffffffffffffffffffffff021916908373ffffffffffffffffffffffffffffffffffffffff160217905550606082015181600301556080820151816004019081611cb091906142ad565b5060a0820151816005019081611cc691906142ad565b5090505080600a6000878152602001908152602001600020819055505050505050565b600080600084815260200190815260200160002060000160008373ffffffffffffffffffffffffffffffffffffffff1673ffffffffffffffffffffffffffffffffffffffff16815260200190815260200160002060009054906101000a900460ff16905092915050565b606081604051602001611d6691906146fc565b6040516020818303038152906040529050919050565b60026020528060005260406000206000915090508054611d9b906140d0565b80601f0160208091040260200160405190810160405280929190818152602001828054611dc7906140d0565b8015611e145780601f10611de957610100808354040283529160200191611e14565b820191906000526020600020905b815481529060010190602001808311611df757829003601f168201915b505050505081565b6000801b81565b600a6020528060005260406000206000915090505481565b60606000600954905060008167ffffffffffffffff811115611e6057611e5f6131f2565b5b604051908082528060200260200182016040528015611e9957816020015b611e86612e5e565b815260200190600190039081611e7e5790505b5090506000600190505b828111611ef057611eb381612208565b82600183611ec19190614431565b81518110611ed257611ed1614402565b5b60200260200101819052508080611ee890613ff9565b915050611ea3565b50809250505090565b611f066000801b33611ce9565b611f45576040517f08c379a0000000000000000000000000000000000000000000000000000000008152600401611f3c90614763565b60405180910390fd5b600560008373ffffffffffffffffffffffffffffffffffffffff1673ffffffffffffffffffffffffffffffffffffffff16815260200190815260200160002060030160009054906101000a900460ff1615611fd5576040517f08c379a0000000000000000000000000000000000000000000000000000000008152600401611fcc906147cf565b60405180910390fd5b60405180608001604052808373ffffffffffffffffffffffffffffffffffffffff1681526020014281526020016000815260200160011515815250600560008473ffffffffffffffffffffffffffffffffffffffff1673ffffffffffffffffffffffffffffffffffffffff16815260200190815260200160002060008201518160000160006101000a81548173ffffffffffffffffffffffffffffffffffffffff021916908373ffffffffffffffffffffffffffffffffffffffff160217905550602082015181600101556040820151816002015560608201518160030160006101000a81548160ff0219169083151502179055509050506001829080600181540180825580915050600190039060005260206000200160009091909190916101000a81548173ffffffffffffffffffffffffffffffffffffffff021916908373ffffffffffffffffffffffffffffffffffffffff16021790555080600260008473ffffffffffffffffffffffffffffffffffffffff1673ffffffffffffffffffffffffffffffffffffffff168152602001908152602001600020908161217c91906142ad565b508160078260405161218e919061437f565b908152602001604051809103902060006101000a81548173ffffffffffffffffffffffffffffffffffffffff021916908373ffffffffffffffffffffffffffffffffffffffff1602179055506122047f0ac90c257048ef1c3e387c26d4a99bde06894efbcbff862dc1885c3a9319308a83610dac565b5050565b612210612e5e565b6000600460008481526020019081526020016000206003015403612269576040517f08c379a00000000000000000000000000000000000000000000000000000000081526004016122609061451d565b60405180910390fd5b6040518060c0016040528083815260200160046000858152602001908152602001600020600101805461229b906140d0565b80601f01602080910402602001604051908101604052809291908181526020018280546122c7906140d0565b80156123145780601f106122e957610100808354040283529160200191612314565b820191906000526020600020905b8154815290600101906020018083116122f757829003601f168201915b5050505050815260200160046000858152602001908152602001600020600201805461233f906140d0565b80601f016020809104026020016040519081016040528092919081815260200182805461236b906140d0565b80156123b85780601f1061238d576101008083540402835291602001916123b8565b820191906000526020600020905b81548152906001019060200180831161239b57829003601f168201915b50505050508152602001600460008581526020019081526020016000206003015481526020016004600085815260200190815260200160002060040160009054906101000a900473ffffffffffffffffffffffffffffffffffffffff1673ffffffffffffffffffffffffffffffffffffffff168152602001600460008581526020019081526020016000206005018054612451906140d0565b80601f016020809104026020016040519081016040528092919081815260200182805461247d906140d0565b80156124ca5780601f1061249f576101008083540402835291602001916124ca565b820191906000526020600020905b8154815290600101906020018083116124ad57829003601f168201915b50505050508152509050919050565b6000801b6124e681612b82565b6124f36000801b83610dac565b5050565b6007818051602081018201805184825260208301602085012081835280955050505050506000915054906101000a900473ffffffffffffffffffffffffffffffffffffffff1681565b612549826107f6565b61255281612b82565b61255c8383612c8f565b50505050565b7f0ac90c257048ef1c3e387c26d4a99bde06894efbcbff862dc1885c3a9319308a81565b600660205281600052604060002081815481106125a257600080fd5b90600052602060002001600091509150505481565b60036020528060005260406000206000915090508060000180546125da906140d0565b80601f0160208091040260200160405190810160405280929190818152602001828054612606906140d0565b80156126535780601f1061262857610100808354040283529160200191612653565b820191906000526020600020905b81548152906001019060200180831161263657829003601f168201915b505050505090806001018054612668906140d0565b80601f0160208091040260200160405190810160405280929190818152602001828054612694906140d0565b80156126e15780601f106126b6576101008083540402835291602001916126e1565b820191906000526020600020905b8154815290600101906020018083116126c457829003601f168201915b5050505050908060020154908060030160009054906101000a900473ffffffffffffffffffffffffffffffffffffffff1690806004018054612722906140d0565b80601f016020809104026020016040519081016040528092919081815260200182805461274e906140d0565b801561279b5780601f106127705761010080835404028352916020019161279b565b820191906000526020600020905b81548152906001019060200180831161277e57829003601f168201915b5050505050905085565b60606000600360008481526020019081526020016000206002015403612800576040517f08c379a00000000000000000000000000000000000000000000000000000000081526004016127f79061451d565b60405180910390fd5b6000600a600084815260200190815260200160002054905060008167ffffffffffffffff811115612834576128336131f2565b5b60405190808252806020026020018201604052801561286d57816020015b61285a612eaa565b8152602001906001900390816128525790505b5090506000600190505b828111612b0d576003600086815260200190815260200160002060050160008281526020019081526020016000206040518060c0016040529081600082015481526020016001820180546128ca906140d0565b80601f01602080910402602001604051908101604052809291908181526020018280546128f6906140d0565b80156129435780601f1061291857610100808354040283529160200191612943565b820191906000526020600020905b81548152906001019060200180831161292657829003601f168201915b505050505081526020016002820160009054906101000a900473ffffffffffffffffffffffffffffffffffffffff1673ffffffffffffffffffffffffffffffffffffffff1673ffffffffffffffffffffffffffffffffffffffff168152602001600382015481526020016004820180546129bc906140d0565b80601f01602080910402602001604051908101604052809291908181526020018280546129e8906140d0565b8015612a355780601f10612a0a57610100808354040283529160200191612a35565b820191906000526020600020905b815481529060010190602001808311612a1857829003601f168201915b50505050508152602001600582018054612a4e906140d0565b80601f0160208091040260200160405190810160405280929190818152602001828054612a7a906140d0565b8015612ac75780601f10612a9c57610100808354040283529160200191612ac7565b820191906000526020600020905b815481529060010190602001808311612aaa57829003601f168201915b50505050508152505082600183612ade9190614431565b81518110612aef57612aee614402565b5b60200260200101819052508080612b0590613ff9565b915050612877565b508092505050919050565b60007f01ffc9a7000000000000000000000000000000000000000000000000000000007bffffffffffffffffffffffffffffffffffffffffffffffffffffffff1916827bffffffffffffffffffffffffffffffffffffffffffffffffffffffff1916149050919050565b612b9381612b8e612c87565b612d81565b50565b6000612ba28383611ce9565b612c7c57600160008085815260200190815260200160002060000160008473ffffffffffffffffffffffffffffffffffffffff1673ffffffffffffffffffffffffffffffffffffffff16815260200190815260200160002060006101000a81548160ff021916908315150217905550612c19612c87565b73ffffffffffffffffffffffffffffffffffffffff168273ffffffffffffffffffffffffffffffffffffffff16847f2f8788117e7eff1d82e926ec794901d17c78024a50270940304540a733656f0d60405160405180910390a460019050612c81565b600090505b92915050565b600033905090565b6000612c9b8383611ce9565b15612d7657600080600085815260200190815260200160002060000160008473ffffffffffffffffffffffffffffffffffffffff1673ffffffffffffffffffffffffffffffffffffffff16815260200190815260200160002060006101000a81548160ff021916908315150217905550612d13612c87565b73ffffffffffffffffffffffffffffffffffffffff168273ffffffffffffffffffffffffffffffffffffffff16847ff6391f5c32d9c69d2a47ea670b442974b53935d1edc7fd64eb21e047a839171b60405160405180910390a460019050612d7b565b600090505b92915050565b612d8b8282611ce9565b612dce5780826040517fe2517d3f000000000000000000000000000000000000000000000000000000008152600401612dc59291906147ef565b60405180910390fd5b5050565b6040518060800160405280600073ffffffffffffffffffffffffffffffffffffffff16815260200160008152602001600081526020016000151581525090565b6040518060c0016040528060008152602001606081526020016060815260200160008152602001600073ffffffffffffffffffffffffffffffffffffffff168152602001606081525090565b6040518060c0016040528060008152602001606081526020016060815260200160008152602001600073ffffffffffffffffffffffffffffffffffffffff168152602001606081525090565b6040518060c001604052806000815260200160608152602001600073ffffffffffffffffffffffffffffffffffffffff1681526020016000815260200160608152602001606081525090565b6000604051905090565b600080fd5b600080fd5b60007fffffffff0000000000000000000000000000000000000000000000000000000082169050919050565b612f3f81612f0a565b8114612f4a57600080fd5b50565b600081359050612f5c81612f36565b92915050565b600060208284031215612f7857612f77612f00565b5b6000612f8684828501612f4d565b91505092915050565b60008115159050919050565b612fa481612f8f565b82525050565b6000602082019050612fbf6000830184612f9b565b92915050565b600073ffffffffffffffffffffffffffffffffffffffff82169050919050565b6000612ff082612fc5565b9050919050565b61300081612fe5565b811461300b57600080fd5b50565b60008135905061301d81612ff7565b92915050565b60006020828403121561303957613038612f00565b5b60006130478482850161300e565b91505092915050565b61305981612fe5565b82525050565b6000819050919050565b6130728161305f565b82525050565b6000819050919050565b61308b81613078565b82525050565b60006080820190506130a66000830187613050565b6130b36020830186613069565b6130c06040830185613082565b6130cd6060830184612f9b565b95945050505050565b6130df8161305f565b81146130ea57600080fd5b50565b6000813590506130fc816130d6565b92915050565b60006020828403121561311857613117612f00565b5b6000613126848285016130ed565b91505092915050565b60006020820190506131446000830184613050565b92915050565b6000819050919050565b61315d8161314a565b811461316857600080fd5b50565b60008135905061317a81613154565b92915050565b60006020828403121561319657613195612f00565b5b60006131a48482850161316b565b91505092915050565b6131b68161314a565b82525050565b60006020820190506131d160008301846131ad565b92915050565b600080fd5b600080fd5b6000601f19601f8301169050919050565b7f4e487b7100000000000000000000000000000000000000000000000000000000600052604160045260246000fd5b61322a826131e1565b810181811067ffffffffffffffff82111715613249576132486131f2565b5b80604052505050565b600061325c612ef6565b90506132688282613221565b919050565b600067ffffffffffffffff821115613288576132876131f2565b5b613291826131e1565b9050602081019050919050565b82818337600083830152505050565b60006132c06132bb8461326d565b613252565b9050828152602081018484840111156132dc576132db6131dc565b5b6132e784828561329e565b509392505050565b600082601f830112613304576133036131d7565b5b81356133148482602086016132ad565b91505092915050565b6000806040838503121561333457613333612f00565b5b600083013567ffffffffffffffff81111561335257613351612f05565b5b61335e858286016132ef565b925050602083013567ffffffffffffffff81111561337f5761337e612f05565b5b61338b858286016132ef565b9150509250929050565b6000602082840312156133ab576133aa612f00565b5b600082013567ffffffffffffffff8111156133c9576133c8612f05565b5b6133d5848285016132ef565b91505092915050565b600081519050919050565b600082825260208201905092915050565b6000819050602082019050919050565b6134138161305f565b82525050565b600081519050919050565b600082825260208201905092915050565b60005b83811015613453578082015181840152602081019050613438565b60008484015250505050565b600061346a82613419565b6134748185613424565b9350613484818560208601613435565b61348d816131e1565b840191505092915050565b6134a181612fe5565b82525050565b600060c0830160008301516134bf600086018261340a565b50602083015184820360208601526134d7828261345f565b915050604083015184820360408601526134f1828261345f565b9150506060830151613506606086018261340a565b5060808301516135196080860182613498565b5060a083015184820360a0860152613531828261345f565b9150508091505092915050565b600061354a83836134a7565b905092915050565b6000602082019050919050565b600061356a826133de565b61357481856133e9565b935083602082028501613586856133fa565b8060005b858110156135c257848403895281516135a3858261353e565b94506135ae83613552565b925060208a0199505060018101905061358a565b50829750879550505050505092915050565b600060208201905081810360008301526135ee818461355f565b905092915050565b6000806040838503121561360d5761360c612f00565b5b600061361b8582860161316b565b925050602061362c8582860161300e565b9150509250929050565b600082825260208201905092915050565b600061365282613419565b61365c8185613636565b935061366c818560208601613435565b613675816131e1565b840191505092915050565b600060c0820190506136956000830189613069565b81810360208301526136a78188613647565b905081810360408301526136bb8187613647565b90506136ca6060830186613069565b6136d76080830185613050565b81810360a08301526136e98184613647565b9050979650505050505050565b600081519050919050565b600082825260208201905092915050565b6000819050602082019050919050565b61372b81613078565b82525050565b61373a81612f8f565b82525050565b6080820160008201516137566000850182613498565b506020820151613769602085018261340a565b50604082015161377c6040850182613722565b50606082015161378f6060850182613731565b50505050565b60006137a18383613740565b60808301905092915050565b6000602082019050919050565b60006137c5826136f6565b6137cf8185613701565b93506137da83613712565b8060005b8381101561380b5781516137f28882613795565b97506137fd836137ad565b9250506001810190506137de565b5085935050505092915050565b6000602082019050818103600083015261383281846137ba565b905092915050565b600081519050919050565b600082825260208201905092915050565b6000819050602082019050919050565b6000613872838361340a565b60208301905092915050565b6000602082019050919050565b60006138968261383a565b6138a08185613845565b93506138ab83613856565b8060005b838110156138dc5781516138c38882613866565b97506138ce8361387e565b9250506001810190506138af565b5085935050505092915050565b60006020820190508181036000830152613903818461388b565b905092915050565b60008060006060848603121561392457613923612f00565b5b6000613932868287016130ed565b935050602084013567ffffffffffffffff81111561395357613952612f05565b5b61395f868287016132ef565b925050604084013567ffffffffffffffff8111156139805761397f612f05565b5b61398c868287016132ef565b9150509250925092565b600060208201905081810360008301526139b08184613647565b905092915050565b60006020820190506139cd6000830184613069565b92915050565b600081519050919050565b600082825260208201905092915050565b6000819050602082019050919050565b600060c083016000830151613a17600086018261340a565b5060208301518482036020860152613a2f828261345f565b91505060408301518482036040860152613a49828261345f565b9150506060830151613a5e606086018261340a565b506080830151613a716080860182613498565b5060a083015184820360a0860152613a89828261345f565b9150508091505092915050565b6000613aa283836139ff565b905092915050565b6000602082019050919050565b6000613ac2826139d3565b613acc81856139de565b935083602082028501613ade856139ef565b8060005b85811015613b1a5784840389528151613afb8582613a96565b9450613b0683613aaa565b925060208a01995050600181019050613ae2565b50829750879550505050505092915050565b60006020820190508181036000830152613b468184613ab7565b905092915050565b60008060408385031215613b6557613b64612f00565b5b6000613b738582860161300e565b925050602083013567ffffffffffffffff811115613b9457613b93612f05565b5b613ba0858286016132ef565b9150509250929050565b600060c083016000830151613bc2600086018261340a565b5060208301518482036020860152613bda828261345f565b91505060408301518482036040860152613bf4828261345f565b9150506060830151613c09606086018261340a565b506080830151613c1c6080860182613498565b5060a083015184820360a0860152613c34828261345f565b9150508091505092915050565b60006020820190508181036000830152613c5b8184613baa565b905092915050565b60008060408385031215613c7a57613c79612f00565b5b6000613c888582860161300e565b9250506020613c99858286016130ed565b9150509250929050565b600060a0820190508181036000830152613cbd8188613647565b90508181036020830152613cd18187613647565b9050613ce06040830186613069565b613ced6060830185613050565b8181036080830152613cff8184613647565b90509695505050505050565b600081519050919050565b600082825260208201905092915050565b6000819050602082019050919050565b600060c083016000830151613d4f600086018261340a565b5060208301518482036020860152613d67828261345f565b9150506040830151613d7c6040860182613498565b506060830151613d8f606086018261340a565b5060808301518482036080860152613da7828261345f565b91505060a083015184820360a0860152613dc1828261345f565b9150508091505092915050565b6000613dda8383613d37565b905092915050565b6000602082019050919050565b6000613dfa82613d0b565b613e048185613d16565b935083602082028501613e1685613d27565b8060005b85811015613e525784840389528151613e338582613dce565b9450613e3e83613de2565b925060208a01995050600181019050613e1a565b50829750879550505050505092915050565b60006020820190508181036000830152613e7e8184613def565b905092915050565b7f43616c6c6572206973206e6f742061207075626c697368657200000000000000600082015250565b6000613ebc601983613636565b9150613ec782613e86565b602082019050919050565b60006020820190508181036000830152613eeb81613eaf565b9050919050565b7f5469746c652063616e6e6f7420626520656d7074790000000000000000000000600082015250565b6000613f28601583613636565b9150613f3382613ef2565b602082019050919050565b60006020820190508181036000830152613f5781613f1b565b9050919050565b7f436f6e74656e742063616e6e6f7420626520656d707479000000000000000000600082015250565b6000613f94601783613636565b9150613f9f82613f5e565b602082019050919050565b60006020820190508181036000830152613fc381613f87565b9050919050565b7f4e487b7100000000000000000000000000000000000000000000000000000000600052601160045260246000fd5b60006140048261305f565b91507fffffffffffffffffffffffffffffffffffffffffffffffffffffffffffffffff820361403657614035613fca565b5b600182019050919050565b600081905092915050565b600061405782613419565b6140618185614041565b9350614071818560208601613435565b80840191505092915050565b6000614089828561404c565b9150614095828461404c565b91508190509392505050565b7f4e487b7100000000000000000000000000000000000000000000000000000000600052602260045260246000fd5b600060028204905060018216806140e857607f821691505b6020821081036140fb576140fa6140a1565b5b50919050565b60008190508160005260206000209050919050565b60006020601f8301049050919050565b600082821b905092915050565b6000600883026141637fffffffffffffffffffffffffffffffffffffffffffffffffffffffffffffffff82614126565b61416d8683614126565b95508019841693508086168417925050509392505050565b6000819050919050565b60006141aa6141a56141a08461305f565b614185565b61305f565b9050919050565b6000819050919050565b6141c48361418f565b6141d86141d0826141b1565b848454614133565b825550505050565b600090565b6141ed6141e0565b6141f88184846141bb565b505050565b5b8181101561421c576142116000826141e5565b6001810190506141fe565b5050565b601f8211156142615761423281614101565b61423b84614116565b8101602085101561424a578190505b61425e61425685614116565b8301826141fd565b50505b505050565b600082821c905092915050565b600061428460001984600802614266565b1980831691505092915050565b600061429d8383614273565b9150826002028217905092915050565b6142b682613419565b67ffffffffffffffff8111156142cf576142ce6131f2565b5b6142d982546140d0565b6142e4828285614220565b600060209050601f8311600181146143175760008415614305578287015190505b61430f8582614291565b865550614377565b601f19841661432586614101565b60005b8281101561434d57848901518255600182019150602085019450602081019050614328565b8683101561436a5784890151614366601f891682614273565b8355505b6001600288020188555050505b505050505050565b600061438b828461404c565b915081905092915050565b7f5075626c6973686572206e6f7420666f756e6400000000000000000000000000600082015250565b60006143cc601383613636565b91506143d782614396565b602082019050919050565b600060208201905081810360008301526143fb816143bf565b9050919050565b7f4e487b7100000000000000000000000000000000000000000000000000000000600052603260045260246000fd5b600061443c8261305f565b91506144478361305f565b925082820390508181111561445f5761445e613fca565b5b92915050565b7f5075626c6973686572206e6f7420726567697374657265640000000000000000600082015250565b600061449b601883613636565b91506144a682614465565b602082019050919050565b600060208201905081810360008301526144ca8161448e565b9050919050565b7f41727469636c6520646f6573206e6f7420657869737400000000000000000000600082015250565b6000614507601683613636565b9150614512826144d1565b602082019050919050565b60006020820190508181036000830152614536816144fa565b9050919050565b7f4f6e6c7920746865207075626c69736865722063616e2075706461746520746860008201527f652061727469636c650000000000000000000000000000000000000000000000602082015250565b6000614599602983613636565b91506145a48261453d565b604082019050919050565b600060208201905081810360008301526145c88161458c565b9050919050565b7f4e6577207469746c652063616e6e6f7420626520656d70747900000000000000600082015250565b6000614605601983613636565b9150614610826145cf565b602082019050919050565b60006020820190508181036000830152614634816145f8565b9050919050565b7f4e657720636f6e74656e742063616e6e6f7420626520656d7074790000000000600082015250565b6000614671601b83613636565b915061467c8261463b565b602082019050919050565b600060208201905081810360008301526146a081614664565b9050919050565b60006146b28261305f565b91506146bd8361305f565b92508282019050808211156146d5576146d4613fca565b5b92915050565b6000819050919050565b6146f66146f18261314a565b6146db565b82525050565b600061470882846146e5565b60208201915081905092915050565b7f43616c6c6572206973206e6f7420616e2061646d696e00000000000000000000600082015250565b600061474d601683613636565b915061475882614717565b602082019050919050565b6000602082019050818103600083015261477c81614740565b9050919050565b7f5075626c697368657220616c7265616479207265676973746572656400000000600082015250565b60006147b9601c83613636565b91506147c482614783565b602082019050919050565b600060208201905081810360008301526147e8816147ac565b9050919050565b60006040820190506148046000830185613050565b61481160208301846131ad565b939250505056fea26469706673582212209fdb0ec3e3e3d15cf233d4d7e9de5310a0ff262dc38ef814f34f0f6d8c4fe0ea64736f6c63430008180033",
  "linkReferences": {},
  "deployedLinkReferences": {}
}