{
  "_format": "hh-sol-artifact-1",
  "contractName": "NewsPlatform",
  "sourceName": "contracts/NewsPlatform.sol",
  "abi": [
    {
      "inputs": [],
      "stateMutability": "nonpayable",
      "type": "constructor"
    },
    {
      "inputs": [],
      "name": "AccessControlBadConfirmation",
      "type": "error"
    },
    {
      "inputs": [
        {
          "internalType": "address",
          "name": "account",
          "type": "address"
        },
        {
          "internalType": "bytes32",
          "name": "neededRole",
          "type": "bytes32"
        }
      ],
      "name": "AccessControlUnauthorizedAccount",
      "type": "error"
    },
    {
      "anonymous": false,
      "inputs": [
        {
          "indexed": false,
          "internalType": "address",
          "name": "publisher",
          "type": "address"
        },
        {
          "indexed": false,
          "internalType": "uint256",
          "name": "articleId",
          "type": "uint256"
        }
      ],
      "name": "ArticleSubmitted",
      "type": "event"
    },
    {
      "anonymous": false,
      "inputs": [
        {
          "indexed": false,
          "internalType": "uint256",
          "name": "articleId",
          "type": "uint256"
        }
      ],
      "name": "ArticleUpdated",
      "type": "event"
    },
    {
      "anonymous": false,
      "inputs": [
        {
          "indexed": true,
          "internalType": "bytes32",
          "name": "role",
          "type": "bytes32"
        },
        {
          "indexed": true,
          "internalType": "bytes32",
          "name": "previousAdminRole",
          "type": "bytes32"
        },
        {
          "indexed": true,
          "internalType": "bytes32",
          "name": "newAdminRole",
          "type": "bytes32"
        }
      ],
      "name": "RoleAdminChanged",
      "type": "event"
    },
    {
      "anonymous": false,
      "inputs": [
        {
          "indexed": true,
          "internalType": "bytes32",
          "name": "role",
          "type": "bytes32"
        },
        {
          "indexed": true,
          "internalType": "address",
          "name": "account",
          "type": "address"
        },
        {
          "indexed": true,
          "internalType": "address",
          "name": "sender",
          "type": "address"
        }
      ],
      "name": "RoleGranted",
      "type": "event"
    },
    {
      "anonymous": false,
      "inputs": [
        {
          "indexed": true,
          "internalType": "bytes32",
          "name": "role",
          "type": "bytes32"
        },
        {
          "indexed": true,
          "internalType": "address",
          "name": "account",
          "type": "address"
        },
        {
          "indexed": true,
          "internalType": "address",
          "name": "sender",
          "type": "address"
        }
      ],
      "name": "RoleRevoked",
      "type": "event"
    },
    {
      "inputs": [],
      "name": "DEFAULT_ADMIN_ROLE",
      "outputs": [
        {
          "internalType": "bytes32",
          "name": "",
          "type": "bytes32"
        }
      ],
      "stateMutability": "view",
      "type": "function"
    },
    {
      "inputs": [],
      "name": "PUBLISHER_ROLE",
      "outputs": [
        {
          "internalType": "bytes32",
          "name": "",
          "type": "bytes32"
        }
      ],
      "stateMutability": "view",
      "type": "function"
    },
    {
      "inputs": [
        {
          "internalType": "uint256",
          "name": "articleId",
          "type": "uint256"
        }
      ],
      "name": "addToFavorites",
      "outputs": [],
      "stateMutability": "nonpayable",
      "type": "function"
    },
    {
      "inputs": [
        {
          "internalType": "uint256",
          "name": "",
          "type": "uint256"
        }
      ],
      "name": "articleVersionCounts",
      "outputs": [
        {
          "internalType": "uint256",
          "name": "",
          "type": "uint256"
        }
      ],
      "stateMutability": "view",
      "type": "function"
    },
    {
      "inputs": [
        {
          "internalType": "uint256",
          "name": "",
          "type": "uint256"
        }
      ],
      "name": "articleVersionless",
      "outputs": [
        {
          "internalType": "uint256",
          "name": "id",
          "type": "uint256"
        },
        {
          "internalType": "string",
          "name": "title",
          "type": "string"
        },
        {
          "internalType": "string",
          "name": "content",
          "type": "string"
        },
        {
          "internalType": "uint256",
          "name": "timestamp",
          "type": "uint256"
        },
        {
          "internalType": "address",
          "name": "publisherID",
          "type": "address"
        },
        {
          "internalType": "string",
          "name": "articleHash",
          "type": "string"
        }
      ],
      "stateMutability": "view",
      "type": "function"
    },
    {
      "inputs": [
        {
          "internalType": "uint256",
          "name": "",
          "type": "uint256"
        }
      ],
      "name": "articles",
      "outputs": [
        {
          "internalType": "string",
          "name": "title",
          "type": "string"
        },
        {
          "internalType": "string",
          "name": "content",
          "type": "string"
        },
        {
          "internalType": "uint256",
          "name": "timestamp",
          "type": "uint256"
        },
        {
          "internalType": "address",
          "name": "publisherID",
          "type": "address"
        },
        {
          "internalType": "string",
          "name": "articleHash",
          "type": "string"
        }
      ],
      "stateMutability": "view",
      "type": "function"
    },
    {
      "inputs": [
        {
          "internalType": "bytes32",
          "name": "_bytes32",
          "type": "bytes32"
        }
      ],
      "name": "bytes32ToString",
      "outputs": [
        {
          "internalType": "string",
          "name": "",
          "type": "string"
        }
      ],
      "stateMutability": "pure",
      "type": "function"
    },
    {
      "inputs": [],
      "name": "getAllArticleIds",
      "outputs": [
        {
          "internalType": "uint256[]",
          "name": "",
          "type": "uint256[]"
        }
      ],
      "stateMutability": "view",
      "type": "function"
    },
    {
      "inputs": [],
      "name": "getAllArticles",
      "outputs": [
        {
          "components": [
            {
              "internalType": "uint256",
              "name": "id",
              "type": "uint256"
            },
            {
              "internalType": "string",
              "name": "title",
              "type": "string"
            },
            {
              "internalType": "string",
              "name": "content",
              "type": "string"
            },
            {
              "internalType": "uint256",
              "name": "timestamp",
              "type": "uint256"
            },
            {
              "internalType": "address",
              "name": "publisherID",
              "type": "address"
            },
            {
              "internalType": "string",
              "name": "articleHash",
              "type": "string"
            }
          ],
          "internalType": "struct NewsPlatform.ArticleWithID[]",
          "name": "",
          "type": "tuple[]"
        }
      ],
      "stateMutability": "view",
      "type": "function"
    },
    {
      "inputs": [],
      "name": "getAllPublishers",
      "outputs": [
        {
          "components": [
            {
              "internalType": "address",
              "name": "publisherID",
              "type": "address"
            },
            {
              "internalType": "uint256",
              "name": "registrationTimestamp",
              "type": "uint256"
            },
            {
              "internalType": "int256",
              "name": "reputationScore",
              "type": "int256"
            },
            {
              "internalType": "bool",
              "name": "isRegistered",
              "type": "bool"
            }
          ],
          "internalType": "struct NewsPlatform.Publisher[]",
          "name": "",
          "type": "tuple[]"
        }
      ],
      "stateMutability": "view",
      "type": "function"
    },
    {
      "inputs": [
        {
          "internalType": "uint256",
          "name": "articleId",
          "type": "uint256"
        }
      ],
      "name": "getArticle",
      "outputs": [
        {
          "components": [
            {
              "internalType": "uint256",
              "name": "id",
              "type": "uint256"
            },
            {
              "internalType": "string",
              "name": "title",
              "type": "string"
            },
            {
              "internalType": "string",
              "name": "content",
              "type": "string"
            },
            {
              "internalType": "uint256",
              "name": "timestamp",
              "type": "uint256"
            },
            {
              "internalType": "address",
              "name": "publisherID",
              "type": "address"
            },
            {
              "internalType": "string",
              "name": "articleHash",
              "type": "string"
            }
          ],
          "internalType": "struct NewsPlatform.ArticleWithID",
          "name": "",
          "type": "tuple"
        }
      ],
      "stateMutability": "view",
      "type": "function"
    },
    {
      "inputs": [
        {
          "internalType": "uint256",
          "name": "articleId",
          "type": "uint256"
        }
      ],
      "name": "getArticleHistory",
      "outputs": [
        {
          "components": [
            {
              "internalType": "uint256",
              "name": "versionNumber",
              "type": "uint256"
            },
            {
              "internalType": "string",
              "name": "articleHash",
              "type": "string"
            },
            {
              "internalType": "address",
              "name": "editorID",
              "type": "address"
            },
            {
              "internalType": "uint256",
              "name": "editTimestamp",
              "type": "uint256"
            },
            {
              "internalType": "string",
              "name": "title",
              "type": "string"
            },
            {
              "internalType": "string",
              "name": "content",
              "type": "string"
            }
          ],
          "internalType": "struct NewsPlatform.ArticleVersion[]",
          "name": "",
          "type": "tuple[]"
        }
      ],
      "stateMutability": "view",
      "type": "function"
    },
    {
      "inputs": [
        {
          "internalType": "string",
          "name": "name",
          "type": "string"
        }
      ],
      "name": "getArticlesByName",
      "outputs": [
        {
          "components": [
            {
              "internalType": "uint256",
              "name": "id",
              "type": "uint256"
            },
            {
              "internalType": "string",
              "name": "title",
              "type": "string"
            },
            {
              "internalType": "string",
              "name": "content",
              "type": "string"
            },
            {
              "internalType": "uint256",
              "name": "timestamp",
              "type": "uint256"
            },
            {
              "internalType": "address",
              "name": "publisherID",
              "type": "address"
            },
            {
              "internalType": "string",
              "name": "articleHash",
              "type": "string"
            }
          ],
          "internalType": "struct NewsPlatform.ArticleWithID[]",
          "name": "",
          "type": "tuple[]"
        }
      ],
      "stateMutability": "view",
      "type": "function"
    },
    {
      "inputs": [
        {
          "internalType": "address",
          "name": "publisherAddress",
          "type": "address"
        }
      ],
      "name": "getArticlesByPublisher",
      "outputs": [
        {
          "components": [
            {
              "internalType": "uint256",
              "name": "id",
              "type": "uint256"
            },
            {
              "internalType": "string",
              "name": "title",
              "type": "string"
            },
            {
              "internalType": "string",
              "name": "content",
              "type": "string"
            },
            {
              "internalType": "uint256",
              "name": "timestamp",
              "type": "uint256"
            },
            {
              "internalType": "address",
              "name": "publisherID",
              "type": "address"
            },
            {
              "internalType": "string",
              "name": "articleHash",
              "type": "string"
            }
          ],
          "internalType": "struct NewsPlatform.ArticleWithID[]",
          "name": "",
          "type": "tuple[]"
        }
      ],
      "stateMutability": "view",
      "type": "function"
    },
    {
      "inputs": [],
      "name": "getFavorites",
      "outputs": [
        {
          "components": [
            {
              "internalType": "uint256",
              "name": "id",
              "type": "uint256"
            },
            {
              "internalType": "string",
              "name": "title",
              "type": "string"
            },
            {
              "internalType": "string",
              "name": "content",
              "type": "string"
            },
            {
              "internalType": "uint256",
              "name": "timestamp",
              "type": "uint256"
            },
            {
              "internalType": "address",
              "name": "publisherID",
              "type": "address"
            },
            {
              "internalType": "string",
              "name": "articleHash",
              "type": "string"
            }
          ],
          "internalType": "struct NewsPlatform.ArticleWithID[]",
          "name": "",
          "type": "tuple[]"
        }
      ],
      "stateMutability": "view",
      "type": "function"
    },
    {
      "inputs": [
        {
          "internalType": "bytes32",
          "name": "role",
          "type": "bytes32"
        }
      ],
      "name": "getRoleAdmin",
      "outputs": [
        {
          "internalType": "bytes32",
          "name": "",
          "type": "bytes32"
        }
      ],
      "stateMutability": "view",
      "type": "function"
    },
    {
      "inputs": [
        {
          "internalType": "address",
          "name": "newAdmin",
          "type": "address"
        }
      ],
      "name": "grantAdminRole",
      "outputs": [],
      "stateMutability": "nonpayable",
      "type": "function"
    },
    {
      "inputs": [
        {
          "internalType": "bytes32",
          "name": "role",
          "type": "bytes32"
        },
        {
          "internalType": "address",
          "name": "account",
          "type": "address"
        }
      ],
      "name": "grantRole",
      "outputs": [],
      "stateMutability": "nonpayable",
      "type": "function"
    },
    {
      "inputs": [
        {
          "internalType": "bytes32",
          "name": "role",
          "type": "bytes32"
        },
        {
          "internalType": "address",
          "name": "account",
          "type": "address"
        }
      ],
      "name": "hasRole",
      "outputs": [
        {
          "internalType": "bool",
          "name": "",
          "type": "bool"
        }
      ],
      "stateMutability": "view",
      "type": "function"
    },
    {
      "inputs": [
        {
          "internalType": "address",
          "name": "user",
          "type": "address"
        }
      ],
      "name": "isAdmin",
      "outputs": [
        {
          "internalType": "bool",
          "name": "",
          "type": "bool"
        }
      ],
      "stateMutability": "view",
      "type": "function"
    },
    {
      "inputs": [
        {
          "internalType": "address",
          "name": "user",
          "type": "address"
        }
      ],
      "name": "isPublisher",
      "outputs": [
        {
          "internalType": "bool",
          "name": "",
          "type": "bool"
        }
      ],
      "stateMutability": "view",
      "type": "function"
    },
    {
      "inputs": [
        {
          "internalType": "string",
          "name": "",
          "type": "string"
        }
      ],
      "name": "nameToPublisherAddress",
      "outputs": [
        {
          "internalType": "address",
          "name": "",
          "type": "address"
        }
      ],
      "stateMutability": "view",
      "type": "function"
    },
    {
      "inputs": [
        {
          "internalType": "uint256",
          "name": "",
          "type": "uint256"
        }
      ],
      "name": "publisherAddresses",
      "outputs": [
        {
          "internalType": "address",
          "name": "",
          "type": "address"
        }
      ],
      "stateMutability": "view",
      "type": "function"
    },
    {
      "inputs": [
        {
          "internalType": "address",
          "name": "",
          "type": "address"
        },
        {
          "internalType": "uint256",
          "name": "",
          "type": "uint256"
        }
      ],
      "name": "publisherArticles",
      "outputs": [
        {
          "internalType": "uint256",
          "name": "",
          "type": "uint256"
        }
      ],
      "stateMutability": "view",
      "type": "function"
    },
    {
      "inputs": [
        {
          "internalType": "address",
          "name": "",
          "type": "address"
        }
      ],
      "name": "publisherNames",
      "outputs": [
        {
          "internalType": "string",
          "name": "",
          "type": "string"
        }
      ],
      "stateMutability": "view",
      "type": "function"
    },
    {
      "inputs": [
        {
          "internalType": "address",
          "name": "",
          "type": "address"
        }
      ],
      "name": "publishers",
      "outputs": [
        {
          "internalType": "address",
          "name": "publisherID",
          "type": "address"
        },
        {
          "internalType": "uint256",
          "name": "registrationTimestamp",
          "type": "uint256"
        },
        {
          "internalType": "int256",
          "name": "reputationScore",
          "type": "int256"
        },
        {
          "internalType": "bool",
          "name": "isRegistered",
          "type": "bool"
        }
      ],
      "stateMutability": "view",
      "type": "function"
    },
    {
      "inputs": [
        {
          "internalType": "address",
          "name": "",
          "type": "address"
        }
      ],
      "name": "readers",
      "outputs": [
        {
          "internalType": "address",
          "name": "readerID",
          "type": "address"
        }
      ],
      "stateMutability": "view",
      "type": "function"
    },
    {
      "inputs": [
        {
          "internalType": "address",
          "name": "publisherAddress",
          "type": "address"
        },
        {
          "internalType": "string",
          "name": "name",
          "type": "string"
        }
      ],
      "name": "registerPublisher",
      "outputs": [],
      "stateMutability": "nonpayable",
      "type": "function"
    },
    {
      "inputs": [
        {
          "internalType": "uint256",
          "name": "articleId",
          "type": "uint256"
        }
      ],
      "name": "removeFromFavorites",
      "outputs": [],
      "stateMutability": "nonpayable",
      "type": "function"
    },
    {
      "inputs": [
        {
          "internalType": "bytes32",
          "name": "role",
          "type": "bytes32"
        },
        {
          "internalType": "address",
          "name": "callerConfirmation",
          "type": "address"
        }
      ],
      "name": "renounceRole",
      "outputs": [],
      "stateMutability": "nonpayable",
      "type": "function"
    },
    {
      "inputs": [
        {
          "internalType": "bytes32",
          "name": "role",
          "type": "bytes32"
        },
        {
          "internalType": "address",
          "name": "account",
          "type": "address"
        }
      ],
      "name": "revokeRole",
      "outputs": [],
      "stateMutability": "nonpayable",
      "type": "function"
    },
    {
      "inputs": [
        {
          "internalType": "string",
          "name": "title",
          "type": "string"
        },
        {
          "internalType": "string",
          "name": "content",
          "type": "string"
        }
      ],
      "name": "submitArticle",
      "outputs": [],
      "stateMutability": "nonpayable",
      "type": "function"
    },
    {
      "inputs": [
        {
          "internalType": "bytes4",
          "name": "interfaceId",
          "type": "bytes4"
        }
      ],
      "name": "supportsInterface",
      "outputs": [
        {
          "internalType": "bool",
          "name": "",
          "type": "bool"
        }
      ],
      "stateMutability": "view",
      "type": "function"
    },
    {
      "inputs": [
        {
          "internalType": "uint256",
          "name": "articleId",
          "type": "uint256"
        },
        {
          "internalType": "string",
          "name": "newTitle",
          "type": "string"
        },
        {
          "internalType": "string",
          "name": "newContent",
          "type": "string"
        }
      ],
      "name": "updateArticle",
      "outputs": [],
      "stateMutability": "nonpayable",
      "type": "function"
    },
    {
      "inputs": [
        {
          "internalType": "address",
          "name": "",
          "type": "address"
        },
        {
          "internalType": "uint256",
          "name": "",
          "type": "uint256"
        }
      ],
      "name": "userFavorites",
      "outputs": [
        {
          "internalType": "uint256",
          "name": "",
          "type": "uint256"
        }
      ],
      "stateMutability": "view",
      "type": "function"
    }
  ],
  "bytecode": "0x60806040523480156200001157600080fd5b50620000276000801b336200006160201b60201c565b506200005a7f0ac90c257048ef1c3e387c26d4a99bde06894efbcbff862dc1885c3a9319308a336200006160201b60201c565b50620001d6565b60006200007583836200016460201b60201c565b6200015957600160008085815260200190815260200160002060000160008473ffffffffffffffffffffffffffffffffffffffff1673ffffffffffffffffffffffffffffffffffffffff16815260200190815260200160002060006101000a81548160ff021916908315150217905550620000f5620001ce60201b60201c565b73ffffffffffffffffffffffffffffffffffffffff168273ffffffffffffffffffffffffffffffffffffffff16847f2f8788117e7eff1d82e926ec794901d17c78024a50270940304540a733656f0d60405160405180910390a4600190506200015e565b600090505b92915050565b600080600084815260200190815260200160002060000160008373ffffffffffffffffffffffffffffffffffffffff1673ffffffffffffffffffffffffffffffffffffffff16815260200190815260200160002060009054906101000a900460ff16905092915050565b600033905090565b6148f080620001e66000396000f3fe608060405234801561001057600080fd5b50600436106102115760003560e01c806391d1485411610125578063bd85d867116100ad578063d547741f1161007c578063d547741f146106c4578063d8f4b6fd146106e0578063d98fabc1146106fe578063edcfafe61461072e578063ffcd40f31461076257610211565b8063bd85d8671461062c578063c54f09301461065c578063c634b78e14610678578063c8eb09e81461069457610211565b8063a217fddf116100f4578063a217fddf14610574578063aa070fb514610592578063abb7ae5d146105c2578063b44d310b146105f2578063bb09a8b21461061057610211565b806391d14854146104c85780639201de55146104f85780639d8acb01146105285780639ec578d91461054457610211565b80632f2ff15d116101a85780634c96f281116101775780634c96f2811461041057806351e59ffb1461042e578063703fd07d1461045e57806373e4312d1461047c57806388670412146104ac57610211565b80632f2ff15d1461037357806336568abe1461038f57806341859ac8146103ab5780634bab5a46146103db57610211565b8063248a9ca3116101e4578063248a9ca3146102c757806324d7806c146102f757806325671a2f146103275780632738f28a1461034357610211565b806301ffc9a7146102165780630a4d85cd146102465780630fb5d9e9146102795780631df550f714610297575b600080fd5b610230600480360381019061022b9190613127565b610792565b60405161023d919061316f565b60405180910390f35b610260600480360381019061025b91906131e8565b61080c565b6040516102709493929190613256565b60405180910390f35b610281610869565b60405161028e91906134a2565b60405180910390f35b6102b160048036038101906102ac91906134f0565b6109b9565b6040516102be919061351d565b60405180910390f35b6102e160048036038101906102dc919061356e565b6109f8565b6040516102ee91906135aa565b60405180910390f35b610311600480360381019061030c91906131e8565b610a17565b60405161031e919061316f565b60405180910390f35b610341600480360381019061033c91906136fa565b610a2d565b005b61035d60048036038101906103589190613772565b610f22565b60405161036a91906134a2565b60405180910390f35b61038d600480360381019061038891906137bb565b610fe7565b005b6103a960048036038101906103a491906137bb565b611009565b005b6103c560048036038101906103c091906131e8565b611084565b6040516103d2919061316f565b60405180910390f35b6103f560048036038101906103f091906134f0565b6110b7565b60405161040796959493929190613845565b60405180910390f35b6104186112ab565b60405161042591906139dd565b60405180910390f35b610448600480360381019061044391906131e8565b611589565b604051610455919061351d565b60405180910390f35b6104666115c7565b6040516104739190613aae565b60405180910390f35b610496600480360381019061049191906131e8565b611673565b6040516104a391906134a2565b60405180910390f35b6104c660048036038101906104c19190613ad0565b611854565b005b6104e260048036038101906104dd91906137bb565b611d04565b6040516104ef919061316f565b60405180910390f35b610512600480360381019061050d919061356e565b611d6e565b60405161051f9190613b5b565b60405180910390f35b610542600480360381019061053d91906134f0565b611d97565b005b61055e600480360381019061055991906131e8565b611e59565b60405161056b9190613b5b565b60405180910390f35b61057c611ef9565b60405161058991906135aa565b60405180910390f35b6105ac60048036038101906105a79190613b7d565b611f00565b6040516105b99190613bbd565b60405180910390f35b6105dc60048036038101906105d791906134f0565b611f31565b6040516105e99190613bbd565b60405180910390f35b6105fa611f49565b60405161060791906134a2565b60405180910390f35b61062a60048036038101906106259190613bd8565b612007565b005b610646600480360381019061064191906134f0565b612316565b6040516106539190613ccb565b60405180910390f35b610676600480360381019061067191906134f0565b6125e7565b005b610692600480360381019061068d91906131e8565b6126ea565b005b6106ae60048036038101906106a99190613772565b612708565b6040516106bb919061351d565b60405180910390f35b6106de60048036038101906106d991906137bb565b612751565b005b6106e8612773565b6040516106f591906135aa565b60405180910390f35b61071860048036038101906107139190613b7d565b612797565b6040516107259190613bbd565b60405180910390f35b610748600480360381019061074391906134f0565b6127c8565b604051610759959493929190613ced565b60405180910390f35b61077c600480360381019061077791906134f0565b6129b6565b6040516107899190613eae565b60405180910390f35b60007f7965db0b000000000000000000000000000000000000000000000000000000007bffffffffffffffffffffffffffffffffffffffffffffffffffffffff1916827bffffffffffffffffffffffffffffffffffffffffffffffffffffffff19161480610805575061080482612d29565b5b9050919050565b60046020528060005260406000206000915090508060000160009054906101000a900473ffffffffffffffffffffffffffffffffffffffff16908060010154908060020154908060030160009054906101000a900460ff16905084565b60606000600b60003373ffffffffffffffffffffffffffffffffffffffff1673ffffffffffffffffffffffffffffffffffffffff1681526020019081526020016000208054806020026020016040519081016040528092919081815260200182805480156108f657602002820191906000526020600020905b8154815260200190600101908083116108e2575b505050505090506000815167ffffffffffffffff81111561091a576109196135cf565b5b60405190808252806020026020018201604052801561095357816020015b610940612fe3565b8152602001906001900390816109385790505b50905060005b82518110156109b05761098583828151811061097857610977613ed0565b5b6020026020010151612316565b82828151811061099857610997613ed0565b5b60200260200101819052508080600101915050610959565b50809250505090565b600981815481106109c957600080fd5b906000526020600020016000915054906101000a900473ffffffffffffffffffffffffffffffffffffffff1681565b6000806000838152602001908152602001600020600101549050919050565b6000610a266000801b83611d04565b9050919050565b610a577f0ac90c257048ef1c3e387c26d4a99bde06894efbcbff862dc1885c3a9319308a33611d04565b610a96576040517f08c379a0000000000000000000000000000000000000000000000000000000008152600401610a8d90613f4b565b60405180910390fd5b6000825111610ada576040517f08c379a0000000000000000000000000000000000000000000000000000000008152600401610ad190613fb7565b60405180910390fd5b6000815111610b1e576040517f08c379a0000000000000000000000000000000000000000000000000000000008152600401610b1590614023565b60405180910390fd5b60076000815480929190610b3190614072565b91905055506000600754905060008383604051602001610b529291906140f6565b60405160208183030381529060405280519060200120905083600260008481526020019081526020016000206000019081610b8d9190614326565b5082600260008481526020019081526020016000206001019081610bb19190614326565b50426002600084815260200190815260200160002060020181905550336002600084815260200190815260200160002060030160006101000a81548173ffffffffffffffffffffffffffffffffffffffff021916908373ffffffffffffffffffffffffffffffffffffffff160217905550610c2b81611d6e565b600260008481526020019081526020016000206004019081610c4d9190614326565b506000600190506040518060c00160405280828152602001610c6e84611d6e565b81526020013373ffffffffffffffffffffffffffffffffffffffff16815260200142815260200186815260200185815250600260008581526020019081526020016000206005016000838152602001908152602001600020600082015181600001556020820151816001019081610ce59190614326565b5060408201518160020160006101000a81548173ffffffffffffffffffffffffffffffffffffffff021916908373ffffffffffffffffffffffffffffffffffffffff160217905550606082015181600301556080820151816004019081610d4c9190614326565b5060a0820151816005019081610d629190614326565b50905050806008600085815260200190815260200160002081905550600560003373ffffffffffffffffffffffffffffffffffffffff1673ffffffffffffffffffffffffffffffffffffffff1681526020019081526020016000208390806001815401808255809150506001900390600052602060002001600090919091909150556040518060c001604052808481526020018681526020018581526020014281526020013373ffffffffffffffffffffffffffffffffffffffff168152602001610e2c84611d6e565b81525060036000858152602001908152602001600020600082015181600001556020820151816001019081610e619190614326565b506040820151816002019081610e779190614326565b506060820151816003015560808201518160040160006101000a81548173ffffffffffffffffffffffffffffffffffffffff021916908373ffffffffffffffffffffffffffffffffffffffff16021790555060a0820151816005019081610ede9190614326565b509050507ffed66fcccb5010b0b0fe3fb7f0e6027cc1255f582541976e061faa2b277ad3213384604051610f139291906143f8565b60405180910390a15050505050565b60606000600683604051610f369190614421565b908152602001604051809103902060009054906101000a900473ffffffffffffffffffffffffffffffffffffffff169050600073ffffffffffffffffffffffffffffffffffffffff168173ffffffffffffffffffffffffffffffffffffffff1603610fd6576040517f08c379a0000000000000000000000000000000000000000000000000000000008152600401610fcd90614484565b60405180910390fd5b610fdf81611673565b915050919050565b610ff0826109f8565b610ff981612d93565b6110038383612da7565b50505050565b611011612e98565b73ffffffffffffffffffffffffffffffffffffffff168173ffffffffffffffffffffffffffffffffffffffff1614611075576040517f6697b23200000000000000000000000000000000000000000000000000000000815260040160405180910390fd5b61107f8282612ea0565b505050565b60006110b07f0ac90c257048ef1c3e387c26d4a99bde06894efbcbff862dc1885c3a9319308a83611d04565b9050919050565b60036020528060005260406000206000915090508060000154908060010180546110e090614149565b80601f016020809104026020016040519081016040528092919081815260200182805461110c90614149565b80156111595780601f1061112e57610100808354040283529160200191611159565b820191906000526020600020905b81548152906001019060200180831161113c57829003601f168201915b50505050509080600201805461116e90614149565b80601f016020809104026020016040519081016040528092919081815260200182805461119a90614149565b80156111e75780601f106111bc576101008083540402835291602001916111e7565b820191906000526020600020905b8154815290600101906020018083116111ca57829003601f168201915b5050505050908060030154908060040160009054906101000a900473ffffffffffffffffffffffffffffffffffffffff169080600501805461122890614149565b80601f016020809104026020016040519081016040528092919081815260200182805461125490614149565b80156112a15780601f10611276576101008083540402835291602001916112a1565b820191906000526020600020905b81548152906001019060200180831161128457829003601f168201915b5050505050905086565b60606000805b600980549050811015611373576000600982815481106112d4576112d3613ed0565b5b9060005260206000200160009054906101000a900473ffffffffffffffffffffffffffffffffffffffff169050600460008273ffffffffffffffffffffffffffffffffffffffff1673ffffffffffffffffffffffffffffffffffffffff16815260200190815260200160002060030160009054906101000a900460ff161561136557828061136190614072565b9350505b5080806001019150506112b1565b5060008167ffffffffffffffff8111156113905761138f6135cf565b5b6040519080825280602002602001820160405280156113c957816020015b6113b661302f565b8152602001906001900390816113ae5790505b5090506000805b60098054905081101561157f576000600982815481106113f3576113f2613ed0565b5b9060005260206000200160009054906101000a900473ffffffffffffffffffffffffffffffffffffffff169050600460008273ffffffffffffffffffffffffffffffffffffffff1673ffffffffffffffffffffffffffffffffffffffff16815260200190815260200160002060030160009054906101000a900460ff161561157157600460008273ffffffffffffffffffffffffffffffffffffffff1673ffffffffffffffffffffffffffffffffffffffff1681526020019081526020016000206040518060800160405290816000820160009054906101000a900473ffffffffffffffffffffffffffffffffffffffff1673ffffffffffffffffffffffffffffffffffffffff1673ffffffffffffffffffffffffffffffffffffffff16815260200160018201548152602001600282015481526020016003820160009054906101000a900460ff16151515158152505084848151811061155757611556613ed0565b5b6020026020010181905250828061156d90614072565b9350505b5080806001019150506113d0565b5081935050505090565b600a6020528060005260406000206000915090508060000160009054906101000a900473ffffffffffffffffffffffffffffffffffffffff16905081565b60606000600754905060008167ffffffffffffffff8111156115ec576115eb6135cf565b5b60405190808252806020026020018201604052801561161a5781602001602082028036833780820191505090505b5090506000600190505b82811161166a57808260018361163a91906144a4565b8151811061164b5761164a613ed0565b5b602002602001018181525050808061166290614072565b915050611624565b50809250505090565b6060600460008373ffffffffffffffffffffffffffffffffffffffff1673ffffffffffffffffffffffffffffffffffffffff16815260200190815260200160002060030160009054906101000a900460ff16611704576040517f08c379a00000000000000000000000000000000000000000000000000000000081526004016116fb90614524565b60405180910390fd5b6000600560008473ffffffffffffffffffffffffffffffffffffffff1673ffffffffffffffffffffffffffffffffffffffff16815260200190815260200160002080548060200260200160405190810160405280929190818152602001828054801561178f57602002820191906000526020600020905b81548152602001906001019080831161177b575b505050505090506000815167ffffffffffffffff8111156117b3576117b26135cf565b5b6040519080825280602002602001820160405280156117ec57816020015b6117d9612fe3565b8152602001906001900390816117d15790505b50905060005b82518110156118495761181e83828151811061181157611810613ed0565b5b6020026020010151612316565b82828151811061183157611830613ed0565b5b602002602001018190525080806001019150506117f2565b508092505050919050565b60006002600085815260200190815260200160002060020154036118ad576040517f08c379a00000000000000000000000000000000000000000000000000000000081526004016118a490614590565b60405180910390fd5b6002600084815260200190815260200160002060030160009054906101000a900473ffffffffffffffffffffffffffffffffffffffff1673ffffffffffffffffffffffffffffffffffffffff163373ffffffffffffffffffffffffffffffffffffffff1614611951576040517f08c379a000000000000000000000000000000000000000000000000000000000815260040161194890614622565b60405180910390fd5b6000825111611995576040517f08c379a000000000000000000000000000000000000000000000000000000000815260040161198c9061468e565b60405180910390fd5b60008151116119d9576040517f08c379a00000000000000000000000000000000000000000000000000000000081526004016119d0906146fa565b60405180910390fd5b600082826040516020016119ee9291906140f6565b60405160208183030381529060405280519060200120905082600260008681526020019081526020016000206000019081611a299190614326565b5081600260008681526020019081526020016000206001019081611a4d9190614326565b50611a5781611d6e565b600260008681526020019081526020016000206004019081611a799190614326565b50600060016008600087815260200190815260200160002054611a9c919061471a565b90506040518060c00160405280828152602001611ab884611d6e565b81526020013373ffffffffffffffffffffffffffffffffffffffff16815260200142815260200185815260200184815250600260008781526020019081526020016000206005016000838152602001908152602001600020600082015181600001556020820151816001019081611b2f9190614326565b5060408201518160020160006101000a81548173ffffffffffffffffffffffffffffffffffffffff021916908373ffffffffffffffffffffffffffffffffffffffff160217905550606082015181600301556080820151816004019081611b969190614326565b5060a0820151816005019081611bac9190614326565b509050508060086000878152602001908152602001600020819055506040518060c001604052808681526020018581526020018481526020014281526020013373ffffffffffffffffffffffffffffffffffffffff168152602001611c1084611d6e565b81525060036000878152602001908152602001600020600082015181600001556020820151816001019081611c459190614326565b506040820151816002019081611c5b9190614326565b506060820151816003015560808201518160040160006101000a81548173ffffffffffffffffffffffffffffffffffffffff021916908373ffffffffffffffffffffffffffffffffffffffff16021790555060a0820151816005019081611cc29190614326565b509050507ffe914cbc4c239b4f97b05437e79aabedbfbd6eb5a9083f07348dc0df081e6c2a85604051611cf59190613bbd565b60405180910390a15050505050565b600080600084815260200190815260200160002060000160008373ffffffffffffffffffffffffffffffffffffffff1673ffffffffffffffffffffffffffffffffffffffff16815260200190815260200160002060009054906101000a900460ff16905092915050565b606081604051602001611d81919061476f565b6040516020818303038152906040529050919050565b6000600260008381526020019081526020016000206002015403611df0576040517f08c379a0000000000000000000000000000000000000000000000000000000008152600401611de790614590565b60405180910390fd5b600b60003373ffffffffffffffffffffffffffffffffffffffff1673ffffffffffffffffffffffffffffffffffffffff16815260200190815260200160002081908060018154018082558091505060019003906000526020600020016000909190919091505550565b60016020528060005260406000206000915090508054611e7890614149565b80601f0160208091040260200160405190810160405280929190818152602001828054611ea490614149565b8015611ef15780601f10611ec657610100808354040283529160200191611ef1565b820191906000526020600020905b815481529060010190602001808311611ed457829003601f168201915b505050505081565b6000801b81565b600b6020528160005260406000208181548110611f1c57600080fd5b90600052602060002001600091509150505481565b60086020528060005260406000206000915090505481565b60606000600754905060008167ffffffffffffffff811115611f6e57611f6d6135cf565b5b604051908082528060200260200182016040528015611fa757816020015b611f94612fe3565b815260200190600190039081611f8c5790505b5090506000600190505b828111611ffe57611fc181612316565b82600183611fcf91906144a4565b81518110611fe057611fdf613ed0565b5b60200260200101819052508080611ff690614072565b915050611fb1565b50809250505090565b6120146000801b33611d04565b612053576040517f08c379a000000000000000000000000000000000000000000000000000000000815260040161204a906147d6565b60405180910390fd5b600460008373ffffffffffffffffffffffffffffffffffffffff1673ffffffffffffffffffffffffffffffffffffffff16815260200190815260200160002060030160009054906101000a900460ff16156120e3576040517f08c379a00000000000000000000000000000000000000000000000000000000081526004016120da90614842565b60405180910390fd5b60405180608001604052808373ffffffffffffffffffffffffffffffffffffffff1681526020014281526020016000815260200160011515815250600460008473ffffffffffffffffffffffffffffffffffffffff1673ffffffffffffffffffffffffffffffffffffffff16815260200190815260200160002060008201518160000160006101000a81548173ffffffffffffffffffffffffffffffffffffffff021916908373ffffffffffffffffffffffffffffffffffffffff160217905550602082015181600101556040820151816002015560608201518160030160006101000a81548160ff0219169083151502179055509050506009829080600181540180825580915050600190039060005260206000200160009091909190916101000a81548173ffffffffffffffffffffffffffffffffffffffff021916908373ffffffffffffffffffffffffffffffffffffffff16021790555080600160008473ffffffffffffffffffffffffffffffffffffffff1673ffffffffffffffffffffffffffffffffffffffff168152602001908152602001600020908161228a9190614326565b508160068260405161229c9190614421565b908152602001604051809103902060006101000a81548173ffffffffffffffffffffffffffffffffffffffff021916908373ffffffffffffffffffffffffffffffffffffffff1602179055506123127f0ac90c257048ef1c3e387c26d4a99bde06894efbcbff862dc1885c3a9319308a83610fe7565b5050565b61231e612fe3565b6000600360008481526020019081526020016000206003015403612377576040517f08c379a000000000000000000000000000000000000000000000000000000000815260040161236e90614590565b60405180910390fd5b6040518060c001604052808381526020016003600085815260200190815260200160002060010180546123a990614149565b80601f01602080910402602001604051908101604052809291908181526020018280546123d590614149565b80156124225780601f106123f757610100808354040283529160200191612422565b820191906000526020600020905b81548152906001019060200180831161240557829003601f168201915b5050505050815260200160036000858152602001908152602001600020600201805461244d90614149565b80601f016020809104026020016040519081016040528092919081815260200182805461247990614149565b80156124c65780601f1061249b576101008083540402835291602001916124c6565b820191906000526020600020905b8154815290600101906020018083116124a957829003601f168201915b50505050508152602001600360008581526020019081526020016000206003015481526020016003600085815260200190815260200160002060040160009054906101000a900473ffffffffffffffffffffffffffffffffffffffff1673ffffffffffffffffffffffffffffffffffffffff16815260200160036000858152602001908152602001600020600501805461255f90614149565b80601f016020809104026020016040519081016040528092919081815260200182805461258b90614149565b80156125d85780601f106125ad576101008083540402835291602001916125d8565b820191906000526020600020905b8154815290600101906020018083116125bb57829003601f168201915b50505050508152509050919050565b6000600b60003373ffffffffffffffffffffffffffffffffffffffff1673ffffffffffffffffffffffffffffffffffffffff168152602001908152602001600020905060005b81805490508110156126e5578282828154811061264d5761264c613ed0565b5b9060005260206000200154036126d857816001838054905061266f91906144a4565b815481106126805761267f613ed0565b5b906000526020600020015482828154811061269e5761269d613ed0565b5b9060005260206000200181905550818054806126bd576126bc614862565b5b600190038181906000526020600020016000905590556126e5565b808060010191505061262d565b505050565b6000801b6126f781612d93565b6127046000801b83610fe7565b5050565b6006818051602081018201805184825260208301602085012081835280955050505050506000915054906101000a900473ffffffffffffffffffffffffffffffffffffffff1681565b61275a826109f8565b61276381612d93565b61276d8383612ea0565b50505050565b7f0ac90c257048ef1c3e387c26d4a99bde06894efbcbff862dc1885c3a9319308a81565b600560205281600052604060002081815481106127b357600080fd5b90600052602060002001600091509150505481565b60026020528060005260406000206000915090508060000180546127eb90614149565b80601f016020809104026020016040519081016040528092919081815260200182805461281790614149565b80156128645780601f1061283957610100808354040283529160200191612864565b820191906000526020600020905b81548152906001019060200180831161284757829003601f168201915b50505050509080600101805461287990614149565b80601f01602080910402602001604051908101604052809291908181526020018280546128a590614149565b80156128f25780601f106128c7576101008083540402835291602001916128f2565b820191906000526020600020905b8154815290600101906020018083116128d557829003601f168201915b5050505050908060020154908060030160009054906101000a900473ffffffffffffffffffffffffffffffffffffffff169080600401805461293390614149565b80601f016020809104026020016040519081016040528092919081815260200182805461295f90614149565b80156129ac5780601f10612981576101008083540402835291602001916129ac565b820191906000526020600020905b81548152906001019060200180831161298f57829003601f168201915b5050505050905085565b60606000600260008481526020019081526020016000206002015403612a11576040517f08c379a0000000000000000000000000000000000000000000000000000000008152600401612a0890614590565b60405180910390fd5b60006008600084815260200190815260200160002054905060008167ffffffffffffffff811115612a4557612a446135cf565b5b604051908082528060200260200182016040528015612a7e57816020015b612a6b61306f565b815260200190600190039081612a635790505b5090506000600190505b828111612d1e576002600086815260200190815260200160002060050160008281526020019081526020016000206040518060c001604052908160008201548152602001600182018054612adb90614149565b80601f0160208091040260200160405190810160405280929190818152602001828054612b0790614149565b8015612b545780601f10612b2957610100808354040283529160200191612b54565b820191906000526020600020905b815481529060010190602001808311612b3757829003601f168201915b505050505081526020016002820160009054906101000a900473ffffffffffffffffffffffffffffffffffffffff1673ffffffffffffffffffffffffffffffffffffffff1673ffffffffffffffffffffffffffffffffffffffff16815260200160038201548152602001600482018054612bcd90614149565b80601f0160208091040260200160405190810160405280929190818152602001828054612bf990614149565b8015612c465780601f10612c1b57610100808354040283529160200191612c46565b820191906000526020600020905b815481529060010190602001808311612c2957829003601f168201915b50505050508152602001600582018054612c5f90614149565b80601f0160208091040260200160405190810160405280929190818152602001828054612c8b90614149565b8015612cd85780601f10612cad57610100808354040283529160200191612cd8565b820191906000526020600020905b815481529060010190602001808311612cbb57829003601f168201915b50505050508152505082600183612cef91906144a4565b81518110612d0057612cff613ed0565b5b60200260200101819052508080612d1690614072565b915050612a88565b508092505050919050565b60007f01ffc9a7000000000000000000000000000000000000000000000000000000007bffffffffffffffffffffffffffffffffffffffffffffffffffffffff1916827bffffffffffffffffffffffffffffffffffffffffffffffffffffffff1916149050919050565b612da481612d9f612e98565b612f92565b50565b6000612db38383611d04565b612e8d57600160008085815260200190815260200160002060000160008473ffffffffffffffffffffffffffffffffffffffff1673ffffffffffffffffffffffffffffffffffffffff16815260200190815260200160002060006101000a81548160ff021916908315150217905550612e2a612e98565b73ffffffffffffffffffffffffffffffffffffffff168273ffffffffffffffffffffffffffffffffffffffff16847f2f8788117e7eff1d82e926ec794901d17c78024a50270940304540a733656f0d60405160405180910390a460019050612e92565b600090505b92915050565b600033905090565b6000612eac8383611d04565b15612f8757600080600085815260200190815260200160002060000160008473ffffffffffffffffffffffffffffffffffffffff1673ffffffffffffffffffffffffffffffffffffffff16815260200190815260200160002060006101000a81548160ff021916908315150217905550612f24612e98565b73ffffffffffffffffffffffffffffffffffffffff168273ffffffffffffffffffffffffffffffffffffffff16847ff6391f5c32d9c69d2a47ea670b442974b53935d1edc7fd64eb21e047a839171b60405160405180910390a460019050612f8c565b600090505b92915050565b612f9c8282611d04565b612fdf5780826040517fe2517d3f000000000000000000000000000000000000000000000000000000008152600401612fd6929190614891565b60405180910390fd5b5050565b6040518060c0016040528060008152602001606081526020016060815260200160008152602001600073ffffffffffffffffffffffffffffffffffffffff168152602001606081525090565b6040518060800160405280600073ffffffffffffffffffffffffffffffffffffffff16815260200160008152602001600081526020016000151581525090565b6040518060c001604052806000815260200160608152602001600073ffffffffffffffffffffffffffffffffffffffff1681526020016000815260200160608152602001606081525090565b6000604051905090565b600080fd5b600080fd5b60007fffffffff0000000000000000000000000000000000000000000000000000000082169050919050565b613104816130cf565b811461310f57600080fd5b50565b600081359050613121816130fb565b92915050565b60006020828403121561313d5761313c6130c5565b5b600061314b84828501613112565b91505092915050565b60008115159050919050565b61316981613154565b82525050565b60006020820190506131846000830184613160565b92915050565b600073ffffffffffffffffffffffffffffffffffffffff82169050919050565b60006131b58261318a565b9050919050565b6131c5816131aa565b81146131d057600080fd5b50565b6000813590506131e2816131bc565b92915050565b6000602082840312156131fe576131fd6130c5565b5b600061320c848285016131d3565b91505092915050565b61321e816131aa565b82525050565b6000819050919050565b61323781613224565b82525050565b6000819050919050565b6132508161323d565b82525050565b600060808201905061326b6000830187613215565b613278602083018661322e565b6132856040830185613247565b6132926060830184613160565b95945050505050565b600081519050919050565b600082825260208201905092915050565b6000819050602082019050919050565b6132d081613224565b82525050565b600081519050919050565b600082825260208201905092915050565b60005b838110156133105780820151818401526020810190506132f5565b60008484015250505050565b6000601f19601f8301169050919050565b6000613338826132d6565b61334281856132e1565b93506133528185602086016132f2565b61335b8161331c565b840191505092915050565b61336f816131aa565b82525050565b600060c08301600083015161338d60008601826132c7565b50602083015184820360208601526133a5828261332d565b915050604083015184820360408601526133bf828261332d565b91505060608301516133d460608601826132c7565b5060808301516133e76080860182613366565b5060a083015184820360a08601526133ff828261332d565b9150508091505092915050565b60006134188383613375565b905092915050565b6000602082019050919050565b60006134388261329b565b61344281856132a6565b935083602082028501613454856132b7565b8060005b858110156134905784840389528151613471858261340c565b945061347c83613420565b925060208a01995050600181019050613458565b50829750879550505050505092915050565b600060208201905081810360008301526134bc818461342d565b905092915050565b6134cd81613224565b81146134d857600080fd5b50565b6000813590506134ea816134c4565b92915050565b600060208284031215613506576135056130c5565b5b6000613514848285016134db565b91505092915050565b60006020820190506135326000830184613215565b92915050565b6000819050919050565b61354b81613538565b811461355657600080fd5b50565b60008135905061356881613542565b92915050565b600060208284031215613584576135836130c5565b5b600061359284828501613559565b91505092915050565b6135a481613538565b82525050565b60006020820190506135bf600083018461359b565b92915050565b600080fd5b600080fd5b7f4e487b7100000000000000000000000000000000000000000000000000000000600052604160045260246000fd5b6136078261331c565b810181811067ffffffffffffffff82111715613626576136256135cf565b5b80604052505050565b60006136396130bb565b905061364582826135fe565b919050565b600067ffffffffffffffff821115613665576136646135cf565b5b61366e8261331c565b9050602081019050919050565b82818337600083830152505050565b600061369d6136988461364a565b61362f565b9050828152602081018484840111156136b9576136b86135ca565b5b6136c484828561367b565b509392505050565b600082601f8301126136e1576136e06135c5565b5b81356136f184826020860161368a565b91505092915050565b60008060408385031215613711576137106130c5565b5b600083013567ffffffffffffffff81111561372f5761372e6130ca565b5b61373b858286016136cc565b925050602083013567ffffffffffffffff81111561375c5761375b6130ca565b5b613768858286016136cc565b9150509250929050565b600060208284031215613788576137876130c5565b5b600082013567ffffffffffffffff8111156137a6576137a56130ca565b5b6137b2848285016136cc565b91505092915050565b600080604083850312156137d2576137d16130c5565b5b60006137e085828601613559565b92505060206137f1858286016131d3565b9150509250929050565b600082825260208201905092915050565b6000613817826132d6565b61382181856137fb565b93506138318185602086016132f2565b61383a8161331c565b840191505092915050565b600060c08201905061385a600083018961322e565b818103602083015261386c818861380c565b90508181036040830152613880818761380c565b905061388f606083018661322e565b61389c6080830185613215565b81810360a08301526138ae818461380c565b9050979650505050505050565b600081519050919050565b600082825260208201905092915050565b6000819050602082019050919050565b6138f08161323d565b82525050565b6138ff81613154565b82525050565b60808201600082015161391b6000850182613366565b50602082015161392e60208501826132c7565b50604082015161394160408501826138e7565b50606082015161395460608501826138f6565b50505050565b60006139668383613905565b60808301905092915050565b6000602082019050919050565b600061398a826138bb565b61399481856138c6565b935061399f836138d7565b8060005b838110156139d05781516139b7888261395a565b97506139c283613972565b9250506001810190506139a3565b5085935050505092915050565b600060208201905081810360008301526139f7818461397f565b905092915050565b600081519050919050565b600082825260208201905092915050565b6000819050602082019050919050565b6000613a3783836132c7565b60208301905092915050565b6000602082019050919050565b6000613a5b826139ff565b613a658185613a0a565b9350613a7083613a1b565b8060005b83811015613aa1578151613a888882613a2b565b9750613a9383613a43565b925050600181019050613a74565b5085935050505092915050565b60006020820190508181036000830152613ac88184613a50565b905092915050565b600080600060608486031215613ae957613ae86130c5565b5b6000613af7868287016134db565b935050602084013567ffffffffffffffff811115613b1857613b176130ca565b5b613b24868287016136cc565b925050604084013567ffffffffffffffff811115613b4557613b446130ca565b5b613b51868287016136cc565b9150509250925092565b60006020820190508181036000830152613b75818461380c565b905092915050565b60008060408385031215613b9457613b936130c5565b5b6000613ba2858286016131d3565b9250506020613bb3858286016134db565b9150509250929050565b6000602082019050613bd2600083018461322e565b92915050565b60008060408385031215613bef57613bee6130c5565b5b6000613bfd858286016131d3565b925050602083013567ffffffffffffffff811115613c1e57613c1d6130ca565b5b613c2a858286016136cc565b9150509250929050565b600060c083016000830151613c4c60008601826132c7565b5060208301518482036020860152613c64828261332d565b91505060408301518482036040860152613c7e828261332d565b9150506060830151613c9360608601826132c7565b506080830151613ca66080860182613366565b5060a083015184820360a0860152613cbe828261332d565b9150508091505092915050565b60006020820190508181036000830152613ce58184613c34565b905092915050565b600060a0820190508181036000830152613d07818861380c565b90508181036020830152613d1b818761380c565b9050613d2a604083018661322e565b613d376060830185613215565b8181036080830152613d49818461380c565b90509695505050505050565b600081519050919050565b600082825260208201905092915050565b6000819050602082019050919050565b600060c083016000830151613d9960008601826132c7565b5060208301518482036020860152613db1828261332d565b9150506040830151613dc66040860182613366565b506060830151613dd960608601826132c7565b5060808301518482036080860152613df1828261332d565b91505060a083015184820360a0860152613e0b828261332d565b9150508091505092915050565b6000613e248383613d81565b905092915050565b6000602082019050919050565b6000613e4482613d55565b613e4e8185613d60565b935083602082028501613e6085613d71565b8060005b85811015613e9c5784840389528151613e7d8582613e18565b9450613e8883613e2c565b925060208a01995050600181019050613e64565b50829750879550505050505092915050565b60006020820190508181036000830152613ec88184613e39565b905092915050565b7f4e487b7100000000000000000000000000000000000000000000000000000000600052603260045260246000fd5b7f43616c6c6572206973206e6f742061207075626c697368657200000000000000600082015250565b6000613f356019836137fb565b9150613f4082613eff565b602082019050919050565b60006020820190508181036000830152613f6481613f28565b9050919050565b7f5469746c652063616e6e6f7420626520656d7074790000000000000000000000600082015250565b6000613fa16015836137fb565b9150613fac82613f6b565b602082019050919050565b60006020820190508181036000830152613fd081613f94565b9050919050565b7f436f6e74656e742063616e6e6f7420626520656d707479000000000000000000600082015250565b600061400d6017836137fb565b915061401882613fd7565b602082019050919050565b6000602082019050818103600083015261403c81614000565b9050919050565b7f4e487b7100000000000000000000000000000000000000000000000000000000600052601160045260246000fd5b600061407d82613224565b91507fffffffffffffffffffffffffffffffffffffffffffffffffffffffffffffffff82036140af576140ae614043565b5b600182019050919050565b600081905092915050565b60006140d0826132d6565b6140da81856140ba565b93506140ea8185602086016132f2565b80840191505092915050565b600061410282856140c5565b915061410e82846140c5565b91508190509392505050565b7f4e487b7100000000000000000000000000000000000000000000000000000000600052602260045260246000fd5b6000600282049050600182168061416157607f821691505b6020821081036141745761417361411a565b5b50919050565b60008190508160005260206000209050919050565b60006020601f8301049050919050565b600082821b905092915050565b6000600883026141dc7fffffffffffffffffffffffffffffffffffffffffffffffffffffffffffffffff8261419f565b6141e6868361419f565b95508019841693508086168417925050509392505050565b6000819050919050565b600061422361421e61421984613224565b6141fe565b613224565b9050919050565b6000819050919050565b61423d83614208565b6142516142498261422a565b8484546141ac565b825550505050565b600090565b614266614259565b614271818484614234565b505050565b5b818110156142955761428a60008261425e565b600181019050614277565b5050565b601f8211156142da576142ab8161417a565b6142b48461418f565b810160208510156142c3578190505b6142d76142cf8561418f565b830182614276565b50505b505050565b600082821c905092915050565b60006142fd600019846008026142df565b1980831691505092915050565b600061431683836142ec565b9150826002028217905092915050565b61432f826132d6565b67ffffffffffffffff811115614348576143476135cf565b5b6143528254614149565b61435d828285614299565b600060209050601f831160018114614390576000841561437e578287015190505b614388858261430a565b8655506143f0565b601f19841661439e8661417a565b60005b828110156143c6578489015182556001820191506020850194506020810190506143a1565b868310156143e357848901516143df601f8916826142ec565b8355505b6001600288020188555050505b505050505050565b600060408201905061440d6000830185613215565b61441a602083018461322e565b9392505050565b600061442d82846140c5565b915081905092915050565b7f5075626c6973686572206e6f7420666f756e6400000000000000000000000000600082015250565b600061446e6013836137fb565b915061447982614438565b602082019050919050565b6000602082019050818103600083015261449d81614461565b9050919050565b60006144af82613224565b91506144ba83613224565b92508282039050818111156144d2576144d1614043565b5b92915050565b7f5075626c6973686572206e6f7420726567697374657265640000000000000000600082015250565b600061450e6018836137fb565b9150614519826144d8565b602082019050919050565b6000602082019050818103600083015261453d81614501565b9050919050565b7f41727469636c6520646f6573206e6f7420657869737400000000000000000000600082015250565b600061457a6016836137fb565b915061458582614544565b602082019050919050565b600060208201905081810360008301526145a98161456d565b9050919050565b7f4f6e6c7920746865207075626c69736865722063616e2075706461746520746860008201527f652061727469636c650000000000000000000000000000000000000000000000602082015250565b600061460c6029836137fb565b9150614617826145b0565b604082019050919050565b6000602082019050818103600083015261463b816145ff565b9050919050565b7f4e6577207469746c652063616e6e6f7420626520656d70747900000000000000600082015250565b60006146786019836137fb565b915061468382614642565b602082019050919050565b600060208201905081810360008301526146a78161466b565b9050919050565b7f4e657720636f6e74656e742063616e6e6f7420626520656d7074790000000000600082015250565b60006146e4601b836137fb565b91506146ef826146ae565b602082019050919050565b60006020820190508181036000830152614713816146d7565b9050919050565b600061472582613224565b915061473083613224565b925082820190508082111561474857614747614043565b5b92915050565b6000819050919050565b61476961476482613538565b61474e565b82525050565b600061477b8284614758565b60208201915081905092915050565b7f43616c6c6572206973206e6f7420616e2061646d696e00000000000000000000600082015250565b60006147c06016836137fb565b91506147cb8261478a565b602082019050919050565b600060208201905081810360008301526147ef816147b3565b9050919050565b7f5075626c697368657220616c7265616479207265676973746572656400000000600082015250565b600061482c601c836137fb565b9150614837826147f6565b602082019050919050565b6000602082019050818103600083015261485b8161481f565b9050919050565b7f4e487b7100000000000000000000000000000000000000000000000000000000600052603160045260246000fd5b60006040820190506148a66000830185613215565b6148b3602083018461359b565b939250505056fea2646970667358221220bd2e637eb56c5fc8ff3924463764ed38f5e55fdb940b0e4fb523f0a6d500410964736f6c63430008180033",
  "linkReferences": {},
  "deployedLinkReferences": {}
}