{
  "_format": "hh-sol-artifact-1",
  "contractName": "NewsPlatform",
  "sourceName": "contracts/NewsPlatform.sol",
  "abi": [
    {
      "inputs": [],
      "stateMutability": "nonpayable",
      "type": "constructor"
    },
    {
      "inputs": [],
      "name": "AccessControlBadConfirmation",
      "type": "error"
    },
    {
      "inputs": [
        {
          "internalType": "address",
          "name": "account",
          "type": "address"
        },
        {
          "internalType": "bytes32",
          "name": "neededRole",
          "type": "bytes32"
        }
      ],
      "name": "AccessControlUnauthorizedAccount",
      "type": "error"
    },
    {
      "anonymous": false,
      "inputs": [
        {
          "indexed": true,
          "internalType": "bytes32",
          "name": "role",
          "type": "bytes32"
        },
        {
          "indexed": true,
          "internalType": "bytes32",
          "name": "previousAdminRole",
          "type": "bytes32"
        },
        {
          "indexed": true,
          "internalType": "bytes32",
          "name": "newAdminRole",
          "type": "bytes32"
        }
      ],
      "name": "RoleAdminChanged",
      "type": "event"
    },
    {
      "anonymous": false,
      "inputs": [
        {
          "indexed": true,
          "internalType": "bytes32",
          "name": "role",
          "type": "bytes32"
        },
        {
          "indexed": true,
          "internalType": "address",
          "name": "account",
          "type": "address"
        },
        {
          "indexed": true,
          "internalType": "address",
          "name": "sender",
          "type": "address"
        }
      ],
      "name": "RoleGranted",
      "type": "event"
    },
    {
      "anonymous": false,
      "inputs": [
        {
          "indexed": true,
          "internalType": "bytes32",
          "name": "role",
          "type": "bytes32"
        },
        {
          "indexed": true,
          "internalType": "address",
          "name": "account",
          "type": "address"
        },
        {
          "indexed": true,
          "internalType": "address",
          "name": "sender",
          "type": "address"
        }
      ],
      "name": "RoleRevoked",
      "type": "event"
    },
    {
      "inputs": [],
      "name": "DEFAULT_ADMIN_ROLE",
      "outputs": [
        {
          "internalType": "bytes32",
          "name": "",
          "type": "bytes32"
        }
      ],
      "stateMutability": "view",
      "type": "function"
    },
    {
      "inputs": [],
      "name": "PUBLISHER_ROLE",
      "outputs": [
        {
          "internalType": "bytes32",
          "name": "",
          "type": "bytes32"
        }
      ],
      "stateMutability": "view",
      "type": "function"
    },
    {
      "inputs": [
        {
          "internalType": "uint256",
          "name": "articleId",
          "type": "uint256"
        }
      ],
      "name": "addToFavorites",
      "outputs": [],
      "stateMutability": "nonpayable",
      "type": "function"
    },
    {
      "inputs": [
        {
          "internalType": "uint256",
          "name": "",
          "type": "uint256"
        }
      ],
      "name": "articleVersionCounts",
      "outputs": [
        {
          "internalType": "uint256",
          "name": "",
          "type": "uint256"
        }
      ],
      "stateMutability": "view",
      "type": "function"
    },
    {
      "inputs": [
        {
          "internalType": "uint256",
          "name": "",
          "type": "uint256"
        }
      ],
      "name": "articleVersionless",
      "outputs": [
        {
          "internalType": "uint256",
          "name": "id",
          "type": "uint256"
        },
        {
          "internalType": "string",
          "name": "title",
          "type": "string"
        },
        {
          "internalType": "string",
          "name": "content",
          "type": "string"
        },
        {
          "internalType": "uint256",
          "name": "timestamp",
          "type": "uint256"
        },
        {
          "internalType": "address",
          "name": "publisherID",
          "type": "address"
        },
        {
          "internalType": "string",
          "name": "articleHash",
          "type": "string"
        }
      ],
      "stateMutability": "view",
      "type": "function"
    },
    {
      "inputs": [
        {
          "internalType": "uint256",
          "name": "",
          "type": "uint256"
        }
      ],
      "name": "articles",
      "outputs": [
        {
          "internalType": "string",
          "name": "title",
          "type": "string"
        },
        {
          "internalType": "string",
          "name": "content",
          "type": "string"
        },
        {
          "internalType": "uint256",
          "name": "timestamp",
          "type": "uint256"
        },
        {
          "internalType": "address",
          "name": "publisherID",
          "type": "address"
        },
        {
          "internalType": "string",
          "name": "articleHash",
          "type": "string"
        }
      ],
      "stateMutability": "view",
      "type": "function"
    },
    {
      "inputs": [
        {
          "internalType": "bytes32",
          "name": "_bytes32",
          "type": "bytes32"
        }
      ],
      "name": "bytes32ToString",
      "outputs": [
        {
          "internalType": "string",
          "name": "",
          "type": "string"
        }
      ],
      "stateMutability": "pure",
      "type": "function"
    },
    {
      "inputs": [],
      "name": "getAllArticleIds",
      "outputs": [
        {
          "internalType": "uint256[]",
          "name": "",
          "type": "uint256[]"
        }
      ],
      "stateMutability": "view",
      "type": "function"
    },
    {
      "inputs": [],
      "name": "getAllArticles",
      "outputs": [
        {
          "components": [
            {
              "internalType": "uint256",
              "name": "id",
              "type": "uint256"
            },
            {
              "internalType": "string",
              "name": "title",
              "type": "string"
            },
            {
              "internalType": "string",
              "name": "content",
              "type": "string"
            },
            {
              "internalType": "uint256",
              "name": "timestamp",
              "type": "uint256"
            },
            {
              "internalType": "address",
              "name": "publisherID",
              "type": "address"
            },
            {
              "internalType": "string",
              "name": "articleHash",
              "type": "string"
            }
          ],
          "internalType": "struct NewsPlatform.ArticleWithID[]",
          "name": "",
          "type": "tuple[]"
        }
      ],
      "stateMutability": "view",
      "type": "function"
    },
    {
      "inputs": [],
      "name": "getAllPublishers",
      "outputs": [
        {
          "components": [
            {
              "internalType": "address",
              "name": "publisherID",
              "type": "address"
            },
            {
              "internalType": "uint256",
              "name": "registrationTimestamp",
              "type": "uint256"
            },
            {
              "internalType": "int256",
              "name": "reputationScore",
              "type": "int256"
            },
            {
              "internalType": "bool",
              "name": "isRegistered",
              "type": "bool"
            }
          ],
          "internalType": "struct NewsPlatform.Publisher[]",
          "name": "",
          "type": "tuple[]"
        }
      ],
      "stateMutability": "view",
      "type": "function"
    },
    {
      "inputs": [
        {
          "internalType": "uint256",
          "name": "articleId",
          "type": "uint256"
        }
      ],
      "name": "getArticle",
      "outputs": [
        {
          "components": [
            {
              "internalType": "uint256",
              "name": "id",
              "type": "uint256"
            },
            {
              "internalType": "string",
              "name": "title",
              "type": "string"
            },
            {
              "internalType": "string",
              "name": "content",
              "type": "string"
            },
            {
              "internalType": "uint256",
              "name": "timestamp",
              "type": "uint256"
            },
            {
              "internalType": "address",
              "name": "publisherID",
              "type": "address"
            },
            {
              "internalType": "string",
              "name": "articleHash",
              "type": "string"
            }
          ],
          "internalType": "struct NewsPlatform.ArticleWithID",
          "name": "",
          "type": "tuple"
        }
      ],
      "stateMutability": "view",
      "type": "function"
    },
    {
      "inputs": [
        {
          "internalType": "uint256",
          "name": "articleId",
          "type": "uint256"
        }
      ],
      "name": "getArticleHistory",
      "outputs": [
        {
          "components": [
            {
              "internalType": "uint256",
              "name": "versionNumber",
              "type": "uint256"
            },
            {
              "internalType": "string",
              "name": "articleHash",
              "type": "string"
            },
            {
              "internalType": "address",
              "name": "editorID",
              "type": "address"
            },
            {
              "internalType": "uint256",
              "name": "editTimestamp",
              "type": "uint256"
            },
            {
              "internalType": "string",
              "name": "title",
              "type": "string"
            },
            {
              "internalType": "string",
              "name": "content",
              "type": "string"
            }
          ],
          "internalType": "struct NewsPlatform.ArticleVersion[]",
          "name": "",
          "type": "tuple[]"
        }
      ],
      "stateMutability": "view",
      "type": "function"
    },
    {
      "inputs": [
        {
          "internalType": "string",
          "name": "name",
          "type": "string"
        }
      ],
      "name": "getArticlesByName",
      "outputs": [
        {
          "components": [
            {
              "internalType": "uint256",
              "name": "id",
              "type": "uint256"
            },
            {
              "internalType": "string",
              "name": "title",
              "type": "string"
            },
            {
              "internalType": "string",
              "name": "content",
              "type": "string"
            },
            {
              "internalType": "uint256",
              "name": "timestamp",
              "type": "uint256"
            },
            {
              "internalType": "address",
              "name": "publisherID",
              "type": "address"
            },
            {
              "internalType": "string",
              "name": "articleHash",
              "type": "string"
            }
          ],
          "internalType": "struct NewsPlatform.ArticlewithOutVersion[]",
          "name": "",
          "type": "tuple[]"
        }
      ],
      "stateMutability": "view",
      "type": "function"
    },
    {
      "inputs": [
        {
          "internalType": "address",
          "name": "publisherAddress",
          "type": "address"
        }
      ],
      "name": "getArticlesByPublisher",
      "outputs": [
        {
          "components": [
            {
              "internalType": "uint256",
              "name": "id",
              "type": "uint256"
            },
            {
              "internalType": "string",
              "name": "title",
              "type": "string"
            },
            {
              "internalType": "string",
              "name": "content",
              "type": "string"
            },
            {
              "internalType": "uint256",
              "name": "timestamp",
              "type": "uint256"
            },
            {
              "internalType": "address",
              "name": "publisherID",
              "type": "address"
            },
            {
              "internalType": "string",
              "name": "articleHash",
              "type": "string"
            }
          ],
          "internalType": "struct NewsPlatform.ArticlewithOutVersion[]",
          "name": "",
          "type": "tuple[]"
        }
      ],
      "stateMutability": "view",
      "type": "function"
    },
    {
      "inputs": [],
      "name": "getFavorites",
      "outputs": [
        {
          "components": [
            {
              "internalType": "uint256",
              "name": "id",
              "type": "uint256"
            },
            {
              "internalType": "string",
              "name": "title",
              "type": "string"
            },
            {
              "internalType": "string",
              "name": "content",
              "type": "string"
            },
            {
              "internalType": "uint256",
              "name": "timestamp",
              "type": "uint256"
            },
            {
              "internalType": "address",
              "name": "publisherID",
              "type": "address"
            },
            {
              "internalType": "string",
              "name": "articleHash",
              "type": "string"
            }
          ],
          "internalType": "struct NewsPlatform.ArticleWithID[]",
          "name": "",
          "type": "tuple[]"
        }
      ],
      "stateMutability": "view",
      "type": "function"
    },
    {
      "inputs": [
        {
          "internalType": "bytes32",
          "name": "role",
          "type": "bytes32"
        }
      ],
      "name": "getRoleAdmin",
      "outputs": [
        {
          "internalType": "bytes32",
          "name": "",
          "type": "bytes32"
        }
      ],
      "stateMutability": "view",
      "type": "function"
    },
    {
      "inputs": [
        {
          "internalType": "address",
          "name": "newAdmin",
          "type": "address"
        }
      ],
      "name": "grantAdminRole",
      "outputs": [],
      "stateMutability": "nonpayable",
      "type": "function"
    },
    {
      "inputs": [
        {
          "internalType": "bytes32",
          "name": "role",
          "type": "bytes32"
        },
        {
          "internalType": "address",
          "name": "account",
          "type": "address"
        }
      ],
      "name": "grantRole",
      "outputs": [],
      "stateMutability": "nonpayable",
      "type": "function"
    },
    {
      "inputs": [
        {
          "internalType": "bytes32",
          "name": "role",
          "type": "bytes32"
        },
        {
          "internalType": "address",
          "name": "account",
          "type": "address"
        }
      ],
      "name": "hasRole",
      "outputs": [
        {
          "internalType": "bool",
          "name": "",
          "type": "bool"
        }
      ],
      "stateMutability": "view",
      "type": "function"
    },
    {
      "inputs": [
        {
          "internalType": "address",
          "name": "user",
          "type": "address"
        }
      ],
      "name": "isAdmin",
      "outputs": [
        {
          "internalType": "bool",
          "name": "",
          "type": "bool"
        }
      ],
      "stateMutability": "view",
      "type": "function"
    },
    {
      "inputs": [
        {
          "internalType": "address",
          "name": "user",
          "type": "address"
        }
      ],
      "name": "isPublisher",
      "outputs": [
        {
          "internalType": "bool",
          "name": "",
          "type": "bool"
        }
      ],
      "stateMutability": "view",
      "type": "function"
    },
    {
      "inputs": [
        {
          "internalType": "string",
          "name": "",
          "type": "string"
        }
      ],
      "name": "nameToPublisherAddress",
      "outputs": [
        {
          "internalType": "address",
          "name": "",
          "type": "address"
        }
      ],
      "stateMutability": "view",
      "type": "function"
    },
    {
      "inputs": [
        {
          "internalType": "uint256",
          "name": "",
          "type": "uint256"
        }
      ],
      "name": "publisherAddresses",
      "outputs": [
        {
          "internalType": "address",
          "name": "",
          "type": "address"
        }
      ],
      "stateMutability": "view",
      "type": "function"
    },
    {
      "inputs": [
        {
          "internalType": "address",
          "name": "",
          "type": "address"
        },
        {
          "internalType": "uint256",
          "name": "",
          "type": "uint256"
        }
      ],
      "name": "publisherArticles",
      "outputs": [
        {
          "internalType": "uint256",
          "name": "",
          "type": "uint256"
        }
      ],
      "stateMutability": "view",
      "type": "function"
    },
    {
      "inputs": [
        {
          "internalType": "address",
          "name": "",
          "type": "address"
        }
      ],
      "name": "publisherNames",
      "outputs": [
        {
          "internalType": "string",
          "name": "",
          "type": "string"
        }
      ],
      "stateMutability": "view",
      "type": "function"
    },
    {
      "inputs": [
        {
          "internalType": "address",
          "name": "",
          "type": "address"
        }
      ],
      "name": "publishers",
      "outputs": [
        {
          "internalType": "address",
          "name": "publisherID",
          "type": "address"
        },
        {
          "internalType": "uint256",
          "name": "registrationTimestamp",
          "type": "uint256"
        },
        {
          "internalType": "int256",
          "name": "reputationScore",
          "type": "int256"
        },
        {
          "internalType": "bool",
          "name": "isRegistered",
          "type": "bool"
        }
      ],
      "stateMutability": "view",
      "type": "function"
    },
    {
      "inputs": [
        {
          "internalType": "address",
          "name": "",
          "type": "address"
        }
      ],
      "name": "readers",
      "outputs": [
        {
          "internalType": "address",
          "name": "readerID",
          "type": "address"
        }
      ],
      "stateMutability": "view",
      "type": "function"
    },
    {
      "inputs": [
        {
          "internalType": "address",
          "name": "publisherAddress",
          "type": "address"
        },
        {
          "internalType": "string",
          "name": "name",
          "type": "string"
        }
      ],
      "name": "registerPublisher",
      "outputs": [],
      "stateMutability": "nonpayable",
      "type": "function"
    },
    {
      "inputs": [
        {
          "internalType": "uint256",
          "name": "articleId",
          "type": "uint256"
        }
      ],
      "name": "removeFromFavorites",
      "outputs": [],
      "stateMutability": "nonpayable",
      "type": "function"
    },
    {
      "inputs": [
        {
          "internalType": "bytes32",
          "name": "role",
          "type": "bytes32"
        },
        {
          "internalType": "address",
          "name": "callerConfirmation",
          "type": "address"
        }
      ],
      "name": "renounceRole",
      "outputs": [],
      "stateMutability": "nonpayable",
      "type": "function"
    },
    {
      "inputs": [
        {
          "internalType": "bytes32",
          "name": "role",
          "type": "bytes32"
        },
        {
          "internalType": "address",
          "name": "account",
          "type": "address"
        }
      ],
      "name": "revokeRole",
      "outputs": [],
      "stateMutability": "nonpayable",
      "type": "function"
    },
    {
      "inputs": [
        {
          "internalType": "string",
          "name": "title",
          "type": "string"
        },
        {
          "internalType": "string",
          "name": "content",
          "type": "string"
        }
      ],
      "name": "submitArticle",
      "outputs": [],
      "stateMutability": "nonpayable",
      "type": "function"
    },
    {
      "inputs": [
        {
          "internalType": "bytes4",
          "name": "interfaceId",
          "type": "bytes4"
        }
      ],
      "name": "supportsInterface",
      "outputs": [
        {
          "internalType": "bool",
          "name": "",
          "type": "bool"
        }
      ],
      "stateMutability": "view",
      "type": "function"
    },
    {
      "inputs": [
        {
          "internalType": "uint256",
          "name": "articleId",
          "type": "uint256"
        },
        {
          "internalType": "string",
          "name": "newTitle",
          "type": "string"
        },
        {
          "internalType": "string",
          "name": "newContent",
          "type": "string"
        }
      ],
      "name": "updateArticle",
      "outputs": [],
      "stateMutability": "nonpayable",
      "type": "function"
    },
    {
      "inputs": [
        {
          "internalType": "address",
          "name": "",
          "type": "address"
        },
        {
          "internalType": "uint256",
          "name": "",
          "type": "uint256"
        }
      ],
      "name": "userFavorites",
      "outputs": [
        {
          "internalType": "uint256",
          "name": "",
          "type": "uint256"
        }
      ],
      "stateMutability": "view",
      "type": "function"
    }
  ],
  "bytecode": "0x60806040523480156200001157600080fd5b50620000276000801b336200006160201b60201c565b506200005a7f0ac90c257048ef1c3e387c26d4a99bde06894efbcbff862dc1885c3a9319308a336200006160201b60201c565b50620001d6565b60006200007583836200016460201b60201c565b6200015957600160008085815260200190815260200160002060000160008473ffffffffffffffffffffffffffffffffffffffff1673ffffffffffffffffffffffffffffffffffffffff16815260200190815260200160002060006101000a81548160ff021916908315150217905550620000f5620001ce60201b60201c565b73ffffffffffffffffffffffffffffffffffffffff168273ffffffffffffffffffffffffffffffffffffffff16847f2f8788117e7eff1d82e926ec794901d17c78024a50270940304540a733656f0d60405160405180910390a4600190506200015e565b600090505b92915050565b600080600084815260200190815260200160002060000160008373ffffffffffffffffffffffffffffffffffffffff1673ffffffffffffffffffffffffffffffffffffffff16815260200190815260200160002060009054906101000a900460ff16905092915050565b600033905090565b614c7580620001e66000396000f3fe608060405234801561001057600080fd5b50600436106102115760003560e01c806391d1485411610125578063bd85d867116100ad578063d547741f1161007c578063d547741f146106c4578063d8f4b6fd146106e0578063d98fabc1146106fe578063edcfafe61461072e578063ffcd40f31461076257610211565b8063bd85d8671461062c578063c54f09301461065c578063c634b78e14610678578063c8eb09e81461069457610211565b8063a217fddf116100f4578063a217fddf14610574578063aa070fb514610592578063abb7ae5d146105c2578063b44d310b146105f2578063bb09a8b21461061057610211565b806391d14854146104c85780639201de55146104f85780639d8acb01146105285780639ec578d91461054457610211565b80632f2ff15d116101a85780634c96f281116101775780634c96f2811461041057806351e59ffb1461042e578063703fd07d1461045e57806373e4312d1461047c57806388670412146104ac57610211565b80632f2ff15d1461037357806336568abe1461038f57806341859ac8146103ab5780634bab5a46146103db57610211565b8063248a9ca3116101e4578063248a9ca3146102c757806324d7806c146102f757806325671a2f146103275780632738f28a1461034357610211565b806301ffc9a7146102165780630a4d85cd146102465780630fb5d9e9146102795780631df550f714610297575b600080fd5b610230600480360381019061022b919061335a565b610792565b60405161023d91906133a2565b60405180910390f35b610260600480360381019061025b919061341b565b61080c565b6040516102709493929190613489565b60405180910390f35b610281610869565b60405161028e91906136d5565b60405180910390f35b6102b160048036038101906102ac9190613723565b6109b9565b6040516102be9190613750565b60405180910390f35b6102e160048036038101906102dc91906137a1565b6109f8565b6040516102ee91906137dd565b60405180910390f35b610311600480360381019061030c919061341b565b610a17565b60405161031e91906133a2565b60405180910390f35b610341600480360381019061033c919061392d565b610a2d565b005b61035d600480360381019061035891906139a5565b610ee9565b60405161036a9190613b47565b60405180910390f35b61038d60048036038101906103889190613b69565b610fae565b005b6103a960048036038101906103a49190613b69565b610fd0565b005b6103c560048036038101906103c0919061341b565b61104b565b6040516103d291906133a2565b60405180910390f35b6103f560048036038101906103f09190613723565b61107e565b60405161040796959493929190613bf3565b60405180910390f35b610418611272565b6040516104259190613d8b565b60405180910390f35b6104486004803603810190610443919061341b565b611550565b6040516104559190613750565b60405180910390f35b61046661158e565b6040516104739190613e5c565b60405180910390f35b6104966004803603810190610491919061341b565b61163a565b6040516104a39190613b47565b60405180910390f35b6104c660048036038101906104c19190613e7e565b611b70565b005b6104e260048036038101906104dd9190613b69565b611eeb565b6040516104ef91906133a2565b60405180910390f35b610512600480360381019061050d91906137a1565b611f55565b60405161051f9190613f09565b60405180910390f35b610542600480360381019061053d9190613723565b611f7e565b005b61055e6004803603810190610559919061341b565b612040565b60405161056b9190613f09565b60405180910390f35b61057c6120e0565b60405161058991906137dd565b60405180910390f35b6105ac60048036038101906105a79190613f2b565b6120e7565b6040516105b99190613f6b565b60405180910390f35b6105dc60048036038101906105d79190613723565b612118565b6040516105e99190613f6b565b60405180910390f35b6105fa612130565b60405161060791906136d5565b60405180910390f35b61062a60048036038101906106259190613f86565b6121ee565b005b61064660048036038101906106419190613723565b6124fd565b6040516106539190614079565b60405180910390f35b61067660048036038101906106719190613723565b6127ce565b005b610692600480360381019061068d919061341b565b6128d1565b005b6106ae60048036038101906106a991906139a5565b6128ef565b6040516106bb9190613750565b60405180910390f35b6106de60048036038101906106d99190613b69565b612938565b005b6106e861295a565b6040516106f591906137dd565b60405180910390f35b61071860048036038101906107139190613f2b565b61297e565b6040516107259190613f6b565b60405180910390f35b61074860048036038101906107439190613723565b6129af565b60405161075995949392919061409b565b60405180910390f35b61077c60048036038101906107779190613723565b612b9d565b604051610789919061425c565b60405180910390f35b60007f7965db0b000000000000000000000000000000000000000000000000000000007bffffffffffffffffffffffffffffffffffffffffffffffffffffffff1916827bffffffffffffffffffffffffffffffffffffffffffffffffffffffff19161480610805575061080482612f10565b5b9050919050565b60056020528060005260406000206000915090508060000160009054906101000a900473ffffffffffffffffffffffffffffffffffffffff16908060010154908060020154908060030160009054906101000a900460ff16905084565b60606000600b60003373ffffffffffffffffffffffffffffffffffffffff1673ffffffffffffffffffffffffffffffffffffffff1681526020019081526020016000208054806020026020016040519081016040528092919081815260200182805480156108f657602002820191906000526020600020905b8154815260200190600101908083116108e2575b505050505090506000815167ffffffffffffffff81111561091a57610919613802565b5b60405190808252806020026020018201604052801561095357816020015b6109406131ca565b8152602001906001900390816109385790505b50905060005b82518110156109b0576109858382815181106109785761097761427e565b5b60200260200101516124fd565b8282815181106109985761099761427e565b5b60200260200101819052508080600101915050610959565b50809250505090565b600181815481106109c957600080fd5b906000526020600020016000915054906101000a900473ffffffffffffffffffffffffffffffffffffffff1681565b6000806000838152602001908152602001600020600101549050919050565b6000610a266000801b83611eeb565b9050919050565b610a577f0ac90c257048ef1c3e387c26d4a99bde06894efbcbff862dc1885c3a9319308a33611eeb565b610a96576040517f08c379a0000000000000000000000000000000000000000000000000000000008152600401610a8d906142f9565b60405180910390fd5b6000825111610ada576040517f08c379a0000000000000000000000000000000000000000000000000000000008152600401610ad190614365565b60405180910390fd5b6000815111610b1e576040517f08c379a0000000000000000000000000000000000000000000000000000000008152600401610b15906143d1565b60405180910390fd5b60096000815480929190610b3190614420565b91905055506000600954905060008383604051602001610b529291906144a4565b60405160208183030381529060405280519060200120905083600360008481526020019081526020016000206000019081610b8d91906146d4565b5082600360008481526020019081526020016000206001019081610bb191906146d4565b50426003600084815260200190815260200160002060020181905550336003600084815260200190815260200160002060030160006101000a81548173ffffffffffffffffffffffffffffffffffffffff021916908373ffffffffffffffffffffffffffffffffffffffff160217905550610c2b81611f55565b600360008481526020019081526020016000206004019081610c4d91906146d4565b506000600190506040518060c00160405280828152602001610c6e84611f55565b81526020013373ffffffffffffffffffffffffffffffffffffffff16815260200142815260200186815260200185815250600360008581526020019081526020016000206005016000838152602001908152602001600020600082015181600001556020820151816001019081610ce591906146d4565b5060408201518160020160006101000a81548173ffffffffffffffffffffffffffffffffffffffff021916908373ffffffffffffffffffffffffffffffffffffffff160217905550606082015181600301556080820151816004019081610d4c91906146d4565b5060a0820151816005019081610d6291906146d4565b5090505080600a600085815260200190815260200160002081905550600660003373ffffffffffffffffffffffffffffffffffffffff1673ffffffffffffffffffffffffffffffffffffffff1681526020019081526020016000208390806001815401808255809150506001900390600052602060002001600090919091909150556040518060c001604052808481526020018681526020018581526020014281526020013373ffffffffffffffffffffffffffffffffffffffff168152602001610e2c84611f55565b81525060046000858152602001908152602001600020600082015181600001556020820151816001019081610e6191906146d4565b506040820151816002019081610e7791906146d4565b506060820151816003015560808201518160040160006101000a81548173ffffffffffffffffffffffffffffffffffffffff021916908373ffffffffffffffffffffffffffffffffffffffff16021790555060a0820151816005019081610ede91906146d4565b509050505050505050565b60606000600783604051610efd91906147a6565b908152602001604051809103902060009054906101000a900473ffffffffffffffffffffffffffffffffffffffff169050600073ffffffffffffffffffffffffffffffffffffffff168173ffffffffffffffffffffffffffffffffffffffff1603610f9d576040517f08c379a0000000000000000000000000000000000000000000000000000000008152600401610f9490614809565b60405180910390fd5b610fa68161163a565b915050919050565b610fb7826109f8565b610fc081612f7a565b610fca8383612f8e565b50505050565b610fd861307f565b73ffffffffffffffffffffffffffffffffffffffff168173ffffffffffffffffffffffffffffffffffffffff161461103c576040517f6697b23200000000000000000000000000000000000000000000000000000000815260040160405180910390fd5b6110468282613087565b505050565b60006110777f0ac90c257048ef1c3e387c26d4a99bde06894efbcbff862dc1885c3a9319308a83611eeb565b9050919050565b60046020528060005260406000206000915090508060000154908060010180546110a7906144f7565b80601f01602080910402602001604051908101604052809291908181526020018280546110d3906144f7565b80156111205780601f106110f557610100808354040283529160200191611120565b820191906000526020600020905b81548152906001019060200180831161110357829003601f168201915b505050505090806002018054611135906144f7565b80601f0160208091040260200160405190810160405280929190818152602001828054611161906144f7565b80156111ae5780601f10611183576101008083540402835291602001916111ae565b820191906000526020600020905b81548152906001019060200180831161119157829003601f168201915b5050505050908060030154908060040160009054906101000a900473ffffffffffffffffffffffffffffffffffffffff16908060050180546111ef906144f7565b80601f016020809104026020016040519081016040528092919081815260200182805461121b906144f7565b80156112685780601f1061123d57610100808354040283529160200191611268565b820191906000526020600020905b81548152906001019060200180831161124b57829003601f168201915b5050505050905086565b60606000805b60018054905081101561133a5760006001828154811061129b5761129a61427e565b5b9060005260206000200160009054906101000a900473ffffffffffffffffffffffffffffffffffffffff169050600560008273ffffffffffffffffffffffffffffffffffffffff1673ffffffffffffffffffffffffffffffffffffffff16815260200190815260200160002060030160009054906101000a900460ff161561132c57828061132890614420565b9350505b508080600101915050611278565b5060008167ffffffffffffffff81111561135757611356613802565b5b60405190808252806020026020018201604052801561139057816020015b61137d613216565b8152602001906001900390816113755790505b5090506000805b600180549050811015611546576000600182815481106113ba576113b961427e565b5b9060005260206000200160009054906101000a900473ffffffffffffffffffffffffffffffffffffffff169050600560008273ffffffffffffffffffffffffffffffffffffffff1673ffffffffffffffffffffffffffffffffffffffff16815260200190815260200160002060030160009054906101000a900460ff161561153857600560008273ffffffffffffffffffffffffffffffffffffffff1673ffffffffffffffffffffffffffffffffffffffff1681526020019081526020016000206040518060800160405290816000820160009054906101000a900473ffffffffffffffffffffffffffffffffffffffff1673ffffffffffffffffffffffffffffffffffffffff1673ffffffffffffffffffffffffffffffffffffffff16815260200160018201548152602001600282015481526020016003820160009054906101000a900460ff16151515158152505084848151811061151e5761151d61427e565b5b6020026020010181905250828061153490614420565b9350505b508080600101915050611397565b5081935050505090565b60086020528060005260406000206000915090508060000160009054906101000a900473ffffffffffffffffffffffffffffffffffffffff16905081565b60606000600954905060008167ffffffffffffffff8111156115b3576115b2613802565b5b6040519080825280602002602001820160405280156115e15781602001602082028036833780820191505090505b5090506000600190505b8281116116315780826001836116019190614829565b815181106116125761161161427e565b5b602002602001018181525050808061162990614420565b9150506115eb565b50809250505090565b6060600560008373ffffffffffffffffffffffffffffffffffffffff1673ffffffffffffffffffffffffffffffffffffffff16815260200190815260200160002060030160009054906101000a900460ff166116cb576040517f08c379a00000000000000000000000000000000000000000000000000000000081526004016116c2906148a9565b60405180910390fd5b6000600660008473ffffffffffffffffffffffffffffffffffffffff1673ffffffffffffffffffffffffffffffffffffffff16815260200190815260200160002080548060200260200160405190810160405280929190818152602001828054801561175657602002820191906000526020600020905b815481526020019060010190808311611742575b505050505090506000815167ffffffffffffffff81111561177a57611779613802565b5b6040519080825280602002602001820160405280156117b357816020015b6117a0613256565b8152602001906001900390816117985790505b50905060005b8251811015611b65576000600360008584815181106117db576117da61427e565b5b602002602001015181526020019081526020016000206002015403611835576040517f08c379a000000000000000000000000000000000000000000000000000000000815260040161182c90614915565b60405180910390fd5b6040518060c001604052808483815181106118535761185261427e565b5b60200260200101518152602001600360008685815181106118775761187661427e565b5b60200260200101518152602001908152602001600020600001805461189b906144f7565b80601f01602080910402602001604051908101604052809291908181526020018280546118c7906144f7565b80156119145780601f106118e957610100808354040283529160200191611914565b820191906000526020600020905b8154815290600101906020018083116118f757829003601f168201915b50505050508152602001600360008685815181106119355761193461427e565b5b602002602001015181526020019081526020016000206001018054611959906144f7565b80601f0160208091040260200160405190810160405280929190818152602001828054611985906144f7565b80156119d25780601f106119a7576101008083540402835291602001916119d2565b820191906000526020600020905b8154815290600101906020018083116119b557829003601f168201915b50505050508152602001600360008685815181106119f3576119f261427e565b5b6020026020010151815260200190815260200160002060020154815260200160036000868581518110611a2957611a2861427e565b5b6020026020010151815260200190815260200160002060030160009054906101000a900473ffffffffffffffffffffffffffffffffffffffff1673ffffffffffffffffffffffffffffffffffffffff16815260200160036000868581518110611a9557611a9461427e565b5b602002602001015181526020019081526020016000206004018054611ab9906144f7565b80601f0160208091040260200160405190810160405280929190818152602001828054611ae5906144f7565b8015611b325780601f10611b0757610100808354040283529160200191611b32565b820191906000526020600020905b815481529060010190602001808311611b1557829003601f168201915b5050505050815250828281518110611b4d57611b4c61427e565b5b602002602001018190525080806001019150506117b9565b508092505050919050565b6000600360008581526020019081526020016000206002015403611bc9576040517f08c379a0000000000000000000000000000000000000000000000000000000008152600401611bc090614915565b60405180910390fd5b6003600084815260200190815260200160002060030160009054906101000a900473ffffffffffffffffffffffffffffffffffffffff1673ffffffffffffffffffffffffffffffffffffffff163373ffffffffffffffffffffffffffffffffffffffff1614611c6d576040517f08c379a0000000000000000000000000000000000000000000000000000000008152600401611c64906149a7565b60405180910390fd5b6000825111611cb1576040517f08c379a0000000000000000000000000000000000000000000000000000000008152600401611ca890614a13565b60405180910390fd5b6000815111611cf5576040517f08c379a0000000000000000000000000000000000000000000000000000000008152600401611cec90614a7f565b60405180910390fd5b60008282604051602001611d0a9291906144a4565b60405160208183030381529060405280519060200120905082600360008681526020019081526020016000206000019081611d4591906146d4565b5081600360008681526020019081526020016000206001019081611d6991906146d4565b50611d7381611f55565b600360008681526020019081526020016000206004019081611d9591906146d4565b5060006001600a600087815260200190815260200160002054611db89190614a9f565b90506040518060c00160405280828152602001611dd484611f55565b81526020013373ffffffffffffffffffffffffffffffffffffffff16815260200142815260200185815260200184815250600360008781526020019081526020016000206005016000838152602001908152602001600020600082015181600001556020820151816001019081611e4b91906146d4565b5060408201518160020160006101000a81548173ffffffffffffffffffffffffffffffffffffffff021916908373ffffffffffffffffffffffffffffffffffffffff160217905550606082015181600301556080820151816004019081611eb291906146d4565b5060a0820151816005019081611ec891906146d4565b5090505080600a6000878152602001908152602001600020819055505050505050565b600080600084815260200190815260200160002060000160008373ffffffffffffffffffffffffffffffffffffffff1673ffffffffffffffffffffffffffffffffffffffff16815260200190815260200160002060009054906101000a900460ff16905092915050565b606081604051602001611f689190614af4565b6040516020818303038152906040529050919050565b6000600360008381526020019081526020016000206002015403611fd7576040517f08c379a0000000000000000000000000000000000000000000000000000000008152600401611fce90614915565b60405180910390fd5b600b60003373ffffffffffffffffffffffffffffffffffffffff1673ffffffffffffffffffffffffffffffffffffffff16815260200190815260200160002081908060018154018082558091505060019003906000526020600020016000909190919091505550565b6002602052806000526040600020600091509050805461205f906144f7565b80601f016020809104026020016040519081016040528092919081815260200182805461208b906144f7565b80156120d85780601f106120ad576101008083540402835291602001916120d8565b820191906000526020600020905b8154815290600101906020018083116120bb57829003601f168201915b505050505081565b6000801b81565b600b602052816000526040600020818154811061210357600080fd5b90600052602060002001600091509150505481565b600a6020528060005260406000206000915090505481565b60606000600954905060008167ffffffffffffffff81111561215557612154613802565b5b60405190808252806020026020018201604052801561218e57816020015b61217b6131ca565b8152602001906001900390816121735790505b5090506000600190505b8281116121e5576121a8816124fd565b826001836121b69190614829565b815181106121c7576121c661427e565b5b602002602001018190525080806121dd90614420565b915050612198565b50809250505090565b6121fb6000801b33611eeb565b61223a576040517f08c379a000000000000000000000000000000000000000000000000000000000815260040161223190614b5b565b60405180910390fd5b600560008373ffffffffffffffffffffffffffffffffffffffff1673ffffffffffffffffffffffffffffffffffffffff16815260200190815260200160002060030160009054906101000a900460ff16156122ca576040517f08c379a00000000000000000000000000000000000000000000000000000000081526004016122c190614bc7565b60405180910390fd5b60405180608001604052808373ffffffffffffffffffffffffffffffffffffffff1681526020014281526020016000815260200160011515815250600560008473ffffffffffffffffffffffffffffffffffffffff1673ffffffffffffffffffffffffffffffffffffffff16815260200190815260200160002060008201518160000160006101000a81548173ffffffffffffffffffffffffffffffffffffffff021916908373ffffffffffffffffffffffffffffffffffffffff160217905550602082015181600101556040820151816002015560608201518160030160006101000a81548160ff0219169083151502179055509050506001829080600181540180825580915050600190039060005260206000200160009091909190916101000a81548173ffffffffffffffffffffffffffffffffffffffff021916908373ffffffffffffffffffffffffffffffffffffffff16021790555080600260008473ffffffffffffffffffffffffffffffffffffffff1673ffffffffffffffffffffffffffffffffffffffff168152602001908152602001600020908161247191906146d4565b508160078260405161248391906147a6565b908152602001604051809103902060006101000a81548173ffffffffffffffffffffffffffffffffffffffff021916908373ffffffffffffffffffffffffffffffffffffffff1602179055506124f97f0ac90c257048ef1c3e387c26d4a99bde06894efbcbff862dc1885c3a9319308a83610fae565b5050565b6125056131ca565b600060046000848152602001908152602001600020600301540361255e576040517f08c379a000000000000000000000000000000000000000000000000000000000815260040161255590614915565b60405180910390fd5b6040518060c00160405280838152602001600460008581526020019081526020016000206001018054612590906144f7565b80601f01602080910402602001604051908101604052809291908181526020018280546125bc906144f7565b80156126095780601f106125de57610100808354040283529160200191612609565b820191906000526020600020905b8154815290600101906020018083116125ec57829003601f168201915b50505050508152602001600460008581526020019081526020016000206002018054612634906144f7565b80601f0160208091040260200160405190810160405280929190818152602001828054612660906144f7565b80156126ad5780601f10612682576101008083540402835291602001916126ad565b820191906000526020600020905b81548152906001019060200180831161269057829003601f168201915b50505050508152602001600460008581526020019081526020016000206003015481526020016004600085815260200190815260200160002060040160009054906101000a900473ffffffffffffffffffffffffffffffffffffffff1673ffffffffffffffffffffffffffffffffffffffff168152602001600460008581526020019081526020016000206005018054612746906144f7565b80601f0160208091040260200160405190810160405280929190818152602001828054612772906144f7565b80156127bf5780601f10612794576101008083540402835291602001916127bf565b820191906000526020600020905b8154815290600101906020018083116127a257829003601f168201915b50505050508152509050919050565b6000600b60003373ffffffffffffffffffffffffffffffffffffffff1673ffffffffffffffffffffffffffffffffffffffff168152602001908152602001600020905060005b81805490508110156128cc57828282815481106128345761283361427e565b5b9060005260206000200154036128bf5781600183805490506128569190614829565b815481106128675761286661427e565b5b90600052602060002001548282815481106128855761288461427e565b5b9060005260206000200181905550818054806128a4576128a3614be7565b5b600190038181906000526020600020016000905590556128cc565b8080600101915050612814565b505050565b6000801b6128de81612f7a565b6128eb6000801b83610fae565b5050565b6007818051602081018201805184825260208301602085012081835280955050505050506000915054906101000a900473ffffffffffffffffffffffffffffffffffffffff1681565b612941826109f8565b61294a81612f7a565b6129548383613087565b50505050565b7f0ac90c257048ef1c3e387c26d4a99bde06894efbcbff862dc1885c3a9319308a81565b6006602052816000526040600020818154811061299a57600080fd5b90600052602060002001600091509150505481565b60036020528060005260406000206000915090508060000180546129d2906144f7565b80601f01602080910402602001604051908101604052809291908181526020018280546129fe906144f7565b8015612a4b5780601f10612a2057610100808354040283529160200191612a4b565b820191906000526020600020905b815481529060010190602001808311612a2e57829003601f168201915b505050505090806001018054612a60906144f7565b80601f0160208091040260200160405190810160405280929190818152602001828054612a8c906144f7565b8015612ad95780601f10612aae57610100808354040283529160200191612ad9565b820191906000526020600020905b815481529060010190602001808311612abc57829003601f168201915b5050505050908060020154908060030160009054906101000a900473ffffffffffffffffffffffffffffffffffffffff1690806004018054612b1a906144f7565b80601f0160208091040260200160405190810160405280929190818152602001828054612b46906144f7565b8015612b935780601f10612b6857610100808354040283529160200191612b93565b820191906000526020600020905b815481529060010190602001808311612b7657829003601f168201915b5050505050905085565b60606000600360008481526020019081526020016000206002015403612bf8576040517f08c379a0000000000000000000000000000000000000000000000000000000008152600401612bef90614915565b60405180910390fd5b6000600a600084815260200190815260200160002054905060008167ffffffffffffffff811115612c2c57612c2b613802565b5b604051908082528060200260200182016040528015612c6557816020015b612c526132a2565b815260200190600190039081612c4a5790505b5090506000600190505b828111612f05576003600086815260200190815260200160002060050160008281526020019081526020016000206040518060c001604052908160008201548152602001600182018054612cc2906144f7565b80601f0160208091040260200160405190810160405280929190818152602001828054612cee906144f7565b8015612d3b5780601f10612d1057610100808354040283529160200191612d3b565b820191906000526020600020905b815481529060010190602001808311612d1e57829003601f168201915b505050505081526020016002820160009054906101000a900473ffffffffffffffffffffffffffffffffffffffff1673ffffffffffffffffffffffffffffffffffffffff1673ffffffffffffffffffffffffffffffffffffffff16815260200160038201548152602001600482018054612db4906144f7565b80601f0160208091040260200160405190810160405280929190818152602001828054612de0906144f7565b8015612e2d5780601f10612e0257610100808354040283529160200191612e2d565b820191906000526020600020905b815481529060010190602001808311612e1057829003601f168201915b50505050508152602001600582018054612e46906144f7565b80601f0160208091040260200160405190810160405280929190818152602001828054612e72906144f7565b8015612ebf5780601f10612e9457610100808354040283529160200191612ebf565b820191906000526020600020905b815481529060010190602001808311612ea257829003601f168201915b50505050508152505082600183612ed69190614829565b81518110612ee757612ee661427e565b5b60200260200101819052508080612efd90614420565b915050612c6f565b508092505050919050565b60007f01ffc9a7000000000000000000000000000000000000000000000000000000007bffffffffffffffffffffffffffffffffffffffffffffffffffffffff1916827bffffffffffffffffffffffffffffffffffffffffffffffffffffffff1916149050919050565b612f8b81612f8661307f565b613179565b50565b6000612f9a8383611eeb565b61307457600160008085815260200190815260200160002060000160008473ffffffffffffffffffffffffffffffffffffffff1673ffffffffffffffffffffffffffffffffffffffff16815260200190815260200160002060006101000a81548160ff02191690831515021790555061301161307f565b73ffffffffffffffffffffffffffffffffffffffff168273ffffffffffffffffffffffffffffffffffffffff16847f2f8788117e7eff1d82e926ec794901d17c78024a50270940304540a733656f0d60405160405180910390a460019050613079565b600090505b92915050565b600033905090565b60006130938383611eeb565b1561316e57600080600085815260200190815260200160002060000160008473ffffffffffffffffffffffffffffffffffffffff1673ffffffffffffffffffffffffffffffffffffffff16815260200190815260200160002060006101000a81548160ff02191690831515021790555061310b61307f565b73ffffffffffffffffffffffffffffffffffffffff168273ffffffffffffffffffffffffffffffffffffffff16847ff6391f5c32d9c69d2a47ea670b442974b53935d1edc7fd64eb21e047a839171b60405160405180910390a460019050613173565b600090505b92915050565b6131838282611eeb565b6131c65780826040517fe2517d3f0000000000000000000000000000000000000000000000000000000081526004016131bd929190614c16565b60405180910390fd5b5050565b6040518060c0016040528060008152602001606081526020016060815260200160008152602001600073ffffffffffffffffffffffffffffffffffffffff168152602001606081525090565b6040518060800160405280600073ffffffffffffffffffffffffffffffffffffffff16815260200160008152602001600081526020016000151581525090565b6040518060c0016040528060008152602001606081526020016060815260200160008152602001600073ffffffffffffffffffffffffffffffffffffffff168152602001606081525090565b6040518060c001604052806000815260200160608152602001600073ffffffffffffffffffffffffffffffffffffffff1681526020016000815260200160608152602001606081525090565b6000604051905090565b600080fd5b600080fd5b60007fffffffff0000000000000000000000000000000000000000000000000000000082169050919050565b61333781613302565b811461334257600080fd5b50565b6000813590506133548161332e565b92915050565b6000602082840312156133705761336f6132f8565b5b600061337e84828501613345565b91505092915050565b60008115159050919050565b61339c81613387565b82525050565b60006020820190506133b76000830184613393565b92915050565b600073ffffffffffffffffffffffffffffffffffffffff82169050919050565b60006133e8826133bd565b9050919050565b6133f8816133dd565b811461340357600080fd5b50565b600081359050613415816133ef565b92915050565b600060208284031215613431576134306132f8565b5b600061343f84828501613406565b91505092915050565b613451816133dd565b82525050565b6000819050919050565b61346a81613457565b82525050565b6000819050919050565b61348381613470565b82525050565b600060808201905061349e6000830187613448565b6134ab6020830186613461565b6134b8604083018561347a565b6134c56060830184613393565b95945050505050565b600081519050919050565b600082825260208201905092915050565b6000819050602082019050919050565b61350381613457565b82525050565b600081519050919050565b600082825260208201905092915050565b60005b83811015613543578082015181840152602081019050613528565b60008484015250505050565b6000601f19601f8301169050919050565b600061356b82613509565b6135758185613514565b9350613585818560208601613525565b61358e8161354f565b840191505092915050565b6135a2816133dd565b82525050565b600060c0830160008301516135c060008601826134fa565b50602083015184820360208601526135d88282613560565b915050604083015184820360408601526135f28282613560565b915050606083015161360760608601826134fa565b50608083015161361a6080860182613599565b5060a083015184820360a08601526136328282613560565b9150508091505092915050565b600061364b83836135a8565b905092915050565b6000602082019050919050565b600061366b826134ce565b61367581856134d9565b935083602082028501613687856134ea565b8060005b858110156136c357848403895281516136a4858261363f565b94506136af83613653565b925060208a0199505060018101905061368b565b50829750879550505050505092915050565b600060208201905081810360008301526136ef8184613660565b905092915050565b61370081613457565b811461370b57600080fd5b50565b60008135905061371d816136f7565b92915050565b600060208284031215613739576137386132f8565b5b60006137478482850161370e565b91505092915050565b60006020820190506137656000830184613448565b92915050565b6000819050919050565b61377e8161376b565b811461378957600080fd5b50565b60008135905061379b81613775565b92915050565b6000602082840312156137b7576137b66132f8565b5b60006137c58482850161378c565b91505092915050565b6137d78161376b565b82525050565b60006020820190506137f260008301846137ce565b92915050565b600080fd5b600080fd5b7f4e487b7100000000000000000000000000000000000000000000000000000000600052604160045260246000fd5b61383a8261354f565b810181811067ffffffffffffffff8211171561385957613858613802565b5b80604052505050565b600061386c6132ee565b90506138788282613831565b919050565b600067ffffffffffffffff82111561389857613897613802565b5b6138a18261354f565b9050602081019050919050565b82818337600083830152505050565b60006138d06138cb8461387d565b613862565b9050828152602081018484840111156138ec576138eb6137fd565b5b6138f78482856138ae565b509392505050565b600082601f830112613914576139136137f8565b5b81356139248482602086016138bd565b91505092915050565b60008060408385031215613944576139436132f8565b5b600083013567ffffffffffffffff811115613962576139616132fd565b5b61396e858286016138ff565b925050602083013567ffffffffffffffff81111561398f5761398e6132fd565b5b61399b858286016138ff565b9150509250929050565b6000602082840312156139bb576139ba6132f8565b5b600082013567ffffffffffffffff8111156139d9576139d86132fd565b5b6139e5848285016138ff565b91505092915050565b600081519050919050565b600082825260208201905092915050565b6000819050602082019050919050565b600060c083016000830151613a3260008601826134fa565b5060208301518482036020860152613a4a8282613560565b91505060408301518482036040860152613a648282613560565b9150506060830151613a7960608601826134fa565b506080830151613a8c6080860182613599565b5060a083015184820360a0860152613aa48282613560565b9150508091505092915050565b6000613abd8383613a1a565b905092915050565b6000602082019050919050565b6000613add826139ee565b613ae781856139f9565b935083602082028501613af985613a0a565b8060005b85811015613b355784840389528151613b168582613ab1565b9450613b2183613ac5565b925060208a01995050600181019050613afd565b50829750879550505050505092915050565b60006020820190508181036000830152613b618184613ad2565b905092915050565b60008060408385031215613b8057613b7f6132f8565b5b6000613b8e8582860161378c565b9250506020613b9f85828601613406565b9150509250929050565b600082825260208201905092915050565b6000613bc582613509565b613bcf8185613ba9565b9350613bdf818560208601613525565b613be88161354f565b840191505092915050565b600060c082019050613c086000830189613461565b8181036020830152613c1a8188613bba565b90508181036040830152613c2e8187613bba565b9050613c3d6060830186613461565b613c4a6080830185613448565b81810360a0830152613c5c8184613bba565b9050979650505050505050565b600081519050919050565b600082825260208201905092915050565b6000819050602082019050919050565b613c9e81613470565b82525050565b613cad81613387565b82525050565b608082016000820151613cc96000850182613599565b506020820151613cdc60208501826134fa565b506040820151613cef6040850182613c95565b506060820151613d026060850182613ca4565b50505050565b6000613d148383613cb3565b60808301905092915050565b6000602082019050919050565b6000613d3882613c69565b613d428185613c74565b9350613d4d83613c85565b8060005b83811015613d7e578151613d658882613d08565b9750613d7083613d20565b925050600181019050613d51565b5085935050505092915050565b60006020820190508181036000830152613da58184613d2d565b905092915050565b600081519050919050565b600082825260208201905092915050565b6000819050602082019050919050565b6000613de583836134fa565b60208301905092915050565b6000602082019050919050565b6000613e0982613dad565b613e138185613db8565b9350613e1e83613dc9565b8060005b83811015613e4f578151613e368882613dd9565b9750613e4183613df1565b925050600181019050613e22565b5085935050505092915050565b60006020820190508181036000830152613e768184613dfe565b905092915050565b600080600060608486031215613e9757613e966132f8565b5b6000613ea58682870161370e565b935050602084013567ffffffffffffffff811115613ec657613ec56132fd565b5b613ed2868287016138ff565b925050604084013567ffffffffffffffff811115613ef357613ef26132fd565b5b613eff868287016138ff565b9150509250925092565b60006020820190508181036000830152613f238184613bba565b905092915050565b60008060408385031215613f4257613f416132f8565b5b6000613f5085828601613406565b9250506020613f618582860161370e565b9150509250929050565b6000602082019050613f806000830184613461565b92915050565b60008060408385031215613f9d57613f9c6132f8565b5b6000613fab85828601613406565b925050602083013567ffffffffffffffff811115613fcc57613fcb6132fd565b5b613fd8858286016138ff565b9150509250929050565b600060c083016000830151613ffa60008601826134fa565b50602083015184820360208601526140128282613560565b9150506040830151848203604086015261402c8282613560565b915050606083015161404160608601826134fa565b5060808301516140546080860182613599565b5060a083015184820360a086015261406c8282613560565b9150508091505092915050565b600060208201905081810360008301526140938184613fe2565b905092915050565b600060a08201905081810360008301526140b58188613bba565b905081810360208301526140c98187613bba565b90506140d86040830186613461565b6140e56060830185613448565b81810360808301526140f78184613bba565b90509695505050505050565b600081519050919050565b600082825260208201905092915050565b6000819050602082019050919050565b600060c08301600083015161414760008601826134fa565b506020830151848203602086015261415f8282613560565b91505060408301516141746040860182613599565b50606083015161418760608601826134fa565b506080830151848203608086015261419f8282613560565b91505060a083015184820360a08601526141b98282613560565b9150508091505092915050565b60006141d2838361412f565b905092915050565b6000602082019050919050565b60006141f282614103565b6141fc818561410e565b93508360208202850161420e8561411f565b8060005b8581101561424a578484038952815161422b85826141c6565b9450614236836141da565b925060208a01995050600181019050614212565b50829750879550505050505092915050565b6000602082019050818103600083015261427681846141e7565b905092915050565b7f4e487b7100000000000000000000000000000000000000000000000000000000600052603260045260246000fd5b7f43616c6c6572206973206e6f742061207075626c697368657200000000000000600082015250565b60006142e3601983613ba9565b91506142ee826142ad565b602082019050919050565b60006020820190508181036000830152614312816142d6565b9050919050565b7f5469746c652063616e6e6f7420626520656d7074790000000000000000000000600082015250565b600061434f601583613ba9565b915061435a82614319565b602082019050919050565b6000602082019050818103600083015261437e81614342565b9050919050565b7f436f6e74656e742063616e6e6f7420626520656d707479000000000000000000600082015250565b60006143bb601783613ba9565b91506143c682614385565b602082019050919050565b600060208201905081810360008301526143ea816143ae565b9050919050565b7f4e487b7100000000000000000000000000000000000000000000000000000000600052601160045260246000fd5b600061442b82613457565b91507fffffffffffffffffffffffffffffffffffffffffffffffffffffffffffffffff820361445d5761445c6143f1565b5b600182019050919050565b600081905092915050565b600061447e82613509565b6144888185614468565b9350614498818560208601613525565b80840191505092915050565b60006144b08285614473565b91506144bc8284614473565b91508190509392505050565b7f4e487b7100000000000000000000000000000000000000000000000000000000600052602260045260246000fd5b6000600282049050600182168061450f57607f821691505b602082108103614522576145216144c8565b5b50919050565b60008190508160005260206000209050919050565b60006020601f8301049050919050565b600082821b905092915050565b60006008830261458a7fffffffffffffffffffffffffffffffffffffffffffffffffffffffffffffffff8261454d565b614594868361454d565b95508019841693508086168417925050509392505050565b6000819050919050565b60006145d16145cc6145c784613457565b6145ac565b613457565b9050919050565b6000819050919050565b6145eb836145b6565b6145ff6145f7826145d8565b84845461455a565b825550505050565b600090565b614614614607565b61461f8184846145e2565b505050565b5b818110156146435761463860008261460c565b600181019050614625565b5050565b601f8211156146885761465981614528565b6146628461453d565b81016020851015614671578190505b61468561467d8561453d565b830182614624565b50505b505050565b600082821c905092915050565b60006146ab6000198460080261468d565b1980831691505092915050565b60006146c4838361469a565b9150826002028217905092915050565b6146dd82613509565b67ffffffffffffffff8111156146f6576146f5613802565b5b61470082546144f7565b61470b828285614647565b600060209050601f83116001811461473e576000841561472c578287015190505b61473685826146b8565b86555061479e565b601f19841661474c86614528565b60005b828110156147745784890151825560018201915060208501945060208101905061474f565b86831015614791578489015161478d601f89168261469a565b8355505b6001600288020188555050505b505050505050565b60006147b28284614473565b915081905092915050565b7f5075626c6973686572206e6f7420666f756e6400000000000000000000000000600082015250565b60006147f3601383613ba9565b91506147fe826147bd565b602082019050919050565b60006020820190508181036000830152614822816147e6565b9050919050565b600061483482613457565b915061483f83613457565b9250828203905081811115614857576148566143f1565b5b92915050565b7f5075626c6973686572206e6f7420726567697374657265640000000000000000600082015250565b6000614893601883613ba9565b915061489e8261485d565b602082019050919050565b600060208201905081810360008301526148c281614886565b9050919050565b7f41727469636c6520646f6573206e6f7420657869737400000000000000000000600082015250565b60006148ff601683613ba9565b915061490a826148c9565b602082019050919050565b6000602082019050818103600083015261492e816148f2565b9050919050565b7f4f6e6c7920746865207075626c69736865722063616e2075706461746520746860008201527f652061727469636c650000000000000000000000000000000000000000000000602082015250565b6000614991602983613ba9565b915061499c82614935565b604082019050919050565b600060208201905081810360008301526149c081614984565b9050919050565b7f4e6577207469746c652063616e6e6f7420626520656d70747900000000000000600082015250565b60006149fd601983613ba9565b9150614a08826149c7565b602082019050919050565b60006020820190508181036000830152614a2c816149f0565b9050919050565b7f4e657720636f6e74656e742063616e6e6f7420626520656d7074790000000000600082015250565b6000614a69601b83613ba9565b9150614a7482614a33565b602082019050919050565b60006020820190508181036000830152614a9881614a5c565b9050919050565b6000614aaa82613457565b9150614ab583613457565b9250828201905080821115614acd57614acc6143f1565b5b92915050565b6000819050919050565b614aee614ae98261376b565b614ad3565b82525050565b6000614b008284614add565b60208201915081905092915050565b7f43616c6c6572206973206e6f7420616e2061646d696e00000000000000000000600082015250565b6000614b45601683613ba9565b9150614b5082614b0f565b602082019050919050565b60006020820190508181036000830152614b7481614b38565b9050919050565b7f5075626c697368657220616c7265616479207265676973746572656400000000600082015250565b6000614bb1601c83613ba9565b9150614bbc82614b7b565b602082019050919050565b60006020820190508181036000830152614be081614ba4565b9050919050565b7f4e487b7100000000000000000000000000000000000000000000000000000000600052603160045260246000fd5b6000604082019050614c2b6000830185613448565b614c3860208301846137ce565b939250505056fea2646970667358221220429597fe3c72679aafd737b6c4508246c3ab8bf4cfd8a98251b8ecc4b4899a2464736f6c63430008180033",
  "linkReferences": {},
  "deployedLinkReferences": {}
}